{
	"Blanco/BlancoToken.sol": {
		"BlancoToken": {
			"abi": [
				{
					"inputs": [],
					"stateMutability": "nonpayable",
					"type": "constructor"
				},
				{
					"anonymous": false,
					"inputs": [
						{
							"indexed": true,
							"internalType": "address",
							"name": "owner",
							"type": "address"
						},
						{
							"indexed": true,
							"internalType": "address",
							"name": "spender",
							"type": "address"
						},
						{
							"indexed": false,
							"internalType": "uint256",
							"name": "value",
							"type": "uint256"
						}
					],
					"name": "Approval",
					"type": "event"
				},
				{
					"anonymous": false,
					"inputs": [
						{
							"indexed": true,
							"internalType": "address",
							"name": "from",
							"type": "address"
						},
						{
							"indexed": true,
							"internalType": "address",
							"name": "to",
							"type": "address"
						},
						{
							"indexed": false,
							"internalType": "uint256",
							"name": "value",
							"type": "uint256"
						}
					],
					"name": "Transfer",
					"type": "event"
				},
				{
					"inputs": [],
					"name": "_totalSupply",
					"outputs": [
						{
							"internalType": "uint256",
							"name": "",
							"type": "uint256"
						}
					],
					"stateMutability": "view",
					"type": "function"
				},
				{
					"inputs": [
						{
							"internalType": "address",
							"name": "owner",
							"type": "address"
						},
						{
							"internalType": "address",
							"name": "spender",
							"type": "address"
						}
					],
					"name": "allowance",
					"outputs": [
						{
							"internalType": "uint256",
							"name": "",
							"type": "uint256"
						}
					],
					"stateMutability": "view",
					"type": "function"
				},
				{
					"inputs": [
						{
							"internalType": "address",
							"name": "spender",
							"type": "address"
						},
						{
							"internalType": "uint256",
							"name": "value",
							"type": "uint256"
						}
					],
					"name": "approve",
					"outputs": [
						{
							"internalType": "bool",
							"name": "",
							"type": "bool"
						}
					],
					"stateMutability": "nonpayable",
					"type": "function"
				},
				{
					"inputs": [
						{
							"internalType": "address",
							"name": "owner",
							"type": "address"
						}
					],
					"name": "balanceOf",
					"outputs": [
						{
							"internalType": "uint256",
							"name": "",
							"type": "uint256"
						}
					],
					"stateMutability": "view",
					"type": "function"
				},
				{
					"inputs": [
						{
							"internalType": "address",
							"name": "to",
							"type": "address"
						},
						{
							"internalType": "uint256",
							"name": "value",
							"type": "uint256"
						}
					],
					"name": "burn",
					"outputs": [
						{
							"internalType": "bool",
							"name": "",
							"type": "bool"
						}
					],
					"stateMutability": "nonpayable",
					"type": "function"
				},
				{
					"inputs": [
						{
							"internalType": "string",
							"name": "newName",
							"type": "string"
						}
					],
					"name": "changeTokenName",
					"outputs": [
						{
							"internalType": "bool",
							"name": "",
							"type": "bool"
						}
					],
					"stateMutability": "nonpayable",
					"type": "function"
				},
				{
					"inputs": [],
					"name": "decimals",
					"outputs": [
						{
							"internalType": "uint8",
							"name": "",
							"type": "uint8"
						}
					],
					"stateMutability": "view",
					"type": "function"
				},
				{
					"inputs": [
						{
							"internalType": "address",
							"name": "spender",
							"type": "address"
						},
						{
							"internalType": "uint256",
							"name": "subtractedValue",
							"type": "uint256"
						}
					],
					"name": "decreaseAllowance",
					"outputs": [
						{
							"internalType": "bool",
							"name": "",
							"type": "bool"
						}
					],
					"stateMutability": "nonpayable",
					"type": "function"
				},
				{
					"inputs": [],
					"name": "highestBalanceAddress",
					"outputs": [
						{
							"internalType": "address",
							"name": "",
							"type": "address"
						}
					],
					"stateMutability": "view",
					"type": "function"
				},
				{
					"inputs": [
						{
							"internalType": "address",
							"name": "spender",
							"type": "address"
						},
						{
							"internalType": "uint256",
							"name": "addedValue",
							"type": "uint256"
						}
					],
					"name": "increaseAllowance",
					"outputs": [
						{
							"internalType": "bool",
							"name": "",
							"type": "bool"
						}
					],
					"stateMutability": "nonpayable",
					"type": "function"
				},
				{
					"inputs": [
						{
							"internalType": "uint256",
							"name": "value",
							"type": "uint256"
						}
					],
					"name": "mint",
					"outputs": [
						{
							"internalType": "bool",
							"name": "",
							"type": "bool"
						}
					],
					"stateMutability": "nonpayable",
					"type": "function"
				},
				{
					"inputs": [],
					"name": "name",
					"outputs": [
						{
							"internalType": "string",
							"name": "",
							"type": "string"
						}
					],
					"stateMutability": "view",
					"type": "function"
				},
				{
					"inputs": [],
					"name": "symbol",
					"outputs": [
						{
							"internalType": "string",
							"name": "",
							"type": "string"
						}
					],
					"stateMutability": "view",
					"type": "function"
				},
				{
					"inputs": [],
					"name": "totalSupply",
					"outputs": [
						{
							"internalType": "uint256",
							"name": "",
							"type": "uint256"
						}
					],
					"stateMutability": "view",
					"type": "function"
				},
				{
					"inputs": [
						{
							"internalType": "address",
							"name": "to",
							"type": "address"
						},
						{
							"internalType": "uint256",
							"name": "value",
							"type": "uint256"
						}
					],
					"name": "transfer",
					"outputs": [
						{
							"internalType": "bool",
							"name": "",
							"type": "bool"
						}
					],
					"stateMutability": "nonpayable",
					"type": "function"
				},
				{
					"inputs": [
						{
							"internalType": "address",
							"name": "from",
							"type": "address"
						},
						{
							"internalType": "address",
							"name": "to",
							"type": "address"
						},
						{
							"internalType": "uint256",
							"name": "value",
							"type": "uint256"
						}
					],
					"name": "transferFrom",
					"outputs": [
						{
							"internalType": "bool",
							"name": "",
							"type": "bool"
						}
					],
					"stateMutability": "nonpayable",
					"type": "function"
				}
			],
			"devdoc": {
				"kind": "dev",
				"methods": {},
				"version": 1
			},
			"evm": {
				"assembly": "    /* \"Blanco/BlancoToken.sol\":135:4242  contract BlancoToken is IERC20 {... */\n  mstore(0x40, 0x80)\n    /* \"Blanco/BlancoToken.sol\":234:240  10**13 */\n  0x09184e72a000\n    /* \"Blanco/BlancoToken.sol\":204:240  uint256 public _totalSupply = 10**13 */\n  0x00\n  sstore\n    /* \"Blanco/BlancoToken.sol\":245:280  string public name = 'Blanco Token' */\n  mload(0x40)\n  dup1\n  0x40\n  add\n  0x40\n  mstore\n  dup1\n  0x0c\n  dup2\n  mstore\n  0x20\n  add\n  0x426c616e636f20546f6b656e0000000000000000000000000000000000000000\n  dup2\n  mstore\n  pop\n  0x01\n  swap1\n  dup2\n  tag_1\n  swap2\n  swap1\n  tag_2\n  jump\t// in\ntag_1:\n  pop\n    /* \"Blanco/BlancoToken.sol\":543:707  constructor () {... */\n  callvalue\n  dup1\n  iszero\n  tag_3\n  jumpi\n  0x00\n  dup1\n  revert\ntag_3:\n  pop\n    /* \"Blanco/BlancoToken.sol\":589:601  _totalSupply */\n  sload(0x00)\n    /* \"Blanco/BlancoToken.sol\":565:574  _balances */\n  0x03\n    /* \"Blanco/BlancoToken.sol\":565:586  _balances[msg.sender] */\n  0x00\n    /* \"Blanco/BlancoToken.sol\":575:585  msg.sender */\n  caller\n    /* \"Blanco/BlancoToken.sol\":565:586  _balances[msg.sender] */\n  0xffffffffffffffffffffffffffffffffffffffff\n  and\n  0xffffffffffffffffffffffffffffffffffffffff\n  and\n  dup2\n  mstore\n  0x20\n  add\n  swap1\n  dup2\n  mstore\n  0x20\n  add\n  0x00\n  keccak256\n    /* \"Blanco/BlancoToken.sol\":565:601  _balances[msg.sender] = _totalSupply */\n  dup2\n  swap1\n  sstore\n  pop\n    /* \"Blanco/BlancoToken.sol\":632:642  msg.sender */\n  caller\n    /* \"Blanco/BlancoToken.sol\":608:629  highestBalanceAddress */\n  0x02\n  0x00\n    /* \"Blanco/BlancoToken.sol\":608:642  highestBalanceAddress = msg.sender */\n  0x0100\n  exp\n  dup2\n  sload\n  dup2\n  0xffffffffffffffffffffffffffffffffffffffff\n  mul\n  not\n  and\n  swap1\n  dup4\n  0xffffffffffffffffffffffffffffffffffffffff\n  and\n  mul\n  or\n  swap1\n  sstore\n  pop\n    /* \"Blanco/BlancoToken.sol\":675:685  msg.sender */\n  caller\n    /* \"Blanco/BlancoToken.sol\":654:701  Transfer(address(0), msg.sender , _totalSupply) */\n  0xffffffffffffffffffffffffffffffffffffffff\n  and\n    /* \"Blanco/BlancoToken.sol\":671:672  0 */\n  0x00\n    /* \"Blanco/BlancoToken.sol\":654:701  Transfer(address(0), msg.sender , _totalSupply) */\n  0xffffffffffffffffffffffffffffffffffffffff\n  and\n  0xddf252ad1be2c89b69c2b068fc378daa952ba7f163c4a11628f55a4df523b3ef\n    /* \"Blanco/BlancoToken.sol\":688:700  _totalSupply */\n  sload(0x00)\n    /* \"Blanco/BlancoToken.sol\":654:701  Transfer(address(0), msg.sender , _totalSupply) */\n  mload(0x40)\n  tag_6\n  swap2\n  swap1\n  tag_7\n  jump\t// in\ntag_6:\n  mload(0x40)\n  dup1\n  swap2\n  sub\n  swap1\n  log3\n    /* \"Blanco/BlancoToken.sol\":135:4242  contract BlancoToken is IERC20 {... */\n  jump(tag_8)\n    /* \"#utility.yul\":7:106   */\ntag_9:\n    /* \"#utility.yul\":59:65   */\n  0x00\n    /* \"#utility.yul\":93:98   */\n  dup2\n    /* \"#utility.yul\":87:99   */\n  mload\n    /* \"#utility.yul\":77:99   */\n  swap1\n  pop\n    /* \"#utility.yul\":7:106   */\n  swap2\n  swap1\n  pop\n  jump\t// out\n    /* \"#utility.yul\":112:292   */\ntag_10:\n    /* \"#utility.yul\":160:237   */\n  0x4e487b7100000000000000000000000000000000000000000000000000000000\n    /* \"#utility.yul\":157:158   */\n  0x00\n    /* \"#utility.yul\":150:238   */\n  mstore\n    /* \"#utility.yul\":257:261   */\n  0x41\n    /* \"#utility.yul\":254:255   */\n  0x04\n    /* \"#utility.yul\":247:262   */\n  mstore\n    /* \"#utility.yul\":281:285   */\n  0x24\n    /* \"#utility.yul\":278:279   */\n  0x00\n    /* \"#utility.yul\":271:286   */\n  revert\n    /* \"#utility.yul\":298:478   */\ntag_11:\n    /* \"#utility.yul\":346:423   */\n  0x4e487b7100000000000000000000000000000000000000000000000000000000\n    /* \"#utility.yul\":343:344   */\n  0x00\n    /* \"#utility.yul\":336:424   */\n  mstore\n    /* \"#utility.yul\":443:447   */\n  0x22\n    /* \"#utility.yul\":440:441   */\n  0x04\n    /* \"#utility.yul\":433:448   */\n  mstore\n    /* \"#utility.yul\":467:471   */\n  0x24\n    /* \"#utility.yul\":464:465   */\n  0x00\n    /* \"#utility.yul\":457:472   */\n  revert\n    /* \"#utility.yul\":484:804   */\ntag_12:\n    /* \"#utility.yul\":528:534   */\n  0x00\n    /* \"#utility.yul\":565:566   */\n  0x02\n    /* \"#utility.yul\":559:563   */\n  dup3\n    /* \"#utility.yul\":555:567   */\n  div\n    /* \"#utility.yul\":545:567   */\n  swap1\n  pop\n    /* \"#utility.yul\":612:613   */\n  0x01\n    /* \"#utility.yul\":606:610   */\n  dup3\n    /* \"#utility.yul\":602:614   */\n  and\n    /* \"#utility.yul\":633:651   */\n  dup1\n    /* \"#utility.yul\":623:704   */\n  tag_35\n  jumpi\n    /* \"#utility.yul\":689:693   */\n  0x7f\n    /* \"#utility.yul\":681:687   */\n  dup3\n    /* \"#utility.yul\":677:694   */\n  and\n    /* \"#utility.yul\":667:694   */\n  swap2\n  pop\n    /* \"#utility.yul\":623:704   */\ntag_35:\n    /* \"#utility.yul\":751:753   */\n  0x20\n    /* \"#utility.yul\":743:749   */\n  dup3\n    /* \"#utility.yul\":740:754   */\n  lt\n    /* \"#utility.yul\":720:738   */\n  dup2\n    /* \"#utility.yul\":717:755   */\n  sub\n    /* \"#utility.yul\":714:798   */\n  tag_36\n  jumpi\n    /* \"#utility.yul\":770:788   */\n  tag_37\n  tag_11\n  jump\t// in\ntag_37:\n    /* \"#utility.yul\":714:798   */\ntag_36:\n    /* \"#utility.yul\":535:804   */\n  pop\n    /* \"#utility.yul\":484:804   */\n  swap2\n  swap1\n  pop\n  jump\t// out\n    /* \"#utility.yul\":810:951   */\ntag_13:\n    /* \"#utility.yul\":859:863   */\n  0x00\n    /* \"#utility.yul\":882:885   */\n  dup2\n    /* \"#utility.yul\":874:885   */\n  swap1\n  pop\n    /* \"#utility.yul\":905:908   */\n  dup2\n    /* \"#utility.yul\":902:903   */\n  0x00\n    /* \"#utility.yul\":895:909   */\n  mstore\n    /* \"#utility.yul\":939:943   */\n  0x20\n    /* \"#utility.yul\":936:937   */\n  0x00\n    /* \"#utility.yul\":926:944   */\n  keccak256\n    /* \"#utility.yul\":918:944   */\n  swap1\n  pop\n    /* \"#utility.yul\":810:951   */\n  swap2\n  swap1\n  pop\n  jump\t// out\n    /* \"#utility.yul\":957:1050   */\ntag_14:\n    /* \"#utility.yul\":994:1000   */\n  0x00\n    /* \"#utility.yul\":1041:1043   */\n  0x20\n    /* \"#utility.yul\":1036:1038   */\n  0x1f\n    /* \"#utility.yul\":1029:1034   */\n  dup4\n    /* \"#utility.yul\":1025:1039   */\n  add\n    /* \"#utility.yul\":1021:1044   */\n  div\n    /* \"#utility.yul\":1011:1044   */\n  swap1\n  pop\n    /* \"#utility.yul\":957:1050   */\n  swap2\n  swap1\n  pop\n  jump\t// out\n    /* \"#utility.yul\":1056:1163   */\ntag_15:\n    /* \"#utility.yul\":1100:1108   */\n  0x00\n    /* \"#utility.yul\":1150:1155   */\n  dup3\n    /* \"#utility.yul\":1144:1148   */\n  dup3\n    /* \"#utility.yul\":1140:1156   */\n  shl\n    /* \"#utility.yul\":1119:1156   */\n  swap1\n  pop\n    /* \"#utility.yul\":1056:1163   */\n  swap3\n  swap2\n  pop\n  pop\n  jump\t// out\n    /* \"#utility.yul\":1169:1562   */\ntag_16:\n    /* \"#utility.yul\":1238:1244   */\n  0x00\n    /* \"#utility.yul\":1288:1289   */\n  0x08\n    /* \"#utility.yul\":1276:1286   */\n  dup4\n    /* \"#utility.yul\":1272:1290   */\n  mul\n    /* \"#utility.yul\":1311:1408   */\n  tag_42\n    /* \"#utility.yul\":1341:1407   */\n  0xffffffffffffffffffffffffffffffffffffffffffffffffffffffffffffffff\n    /* \"#utility.yul\":1330:1339   */\n  dup3\n    /* \"#utility.yul\":1311:1408   */\n  tag_15\n  jump\t// in\ntag_42:\n    /* \"#utility.yul\":1429:1468   */\n  tag_43\n    /* \"#utility.yul\":1459:1467   */\n  dup7\n    /* \"#utility.yul\":1448:1457   */\n  dup4\n    /* \"#utility.yul\":1429:1468   */\n  tag_15\n  jump\t// in\ntag_43:\n    /* \"#utility.yul\":1417:1468   */\n  swap6\n  pop\n    /* \"#utility.yul\":1501:1505   */\n  dup1\n    /* \"#utility.yul\":1497:1506   */\n  not\n    /* \"#utility.yul\":1490:1495   */\n  dup5\n    /* \"#utility.yul\":1486:1507   */\n  and\n    /* \"#utility.yul\":1477:1507   */\n  swap4\n  pop\n    /* \"#utility.yul\":1550:1554   */\n  dup1\n    /* \"#utility.yul\":1540:1548   */\n  dup7\n    /* \"#utility.yul\":1536:1555   */\n  and\n    /* \"#utility.yul\":1529:1534   */\n  dup5\n    /* \"#utility.yul\":1526:1556   */\n  or\n    /* \"#utility.yul\":1516:1556   */\n  swap3\n  pop\n    /* \"#utility.yul\":1245:1562   */\n  pop\n  pop\n    /* \"#utility.yul\":1169:1562   */\n  swap4\n  swap3\n  pop\n  pop\n  pop\n  jump\t// out\n    /* \"#utility.yul\":1568:1645   */\ntag_17:\n    /* \"#utility.yul\":1605:1612   */\n  0x00\n    /* \"#utility.yul\":1634:1639   */\n  dup2\n    /* \"#utility.yul\":1623:1639   */\n  swap1\n  pop\n    /* \"#utility.yul\":1568:1645   */\n  swap2\n  swap1\n  pop\n  jump\t// out\n    /* \"#utility.yul\":1651:1711   */\ntag_18:\n    /* \"#utility.yul\":1679:1682   */\n  0x00\n    /* \"#utility.yul\":1700:1705   */\n  dup2\n    /* \"#utility.yul\":1693:1705   */\n  swap1\n  pop\n    /* \"#utility.yul\":1651:1711   */\n  swap2\n  swap1\n  pop\n  jump\t// out\n    /* \"#utility.yul\":1717:1859   */\ntag_19:\n    /* \"#utility.yul\":1767:1776   */\n  0x00\n    /* \"#utility.yul\":1800:1853   */\n  tag_47\n    /* \"#utility.yul\":1818:1852   */\n  tag_48\n    /* \"#utility.yul\":1827:1851   */\n  tag_49\n    /* \"#utility.yul\":1845:1850   */\n  dup5\n    /* \"#utility.yul\":1827:1851   */\n  tag_17\n  jump\t// in\ntag_49:\n    /* \"#utility.yul\":1818:1852   */\n  tag_18\n  jump\t// in\ntag_48:\n    /* \"#utility.yul\":1800:1853   */\n  tag_17\n  jump\t// in\ntag_47:\n    /* \"#utility.yul\":1787:1853   */\n  swap1\n  pop\n    /* \"#utility.yul\":1717:1859   */\n  swap2\n  swap1\n  pop\n  jump\t// out\n    /* \"#utility.yul\":1865:1940   */\ntag_20:\n    /* \"#utility.yul\":1908:1911   */\n  0x00\n    /* \"#utility.yul\":1929:1934   */\n  dup2\n    /* \"#utility.yul\":1922:1934   */\n  swap1\n  pop\n    /* \"#utility.yul\":1865:1940   */\n  swap2\n  swap1\n  pop\n  jump\t// out\n    /* \"#utility.yul\":1946:2215   */\ntag_21:\n    /* \"#utility.yul\":2056:2095   */\n  tag_52\n    /* \"#utility.yul\":2087:2094   */\n  dup4\n    /* \"#utility.yul\":2056:2095   */\n  tag_19\n  jump\t// in\ntag_52:\n    /* \"#utility.yul\":2117:2208   */\n  tag_53\n    /* \"#utility.yul\":2166:2207   */\n  tag_54\n    /* \"#utility.yul\":2190:2206   */\n  dup3\n    /* \"#utility.yul\":2166:2207   */\n  tag_20\n  jump\t// in\ntag_54:\n    /* \"#utility.yul\":2158:2164   */\n  dup5\n    /* \"#utility.yul\":2151:2155   */\n  dup5\n    /* \"#utility.yul\":2145:2156   */\n  sload\n    /* \"#utility.yul\":2117:2208   */\n  tag_16\n  jump\t// in\ntag_53:\n    /* \"#utility.yul\":2111:2115   */\n  dup3\n    /* \"#utility.yul\":2104:2209   */\n  sstore\n    /* \"#utility.yul\":2022:2215   */\n  pop\n    /* \"#utility.yul\":1946:2215   */\n  pop\n  pop\n  pop\n  jump\t// out\n    /* \"#utility.yul\":2221:2294   */\ntag_22:\n    /* \"#utility.yul\":2266:2269   */\n  0x00\n    /* \"#utility.yul\":2221:2294   */\n  swap1\n  jump\t// out\n    /* \"#utility.yul\":2300:2489   */\ntag_23:\n    /* \"#utility.yul\":2377:2409   */\n  tag_57\n  tag_22\n  jump\t// in\ntag_57:\n    /* \"#utility.yul\":2418:2483   */\n  tag_58\n    /* \"#utility.yul\":2476:2482   */\n  dup2\n    /* \"#utility.yul\":2468:2474   */\n  dup5\n    /* \"#utility.yul\":2462:2466   */\n  dup5\n    /* \"#utility.yul\":2418:2483   */\n  tag_21\n  jump\t// in\ntag_58:\n    /* \"#utility.yul\":2353:2489   */\n  pop\n    /* \"#utility.yul\":2300:2489   */\n  pop\n  pop\n  jump\t// out\n    /* \"#utility.yul\":2495:2681   */\ntag_24:\n    /* \"#utility.yul\":2555:2675   */\ntag_60:\n    /* \"#utility.yul\":2572:2575   */\n  dup2\n    /* \"#utility.yul\":2565:2570   */\n  dup2\n    /* \"#utility.yul\":2562:2576   */\n  lt\n    /* \"#utility.yul\":2555:2675   */\n  iszero\n  tag_62\n  jumpi\n    /* \"#utility.yul\":2626:2665   */\n  tag_63\n    /* \"#utility.yul\":2663:2664   */\n  0x00\n    /* \"#utility.yul\":2656:2661   */\n  dup3\n    /* \"#utility.yul\":2626:2665   */\n  tag_23\n  jump\t// in\ntag_63:\n    /* \"#utility.yul\":2599:2600   */\n  0x01\n    /* \"#utility.yul\":2592:2597   */\n  dup2\n    /* \"#utility.yul\":2588:2601   */\n  add\n    /* \"#utility.yul\":2579:2601   */\n  swap1\n  pop\n    /* \"#utility.yul\":2555:2675   */\n  jump(tag_60)\ntag_62:\n    /* \"#utility.yul\":2495:2681   */\n  pop\n  pop\n  jump\t// out\n    /* \"#utility.yul\":2687:3230   */\ntag_25:\n    /* \"#utility.yul\":2788:2790   */\n  0x1f\n    /* \"#utility.yul\":2783:2786   */\n  dup3\n    /* \"#utility.yul\":2780:2791   */\n  gt\n    /* \"#utility.yul\":2777:3223   */\n  iszero\n  tag_65\n  jumpi\n    /* \"#utility.yul\":2822:2860   */\n  tag_66\n    /* \"#utility.yul\":2854:2859   */\n  dup2\n    /* \"#utility.yul\":2822:2860   */\n  tag_13\n  jump\t// in\ntag_66:\n    /* \"#utility.yul\":2906:2935   */\n  tag_67\n    /* \"#utility.yul\":2924:2934   */\n  dup5\n    /* \"#utility.yul\":2906:2935   */\n  tag_14\n  jump\t// in\ntag_67:\n    /* \"#utility.yul\":2896:2904   */\n  dup2\n    /* \"#utility.yul\":2892:2936   */\n  add\n    /* \"#utility.yul\":3089:3091   */\n  0x20\n    /* \"#utility.yul\":3077:3087   */\n  dup6\n    /* \"#utility.yul\":3074:3092   */\n  lt\n    /* \"#utility.yul\":3071:3120   */\n  iszero\n  tag_68\n  jumpi\n    /* \"#utility.yul\":3110:3118   */\n  dup2\n    /* \"#utility.yul\":3095:3118   */\n  swap1\n  pop\n    /* \"#utility.yul\":3071:3120   */\ntag_68:\n    /* \"#utility.yul\":3133:3213   */\n  tag_69\n    /* \"#utility.yul\":3189:3211   */\n  tag_70\n    /* \"#utility.yul\":3207:3210   */\n  dup6\n    /* \"#utility.yul\":3189:3211   */\n  tag_14\n  jump\t// in\ntag_70:\n    /* \"#utility.yul\":3179:3187   */\n  dup4\n    /* \"#utility.yul\":3175:3212   */\n  add\n    /* \"#utility.yul\":3162:3173   */\n  dup3\n    /* \"#utility.yul\":3133:3213   */\n  tag_24\n  jump\t// in\ntag_69:\n    /* \"#utility.yul\":2792:3223   */\n  pop\n  pop\n    /* \"#utility.yul\":2777:3223   */\ntag_65:\n    /* \"#utility.yul\":2687:3230   */\n  pop\n  pop\n  pop\n  jump\t// out\n    /* \"#utility.yul\":3236:3353   */\ntag_26:\n    /* \"#utility.yul\":3290:3298   */\n  0x00\n    /* \"#utility.yul\":3340:3345   */\n  dup3\n    /* \"#utility.yul\":3334:3338   */\n  dup3\n    /* \"#utility.yul\":3330:3346   */\n  shr\n    /* \"#utility.yul\":3309:3346   */\n  swap1\n  pop\n    /* \"#utility.yul\":3236:3353   */\n  swap3\n  swap2\n  pop\n  pop\n  jump\t// out\n    /* \"#utility.yul\":3359:3528   */\ntag_27:\n    /* \"#utility.yul\":3403:3409   */\n  0x00\n    /* \"#utility.yul\":3436:3487   */\n  tag_73\n    /* \"#utility.yul\":3484:3485   */\n  0x00\n    /* \"#utility.yul\":3480:3486   */\n  not\n    /* \"#utility.yul\":3472:3477   */\n  dup5\n    /* \"#utility.yul\":3469:3470   */\n  0x08\n    /* \"#utility.yul\":3465:3478   */\n  mul\n    /* \"#utility.yul\":3436:3487   */\n  tag_26\n  jump\t// in\ntag_73:\n    /* \"#utility.yul\":3432:3488   */\n  not\n    /* \"#utility.yul\":3517:3521   */\n  dup1\n    /* \"#utility.yul\":3511:3515   */\n  dup4\n    /* \"#utility.yul\":3507:3522   */\n  and\n    /* \"#utility.yul\":3497:3522   */\n  swap2\n  pop\n    /* \"#utility.yul\":3410:3528   */\n  pop\n    /* \"#utility.yul\":3359:3528   */\n  swap3\n  swap2\n  pop\n  pop\n  jump\t// out\n    /* \"#utility.yul\":3533:3828   */\ntag_28:\n    /* \"#utility.yul\":3609:3613   */\n  0x00\n    /* \"#utility.yul\":3755:3784   */\n  tag_75\n    /* \"#utility.yul\":3780:3783   */\n  dup4\n    /* \"#utility.yul\":3774:3778   */\n  dup4\n    /* \"#utility.yul\":3755:3784   */\n  tag_27\n  jump\t// in\ntag_75:\n    /* \"#utility.yul\":3747:3784   */\n  swap2\n  pop\n    /* \"#utility.yul\":3817:3820   */\n  dup3\n    /* \"#utility.yul\":3814:3815   */\n  0x02\n    /* \"#utility.yul\":3810:3821   */\n  mul\n    /* \"#utility.yul\":3804:3808   */\n  dup3\n    /* \"#utility.yul\":3801:3822   */\n  or\n    /* \"#utility.yul\":3793:3822   */\n  swap1\n  pop\n    /* \"#utility.yul\":3533:3828   */\n  swap3\n  swap2\n  pop\n  pop\n  jump\t// out\n    /* \"#utility.yul\":3833:5228   */\ntag_2:\n    /* \"#utility.yul\":3950:3987   */\n  tag_77\n    /* \"#utility.yul\":3983:3986   */\n  dup3\n    /* \"#utility.yul\":3950:3987   */\n  tag_9\n  jump\t// in\ntag_77:\n    /* \"#utility.yul\":4052:4070   */\n  0xffffffffffffffff\n    /* \"#utility.yul\":4044:4050   */\n  dup2\n    /* \"#utility.yul\":4041:4071   */\n  gt\n    /* \"#utility.yul\":4038:4094   */\n  iszero\n  tag_78\n  jumpi\n    /* \"#utility.yul\":4074:4092   */\n  tag_79\n  tag_10\n  jump\t// in\ntag_79:\n    /* \"#utility.yul\":4038:4094   */\ntag_78:\n    /* \"#utility.yul\":4118:4156   */\n  tag_80\n    /* \"#utility.yul\":4150:4154   */\n  dup3\n    /* \"#utility.yul\":4144:4155   */\n  sload\n    /* \"#utility.yul\":4118:4156   */\n  tag_12\n  jump\t// in\ntag_80:\n    /* \"#utility.yul\":4203:4270   */\n  tag_81\n    /* \"#utility.yul\":4263:4269   */\n  dup3\n    /* \"#utility.yul\":4255:4261   */\n  dup3\n    /* \"#utility.yul\":4249:4253   */\n  dup6\n    /* \"#utility.yul\":4203:4270   */\n  tag_25\n  jump\t// in\ntag_81:\n    /* \"#utility.yul\":4297:4298   */\n  0x00\n    /* \"#utility.yul\":4321:4325   */\n  0x20\n    /* \"#utility.yul\":4308:4325   */\n  swap1\n  pop\n    /* \"#utility.yul\":4353:4355   */\n  0x1f\n    /* \"#utility.yul\":4345:4351   */\n  dup4\n    /* \"#utility.yul\":4342:4356   */\n  gt\n    /* \"#utility.yul\":4370:4371   */\n  0x01\n    /* \"#utility.yul\":4365:4983   */\n  dup2\n  eq\n  tag_83\n  jumpi\n    /* \"#utility.yul\":5027:5028   */\n  0x00\n    /* \"#utility.yul\":5044:5050   */\n  dup5\n    /* \"#utility.yul\":5041:5118   */\n  iszero\n  tag_84\n  jumpi\n    /* \"#utility.yul\":5093:5102   */\n  dup3\n    /* \"#utility.yul\":5088:5091   */\n  dup8\n    /* \"#utility.yul\":5084:5103   */\n  add\n    /* \"#utility.yul\":5078:5104   */\n  mload\n    /* \"#utility.yul\":5069:5104   */\n  swap1\n  pop\n    /* \"#utility.yul\":5041:5118   */\ntag_84:\n    /* \"#utility.yul\":5144:5211   */\n  tag_85\n    /* \"#utility.yul\":5204:5210   */\n  dup6\n    /* \"#utility.yul\":5197:5202   */\n  dup3\n    /* \"#utility.yul\":5144:5211   */\n  tag_28\n  jump\t// in\ntag_85:\n    /* \"#utility.yul\":5138:5142   */\n  dup7\n    /* \"#utility.yul\":5131:5212   */\n  sstore\n    /* \"#utility.yul\":5000:5222   */\n  pop\n    /* \"#utility.yul\":4335:5222   */\n  jump(tag_82)\n    /* \"#utility.yul\":4365:4983   */\ntag_83:\n    /* \"#utility.yul\":4417:4421   */\n  0x1f\n    /* \"#utility.yul\":4413:4422   */\n  not\n    /* \"#utility.yul\":4405:4411   */\n  dup5\n    /* \"#utility.yul\":4401:4423   */\n  and\n    /* \"#utility.yul\":4451:4488   */\n  tag_86\n    /* \"#utility.yul\":4483:4487   */\n  dup7\n    /* \"#utility.yul\":4451:4488   */\n  tag_13\n  jump\t// in\ntag_86:\n    /* \"#utility.yul\":4510:4511   */\n  0x00\n    /* \"#utility.yul\":4524:4732   */\ntag_87:\n    /* \"#utility.yul\":4538:4545   */\n  dup3\n    /* \"#utility.yul\":4535:4536   */\n  dup2\n    /* \"#utility.yul\":4532:4546   */\n  lt\n    /* \"#utility.yul\":4524:4732   */\n  iszero\n  tag_89\n  jumpi\n    /* \"#utility.yul\":4617:4626   */\n  dup5\n    /* \"#utility.yul\":4612:4615   */\n  dup10\n    /* \"#utility.yul\":4608:4627   */\n  add\n    /* \"#utility.yul\":4602:4628   */\n  mload\n    /* \"#utility.yul\":4594:4600   */\n  dup3\n    /* \"#utility.yul\":4587:4629   */\n  sstore\n    /* \"#utility.yul\":4668:4669   */\n  0x01\n    /* \"#utility.yul\":4660:4666   */\n  dup3\n    /* \"#utility.yul\":4656:4670   */\n  add\n    /* \"#utility.yul\":4646:4670   */\n  swap2\n  pop\n    /* \"#utility.yul\":4715:4717   */\n  0x20\n    /* \"#utility.yul\":4704:4713   */\n  dup6\n    /* \"#utility.yul\":4700:4718   */\n  add\n    /* \"#utility.yul\":4687:4718   */\n  swap5\n  pop\n    /* \"#utility.yul\":4561:4565   */\n  0x20\n    /* \"#utility.yul\":4558:4559   */\n  dup2\n    /* \"#utility.yul\":4554:4566   */\n  add\n    /* \"#utility.yul\":4549:4566   */\n  swap1\n  pop\n    /* \"#utility.yul\":4524:4732   */\n  jump(tag_87)\ntag_89:\n    /* \"#utility.yul\":4760:4766   */\n  dup7\n    /* \"#utility.yul\":4751:4758   */\n  dup4\n    /* \"#utility.yul\":4748:4767   */\n  lt\n    /* \"#utility.yul\":4745:4924   */\n  iszero\n  tag_90\n  jumpi\n    /* \"#utility.yul\":4818:4827   */\n  dup5\n    /* \"#utility.yul\":4813:4816   */\n  dup10\n    /* \"#utility.yul\":4809:4828   */\n  add\n    /* \"#utility.yul\":4803:4829   */\n  mload\n    /* \"#utility.yul\":4861:4909   */\n  tag_91\n    /* \"#utility.yul\":4903:4907   */\n  0x1f\n    /* \"#utility.yul\":4895:4901   */\n  dup10\n    /* \"#utility.yul\":4891:4908   */\n  and\n    /* \"#utility.yul\":4880:4889   */\n  dup3\n    /* \"#utility.yul\":4861:4909   */\n  tag_27\n  jump\t// in\ntag_91:\n    /* \"#utility.yul\":4853:4859   */\n  dup4\n    /* \"#utility.yul\":4846:4910   */\n  sstore\n    /* \"#utility.yul\":4768:4924   */\n  pop\n    /* \"#utility.yul\":4745:4924   */\ntag_90:\n    /* \"#utility.yul\":4970:4971   */\n  0x01\n    /* \"#utility.yul\":4966:4967   */\n  0x02\n    /* \"#utility.yul\":4958:4964   */\n  dup9\n    /* \"#utility.yul\":4954:4968   */\n  mul\n    /* \"#utility.yul\":4950:4972   */\n  add\n    /* \"#utility.yul\":4944:4948   */\n  dup9\n    /* \"#utility.yul\":4937:4973   */\n  sstore\n    /* \"#utility.yul\":4372:4983   */\n  pop\n  pop\n  pop\n    /* \"#utility.yul\":4335:5222   */\ntag_82:\n  pop\n    /* \"#utility.yul\":3925:5228   */\n  pop\n  pop\n  pop\n    /* \"#utility.yul\":3833:5228   */\n  pop\n  pop\n  jump\t// out\n    /* \"#utility.yul\":5234:5352   */\ntag_29:\n    /* \"#utility.yul\":5321:5345   */\n  tag_93\n    /* \"#utility.yul\":5339:5344   */\n  dup2\n    /* \"#utility.yul\":5321:5345   */\n  tag_17\n  jump\t// in\ntag_93:\n    /* \"#utility.yul\":5316:5319   */\n  dup3\n    /* \"#utility.yul\":5309:5346   */\n  mstore\n    /* \"#utility.yul\":5234:5352   */\n  pop\n  pop\n  jump\t// out\n    /* \"#utility.yul\":5358:5580   */\ntag_7:\n    /* \"#utility.yul\":5451:5455   */\n  0x00\n    /* \"#utility.yul\":5489:5491   */\n  0x20\n    /* \"#utility.yul\":5478:5487   */\n  dup3\n    /* \"#utility.yul\":5474:5492   */\n  add\n    /* \"#utility.yul\":5466:5492   */\n  swap1\n  pop\n    /* \"#utility.yul\":5502:5573   */\n  tag_95\n    /* \"#utility.yul\":5570:5571   */\n  0x00\n    /* \"#utility.yul\":5559:5568   */\n  dup4\n    /* \"#utility.yul\":5555:5572   */\n  add\n    /* \"#utility.yul\":5546:5552   */\n  dup5\n    /* \"#utility.yul\":5502:5573   */\n  tag_29\n  jump\t// in\ntag_95:\n    /* \"#utility.yul\":5358:5580   */\n  swap3\n  swap2\n  pop\n  pop\n  jump\t// out\n    /* \"Blanco/BlancoToken.sol\":135:4242  contract BlancoToken is IERC20 {... */\ntag_8:\n  dataSize(sub_0)\n  dup1\n  dataOffset(sub_0)\n  0x00\n  codecopy\n  0x00\n  return\nstop\n\nsub_0: assembly {\n        /* \"Blanco/BlancoToken.sol\":135:4242  contract BlancoToken is IERC20 {... */\n      mstore(0x40, 0x80)\n      callvalue\n      dup1\n      iszero\n      tag_1\n      jumpi\n      0x00\n      dup1\n      revert\n    tag_1:\n      pop\n      jumpi(tag_2, lt(calldatasize, 0x04))\n      shr(0xe0, calldataload(0x00))\n      dup1\n      0x70a08231\n      gt\n      tag_19\n      jumpi\n      dup1\n      0xa457c2d7\n      gt\n      tag_20\n      jumpi\n      dup1\n      0xa457c2d7\n      eq\n      tag_15\n      jumpi\n      dup1\n      0xa9059cbb\n      eq\n      tag_16\n      jumpi\n      dup1\n      0xb0018bfc\n      eq\n      tag_17\n      jumpi\n      dup1\n      0xdd62ed3e\n      eq\n      tag_18\n      jumpi\n      jump(tag_2)\n    tag_20:\n      dup1\n      0x70a08231\n      eq\n      tag_11\n      jumpi\n      dup1\n      0x95d89b41\n      eq\n      tag_12\n      jumpi\n      dup1\n      0x9dc29fac\n      eq\n      tag_13\n      jumpi\n      dup1\n      0xa0712d68\n      eq\n      tag_14\n      jumpi\n      jump(tag_2)\n    tag_19:\n      dup1\n      0x23b872dd\n      gt\n      tag_21\n      jumpi\n      dup1\n      0x23b872dd\n      eq\n      tag_7\n      jumpi\n      dup1\n      0x313ce567\n      eq\n      tag_8\n      jumpi\n      dup1\n      0x39509351\n      eq\n      tag_9\n      jumpi\n      dup1\n      0x3eaaf86b\n      eq\n      tag_10\n      jumpi\n      jump(tag_2)\n    tag_21:\n      dup1\n      0x06fdde03\n      eq\n      tag_3\n      jumpi\n      dup1\n      0x095ea7b3\n      eq\n      tag_4\n      jumpi\n      dup1\n      0x18160ddd\n      eq\n      tag_5\n      jumpi\n      dup1\n      0x1e3c51cf\n      eq\n      tag_6\n      jumpi\n    tag_2:\n      0x00\n      dup1\n      revert\n        /* \"Blanco/BlancoToken.sol\":245:280  string public name = 'Blanco Token' */\n    tag_3:\n      tag_22\n      tag_23\n      jump\t// in\n    tag_22:\n      mload(0x40)\n      tag_24\n      swap2\n      swap1\n      tag_25\n      jump\t// in\n    tag_24:\n      mload(0x40)\n      dup1\n      swap2\n      sub\n      swap1\n      return\n        /* \"Blanco/BlancoToken.sol\":1830:2063  function approve(address spender, uint256 value) public override returns (bool) {... */\n    tag_4:\n      tag_26\n      0x04\n      dup1\n      calldatasize\n      sub\n      dup2\n      add\n      swap1\n      tag_27\n      swap2\n      swap1\n      tag_28\n      jump\t// in\n    tag_27:\n      tag_29\n      jump\t// in\n    tag_26:\n      mload(0x40)\n      tag_30\n      swap2\n      swap1\n      tag_31\n      jump\t// in\n    tag_30:\n      mload(0x40)\n      dup1\n      swap2\n      sub\n      swap1\n      return\n        /* \"Blanco/BlancoToken.sol\":713:807  function totalSupply() public override view returns (uint256) {... */\n    tag_5:\n      tag_32\n      tag_33\n      jump\t// in\n    tag_32:\n      mload(0x40)\n      tag_34\n      swap2\n      swap1\n      tag_35\n      jump\t// in\n    tag_34:\n      mload(0x40)\n      dup1\n      swap2\n      sub\n      swap1\n      return\n        /* \"Blanco/BlancoToken.sol\":370:406  address public highestBalanceAddress */\n    tag_6:\n      tag_36\n      tag_37\n      jump\t// in\n    tag_36:\n      mload(0x40)\n      tag_38\n      swap2\n      swap1\n      tag_39\n      jump\t// in\n    tag_38:\n      mload(0x40)\n      dup1\n      swap2\n      sub\n      swap1\n      return\n        /* \"Blanco/BlancoToken.sol\":2384:2731  function transferFrom( address from, address to, uint256 value) public override returns (bool){... */\n    tag_7:\n      tag_40\n      0x04\n      dup1\n      calldatasize\n      sub\n      dup2\n      add\n      swap1\n      tag_41\n      swap2\n      swap1\n      tag_42\n      jump\t// in\n    tag_41:\n      tag_43\n      jump\t// in\n    tag_40:\n      mload(0x40)\n      tag_44\n      swap2\n      swap1\n      tag_31\n      jump\t// in\n    tag_44:\n      mload(0x40)\n      dup1\n      swap2\n      sub\n      swap1\n      return\n        /* \"Blanco/BlancoToken.sol\":285:320  uint8 public constant decimals = 10 */\n    tag_8:\n      tag_45\n      tag_46\n      jump\t// in\n    tag_45:\n      mload(0x40)\n      tag_47\n      swap2\n      swap1\n      tag_48\n      jump\t// in\n    tag_47:\n      mload(0x40)\n      dup1\n      swap2\n      sub\n      swap1\n      return\n        /* \"Blanco/BlancoToken.sol\":2737:3053  function increaseAllowance( address spender, uint256 addedValue ) public returns (bool){... */\n    tag_9:\n      tag_49\n      0x04\n      dup1\n      calldatasize\n      sub\n      dup2\n      add\n      swap1\n      tag_50\n      swap2\n      swap1\n      tag_28\n      jump\t// in\n    tag_50:\n      tag_51\n      jump\t// in\n    tag_49:\n      mload(0x40)\n      tag_52\n      swap2\n      swap1\n      tag_31\n      jump\t// in\n    tag_52:\n      mload(0x40)\n      dup1\n      swap2\n      sub\n      swap1\n      return\n        /* \"Blanco/BlancoToken.sol\":204:240  uint256 public _totalSupply = 10**13 */\n    tag_10:\n      tag_53\n      tag_54\n      jump\t// in\n    tag_53:\n      mload(0x40)\n      tag_55\n      swap2\n      swap1\n      tag_35\n      jump\t// in\n    tag_55:\n      mload(0x40)\n      dup1\n      swap2\n      sub\n      swap1\n      return\n        /* \"Blanco/BlancoToken.sol\":813:922  function balanceOf(address owner) public override view returns (uint256) {... */\n    tag_11:\n      tag_56\n      0x04\n      dup1\n      calldatasize\n      sub\n      dup2\n      add\n      swap1\n      tag_57\n      swap2\n      swap1\n      tag_58\n      jump\t// in\n    tag_57:\n      tag_59\n      jump\t// in\n    tag_56:\n      mload(0x40)\n      tag_60\n      swap2\n      swap1\n      tag_35\n      jump\t// in\n    tag_60:\n      mload(0x40)\n      dup1\n      swap2\n      sub\n      swap1\n      return\n        /* \"Blanco/BlancoToken.sol\":325:365  string public constant symbol = 'Blanco' */\n    tag_12:\n      tag_61\n      tag_62\n      jump\t// in\n    tag_61:\n      mload(0x40)\n      tag_63\n      swap2\n      swap1\n      tag_25\n      jump\t// in\n    tag_63:\n      mload(0x40)\n      dup1\n      swap2\n      sub\n      swap1\n      return\n        /* \"Blanco/BlancoToken.sol\":3747:4237  function burn(address to, uint256 value) public returns (bool) {... */\n    tag_13:\n      tag_64\n      0x04\n      dup1\n      calldatasize\n      sub\n      dup2\n      add\n      swap1\n      tag_65\n      swap2\n      swap1\n      tag_28\n      jump\t// in\n    tag_65:\n      tag_66\n      jump\t// in\n    tag_64:\n      mload(0x40)\n      tag_67\n      swap2\n      swap1\n      tag_31\n      jump\t// in\n    tag_67:\n      mload(0x40)\n      dup1\n      swap2\n      sub\n      swap1\n      return\n        /* \"Blanco/BlancoToken.sol\":3388:3741  function mint(uint256 value) public returns (bool) {... */\n    tag_14:\n      tag_68\n      0x04\n      dup1\n      calldatasize\n      sub\n      dup2\n      add\n      swap1\n      tag_69\n      swap2\n      swap1\n      tag_70\n      jump\t// in\n    tag_69:\n      tag_71\n      jump\t// in\n    tag_68:\n      mload(0x40)\n      tag_72\n      swap2\n      swap1\n      tag_31\n      jump\t// in\n    tag_72:\n      mload(0x40)\n      dup1\n      swap2\n      sub\n      swap1\n      return\n        /* \"Blanco/BlancoToken.sol\":3059:3382  function decreaseAllowance(address spender,uint256 subtractedValue) public returns (bool){... */\n    tag_15:\n      tag_73\n      0x04\n      dup1\n      calldatasize\n      sub\n      dup2\n      add\n      swap1\n      tag_74\n      swap2\n      swap1\n      tag_28\n      jump\t// in\n    tag_74:\n      tag_75\n      jump\t// in\n    tag_73:\n      mload(0x40)\n      tag_76\n      swap2\n      swap1\n      tag_31\n      jump\t// in\n    tag_76:\n      mload(0x40)\n      dup1\n      swap2\n      sub\n      swap1\n      return\n        /* \"Blanco/BlancoToken.sol\":1386:1824  function transfer(address to, uint256 value) public override returns (bool) {... */\n    tag_16:\n      tag_77\n      0x04\n      dup1\n      calldatasize\n      sub\n      dup2\n      add\n      swap1\n      tag_78\n      swap2\n      swap1\n      tag_28\n      jump\t// in\n    tag_78:\n      tag_79\n      jump\t// in\n    tag_77:\n      mload(0x40)\n      tag_80\n      swap2\n      swap1\n      tag_31\n      jump\t// in\n    tag_80:\n      mload(0x40)\n      dup1\n      swap2\n      sub\n      swap1\n      return\n        /* \"Blanco/BlancoToken.sol\":928:1148  function changeTokenName(string memory newName) public returns (bool) {... */\n    tag_17:\n      tag_81\n      0x04\n      dup1\n      calldatasize\n      sub\n      dup2\n      add\n      swap1\n      tag_82\n      swap2\n      swap1\n      tag_83\n      jump\t// in\n    tag_82:\n      tag_84\n      jump\t// in\n    tag_81:\n      mload(0x40)\n      tag_85\n      swap2\n      swap1\n      tag_31\n      jump\t// in\n    tag_85:\n      mload(0x40)\n      dup1\n      swap2\n      sub\n      swap1\n      return\n        /* \"Blanco/BlancoToken.sol\":1247:1380  function allowance(address owner, address spender) public override view returns (uint256){... */\n    tag_18:\n      tag_86\n      0x04\n      dup1\n      calldatasize\n      sub\n      dup2\n      add\n      swap1\n      tag_87\n      swap2\n      swap1\n      tag_88\n      jump\t// in\n    tag_87:\n      tag_89\n      jump\t// in\n    tag_86:\n      mload(0x40)\n      tag_90\n      swap2\n      swap1\n      tag_35\n      jump\t// in\n    tag_90:\n      mload(0x40)\n      dup1\n      swap2\n      sub\n      swap1\n      return\n        /* \"Blanco/BlancoToken.sol\":245:280  string public name = 'Blanco Token' */\n    tag_23:\n      0x01\n      dup1\n      sload\n      tag_91\n      swap1\n      tag_92\n      jump\t// in\n    tag_91:\n      dup1\n      0x1f\n      add\n      0x20\n      dup1\n      swap2\n      div\n      mul\n      0x20\n      add\n      mload(0x40)\n      swap1\n      dup2\n      add\n      0x40\n      mstore\n      dup1\n      swap3\n      swap2\n      swap1\n      dup2\n      dup2\n      mstore\n      0x20\n      add\n      dup3\n      dup1\n      sload\n      tag_93\n      swap1\n      tag_92\n      jump\t// in\n    tag_93:\n      dup1\n      iszero\n      tag_94\n      jumpi\n      dup1\n      0x1f\n      lt\n      tag_95\n      jumpi\n      0x0100\n      dup1\n      dup4\n      sload\n      div\n      mul\n      dup4\n      mstore\n      swap2\n      0x20\n      add\n      swap2\n      jump(tag_94)\n    tag_95:\n      dup3\n      add\n      swap2\n      swap1\n      0x00\n      mstore\n      keccak256(0x00, 0x20)\n      swap1\n    tag_96:\n      dup2\n      sload\n      dup2\n      mstore\n      swap1\n      0x01\n      add\n      swap1\n      0x20\n      add\n      dup1\n      dup4\n      gt\n      tag_96\n      jumpi\n      dup3\n      swap1\n      sub\n      0x1f\n      and\n      dup3\n      add\n      swap2\n    tag_94:\n      pop\n      pop\n      pop\n      pop\n      pop\n      dup2\n      jump\t// out\n        /* \"Blanco/BlancoToken.sol\":1830:2063  function approve(address spender, uint256 value) public override returns (bool) {... */\n    tag_29:\n        /* \"Blanco/BlancoToken.sol\":1904:1908  bool */\n      0x00\n        /* \"Blanco/BlancoToken.sol\":1944:1945  0 */\n      dup1\n        /* \"Blanco/BlancoToken.sol\":1925:1946  spender != address(0) */\n      0xffffffffffffffffffffffffffffffffffffffff\n      and\n        /* \"Blanco/BlancoToken.sol\":1925:1932  spender */\n      dup4\n        /* \"Blanco/BlancoToken.sol\":1925:1946  spender != address(0) */\n      0xffffffffffffffffffffffffffffffffffffffff\n      and\n      sub\n        /* \"Blanco/BlancoToken.sol\":1917:1947  require(spender != address(0)) */\n      tag_98\n      jumpi\n      0x00\n      dup1\n      revert\n    tag_98:\n        /* \"Blanco/BlancoToken.sol\":1986:1991  value */\n      dup2\n        /* \"Blanco/BlancoToken.sol\":1954:1962  _allowed */\n      0x04\n        /* \"Blanco/BlancoToken.sol\":1954:1974  _allowed[msg.sender] */\n      0x00\n        /* \"Blanco/BlancoToken.sol\":1963:1973  msg.sender */\n      caller\n        /* \"Blanco/BlancoToken.sol\":1954:1974  _allowed[msg.sender] */\n      0xffffffffffffffffffffffffffffffffffffffff\n      and\n      0xffffffffffffffffffffffffffffffffffffffff\n      and\n      dup2\n      mstore\n      0x20\n      add\n      swap1\n      dup2\n      mstore\n      0x20\n      add\n      0x00\n      keccak256\n        /* \"Blanco/BlancoToken.sol\":1954:1983  _allowed[msg.sender][spender] */\n      0x00\n        /* \"Blanco/BlancoToken.sol\":1975:1982  spender */\n      dup6\n        /* \"Blanco/BlancoToken.sol\":1954:1983  _allowed[msg.sender][spender] */\n      0xffffffffffffffffffffffffffffffffffffffff\n      and\n      0xffffffffffffffffffffffffffffffffffffffff\n      and\n      dup2\n      mstore\n      0x20\n      add\n      swap1\n      dup2\n      mstore\n      0x20\n      add\n      0x00\n      keccak256\n        /* \"Blanco/BlancoToken.sol\":1954:1991  _allowed[msg.sender][spender] = value */\n      dup2\n      swap1\n      sstore\n      pop\n        /* \"Blanco/BlancoToken.sol\":2024:2031  spender */\n      dup3\n        /* \"Blanco/BlancoToken.sol\":2003:2039  Approval(msg.sender, spender, value) */\n      0xffffffffffffffffffffffffffffffffffffffff\n      and\n        /* \"Blanco/BlancoToken.sol\":2012:2022  msg.sender */\n      caller\n        /* \"Blanco/BlancoToken.sol\":2003:2039  Approval(msg.sender, spender, value) */\n      0xffffffffffffffffffffffffffffffffffffffff\n      and\n      0x8c5be1e5ebec7d5bd14f71427d1e84f3dd0314c0f7b2291e5b200ac8c7c3b925\n        /* \"Blanco/BlancoToken.sol\":2033:2038  value */\n      dup5\n        /* \"Blanco/BlancoToken.sol\":2003:2039  Approval(msg.sender, spender, value) */\n      mload(0x40)\n      tag_99\n      swap2\n      swap1\n      tag_35\n      jump\t// in\n    tag_99:\n      mload(0x40)\n      dup1\n      swap2\n      sub\n      swap1\n      log3\n        /* \"Blanco/BlancoToken.sol\":2053:2057  true */\n      0x01\n        /* \"Blanco/BlancoToken.sol\":2046:2057  return true */\n      swap1\n      pop\n        /* \"Blanco/BlancoToken.sol\":1830:2063  function approve(address spender, uint256 value) public override returns (bool) {... */\n      swap3\n      swap2\n      pop\n      pop\n      jump\t// out\n        /* \"Blanco/BlancoToken.sol\":713:807  function totalSupply() public override view returns (uint256) {... */\n    tag_33:\n        /* \"Blanco/BlancoToken.sol\":766:773  uint256 */\n      0x00\n        /* \"Blanco/BlancoToken.sol\":789:801  _totalSupply */\n      dup1\n      sload\n        /* \"Blanco/BlancoToken.sol\":782:801  return _totalSupply */\n      swap1\n      pop\n        /* \"Blanco/BlancoToken.sol\":713:807  function totalSupply() public override view returns (uint256) {... */\n      swap1\n      jump\t// out\n        /* \"Blanco/BlancoToken.sol\":370:406  address public highestBalanceAddress */\n    tag_37:\n      0x02\n      0x00\n      swap1\n      sload\n      swap1\n      0x0100\n      exp\n      swap1\n      div\n      0xffffffffffffffffffffffffffffffffffffffff\n      and\n      dup2\n      jump\t// out\n        /* \"Blanco/BlancoToken.sol\":2384:2731  function transferFrom( address from, address to, uint256 value) public override returns (bool){... */\n    tag_43:\n        /* \"Blanco/BlancoToken.sol\":2473:2477  bool */\n      0x00\n        /* \"Blanco/BlancoToken.sol\":2502:2511  _balances */\n      0x03\n        /* \"Blanco/BlancoToken.sol\":2502:2517  _balances[from] */\n      0x00\n        /* \"Blanco/BlancoToken.sol\":2512:2516  from */\n      dup6\n        /* \"Blanco/BlancoToken.sol\":2502:2517  _balances[from] */\n      0xffffffffffffffffffffffffffffffffffffffff\n      and\n      0xffffffffffffffffffffffffffffffffffffffff\n      and\n      dup2\n      mstore\n      0x20\n      add\n      swap1\n      dup2\n      mstore\n      0x20\n      add\n      0x00\n      keccak256\n      sload\n        /* \"Blanco/BlancoToken.sol\":2493:2498  value */\n      dup3\n        /* \"Blanco/BlancoToken.sol\":2493:2517  value <= _balances[from] */\n      gt\n      iszero\n        /* \"Blanco/BlancoToken.sol\":2485:2518  require(value <= _balances[from]) */\n      tag_102\n      jumpi\n      0x00\n      dup1\n      revert\n    tag_102:\n        /* \"Blanco/BlancoToken.sol\":2542:2550  _allowed */\n      0x04\n        /* \"Blanco/BlancoToken.sol\":2542:2556  _allowed[from] */\n      0x00\n        /* \"Blanco/BlancoToken.sol\":2551:2555  from */\n      dup6\n        /* \"Blanco/BlancoToken.sol\":2542:2556  _allowed[from] */\n      0xffffffffffffffffffffffffffffffffffffffff\n      and\n      0xffffffffffffffffffffffffffffffffffffffff\n      and\n      dup2\n      mstore\n      0x20\n      add\n      swap1\n      dup2\n      mstore\n      0x20\n      add\n      0x00\n      keccak256\n        /* \"Blanco/BlancoToken.sol\":2542:2568  _allowed[from][msg.sender] */\n      0x00\n        /* \"Blanco/BlancoToken.sol\":2557:2567  msg.sender */\n      caller\n        /* \"Blanco/BlancoToken.sol\":2542:2568  _allowed[from][msg.sender] */\n      0xffffffffffffffffffffffffffffffffffffffff\n      and\n      0xffffffffffffffffffffffffffffffffffffffff\n      and\n      dup2\n      mstore\n      0x20\n      add\n      swap1\n      dup2\n      mstore\n      0x20\n      add\n      0x00\n      keccak256\n      sload\n        /* \"Blanco/BlancoToken.sol\":2533:2538  value */\n      dup3\n        /* \"Blanco/BlancoToken.sol\":2533:2568  value <= _allowed[from][msg.sender] */\n      gt\n      iszero\n        /* \"Blanco/BlancoToken.sol\":2525:2569  require(value <= _allowed[from][msg.sender]) */\n      tag_103\n      jumpi\n      0x00\n      dup1\n      revert\n    tag_103:\n        /* \"Blanco/BlancoToken.sol\":2598:2599  0 */\n      0x00\n        /* \"Blanco/BlancoToken.sol\":2584:2600  to != address(0) */\n      0xffffffffffffffffffffffffffffffffffffffff\n      and\n        /* \"Blanco/BlancoToken.sol\":2584:2586  to */\n      dup4\n        /* \"Blanco/BlancoToken.sol\":2584:2600  to != address(0) */\n      0xffffffffffffffffffffffffffffffffffffffff\n      and\n      sub\n        /* \"Blanco/BlancoToken.sol\":2576:2601  require(to != address(0)) */\n      tag_104\n      jumpi\n      0x00\n      dup1\n      revert\n    tag_104:\n        /* \"Blanco/BlancoToken.sol\":2637:2674  _allowed[from][msg.sender].sub(value) */\n      tag_105\n        /* \"Blanco/BlancoToken.sol\":2668:2673  value */\n      dup3\n        /* \"Blanco/BlancoToken.sol\":2637:2645  _allowed */\n      0x04\n        /* \"Blanco/BlancoToken.sol\":2637:2651  _allowed[from] */\n      0x00\n        /* \"Blanco/BlancoToken.sol\":2646:2650  from */\n      dup8\n        /* \"Blanco/BlancoToken.sol\":2637:2651  _allowed[from] */\n      0xffffffffffffffffffffffffffffffffffffffff\n      and\n      0xffffffffffffffffffffffffffffffffffffffff\n      and\n      dup2\n      mstore\n      0x20\n      add\n      swap1\n      dup2\n      mstore\n      0x20\n      add\n      0x00\n      keccak256\n        /* \"Blanco/BlancoToken.sol\":2637:2663  _allowed[from][msg.sender] */\n      0x00\n        /* \"Blanco/BlancoToken.sol\":2652:2662  msg.sender */\n      caller\n        /* \"Blanco/BlancoToken.sol\":2637:2663  _allowed[from][msg.sender] */\n      0xffffffffffffffffffffffffffffffffffffffff\n      and\n      0xffffffffffffffffffffffffffffffffffffffff\n      and\n      dup2\n      mstore\n      0x20\n      add\n      swap1\n      dup2\n      mstore\n      0x20\n      add\n      0x00\n      keccak256\n      sload\n        /* \"Blanco/BlancoToken.sol\":2637:2667  _allowed[from][msg.sender].sub */\n      tag_106\n      swap1\n        /* \"Blanco/BlancoToken.sol\":2637:2674  _allowed[from][msg.sender].sub(value) */\n      swap2\n      swap1\n      0xffffffff\n      and\n      jump\t// in\n    tag_105:\n        /* \"Blanco/BlancoToken.sol\":2608:2616  _allowed */\n      0x04\n        /* \"Blanco/BlancoToken.sol\":2608:2622  _allowed[from] */\n      0x00\n        /* \"Blanco/BlancoToken.sol\":2617:2621  from */\n      dup7\n        /* \"Blanco/BlancoToken.sol\":2608:2622  _allowed[from] */\n      0xffffffffffffffffffffffffffffffffffffffff\n      and\n      0xffffffffffffffffffffffffffffffffffffffff\n      and\n      dup2\n      mstore\n      0x20\n      add\n      swap1\n      dup2\n      mstore\n      0x20\n      add\n      0x00\n      keccak256\n        /* \"Blanco/BlancoToken.sol\":2608:2634  _allowed[from][msg.sender] */\n      0x00\n        /* \"Blanco/BlancoToken.sol\":2623:2633  msg.sender */\n      caller\n        /* \"Blanco/BlancoToken.sol\":2608:2634  _allowed[from][msg.sender] */\n      0xffffffffffffffffffffffffffffffffffffffff\n      and\n      0xffffffffffffffffffffffffffffffffffffffff\n      and\n      dup2\n      mstore\n      0x20\n      add\n      swap1\n      dup2\n      mstore\n      0x20\n      add\n      0x00\n      keccak256\n        /* \"Blanco/BlancoToken.sol\":2608:2674  _allowed[from][msg.sender] = _allowed[from][msg.sender].sub(value) */\n      dup2\n      swap1\n      sstore\n      pop\n        /* \"Blanco/BlancoToken.sol\":2681:2707  _transfer(from, to, value) */\n      tag_107\n        /* \"Blanco/BlancoToken.sol\":2691:2695  from */\n      dup5\n        /* \"Blanco/BlancoToken.sol\":2697:2699  to */\n      dup5\n        /* \"Blanco/BlancoToken.sol\":2701:2706  value */\n      dup5\n        /* \"Blanco/BlancoToken.sol\":2681:2690  _transfer */\n      tag_108\n        /* \"Blanco/BlancoToken.sol\":2681:2707  _transfer(from, to, value) */\n      jump\t// in\n    tag_107:\n        /* \"Blanco/BlancoToken.sol\":2721:2725  true */\n      0x01\n        /* \"Blanco/BlancoToken.sol\":2714:2725  return true */\n      swap1\n      pop\n        /* \"Blanco/BlancoToken.sol\":2384:2731  function transferFrom( address from, address to, uint256 value) public override returns (bool){... */\n      swap4\n      swap3\n      pop\n      pop\n      pop\n      jump\t// out\n        /* \"Blanco/BlancoToken.sol\":285:320  uint8 public constant decimals = 10 */\n    tag_46:\n        /* \"Blanco/BlancoToken.sol\":318:320  10 */\n      0x0a\n        /* \"Blanco/BlancoToken.sol\":285:320  uint8 public constant decimals = 10 */\n      dup2\n      jump\t// out\n        /* \"Blanco/BlancoToken.sol\":2737:3053  function increaseAllowance( address spender, uint256 addedValue ) public returns (bool){... */\n    tag_51:\n        /* \"Blanco/BlancoToken.sol\":2819:2823  bool */\n      0x00\n        /* \"Blanco/BlancoToken.sol\":2858:2859  0 */\n      dup1\n        /* \"Blanco/BlancoToken.sol\":2839:2860  spender != address(0) */\n      0xffffffffffffffffffffffffffffffffffffffff\n      and\n        /* \"Blanco/BlancoToken.sol\":2839:2846  spender */\n      dup4\n        /* \"Blanco/BlancoToken.sol\":2839:2860  spender != address(0) */\n      0xffffffffffffffffffffffffffffffffffffffff\n      and\n      sub\n        /* \"Blanco/BlancoToken.sol\":2831:2861  require(spender != address(0)) */\n      tag_110\n      jumpi\n      0x00\n      dup1\n      revert\n    tag_110:\n        /* \"Blanco/BlancoToken.sol\":2911:2956  _allowed[msg.sender][spender].add(addedValue) */\n      tag_111\n        /* \"Blanco/BlancoToken.sol\":2945:2955  addedValue */\n      dup3\n        /* \"Blanco/BlancoToken.sol\":2911:2919  _allowed */\n      0x04\n        /* \"Blanco/BlancoToken.sol\":2911:2931  _allowed[msg.sender] */\n      0x00\n        /* \"Blanco/BlancoToken.sol\":2920:2930  msg.sender */\n      caller\n        /* \"Blanco/BlancoToken.sol\":2911:2931  _allowed[msg.sender] */\n      0xffffffffffffffffffffffffffffffffffffffff\n      and\n      0xffffffffffffffffffffffffffffffffffffffff\n      and\n      dup2\n      mstore\n      0x20\n      add\n      swap1\n      dup2\n      mstore\n      0x20\n      add\n      0x00\n      keccak256\n        /* \"Blanco/BlancoToken.sol\":2911:2940  _allowed[msg.sender][spender] */\n      0x00\n        /* \"Blanco/BlancoToken.sol\":2932:2939  spender */\n      dup7\n        /* \"Blanco/BlancoToken.sol\":2911:2940  _allowed[msg.sender][spender] */\n      0xffffffffffffffffffffffffffffffffffffffff\n      and\n      0xffffffffffffffffffffffffffffffffffffffff\n      and\n      dup2\n      mstore\n      0x20\n      add\n      swap1\n      dup2\n      mstore\n      0x20\n      add\n      0x00\n      keccak256\n      sload\n        /* \"Blanco/BlancoToken.sol\":2911:2944  _allowed[msg.sender][spender].add */\n      tag_112\n      swap1\n        /* \"Blanco/BlancoToken.sol\":2911:2956  _allowed[msg.sender][spender].add(addedValue) */\n      swap2\n      swap1\n      0xffffffff\n      and\n      jump\t// in\n    tag_111:\n        /* \"Blanco/BlancoToken.sol\":2870:2878  _allowed */\n      0x04\n        /* \"Blanco/BlancoToken.sol\":2870:2890  _allowed[msg.sender] */\n      0x00\n        /* \"Blanco/BlancoToken.sol\":2879:2889  msg.sender */\n      caller\n        /* \"Blanco/BlancoToken.sol\":2870:2890  _allowed[msg.sender] */\n      0xffffffffffffffffffffffffffffffffffffffff\n      and\n      0xffffffffffffffffffffffffffffffffffffffff\n      and\n      dup2\n      mstore\n      0x20\n      add\n      swap1\n      dup2\n      mstore\n      0x20\n      add\n      0x00\n      keccak256\n        /* \"Blanco/BlancoToken.sol\":2870:2899  _allowed[msg.sender][spender] */\n      0x00\n        /* \"Blanco/BlancoToken.sol\":2891:2898  spender */\n      dup6\n        /* \"Blanco/BlancoToken.sol\":2870:2899  _allowed[msg.sender][spender] */\n      0xffffffffffffffffffffffffffffffffffffffff\n      and\n      0xffffffffffffffffffffffffffffffffffffffff\n      and\n      dup2\n      mstore\n      0x20\n      add\n      swap1\n      dup2\n      mstore\n      0x20\n      add\n      0x00\n      keccak256\n        /* \"Blanco/BlancoToken.sol\":2870:2957  _allowed[msg.sender][spender] = (... */\n      dup2\n      swap1\n      sstore\n      pop\n        /* \"Blanco/BlancoToken.sol\":2990:2997  spender */\n      dup3\n        /* \"Blanco/BlancoToken.sol\":2969:3029  Approval(msg.sender, spender, _allowed[msg.sender][spender]) */\n      0xffffffffffffffffffffffffffffffffffffffff\n      and\n        /* \"Blanco/BlancoToken.sol\":2978:2988  msg.sender */\n      caller\n        /* \"Blanco/BlancoToken.sol\":2969:3029  Approval(msg.sender, spender, _allowed[msg.sender][spender]) */\n      0xffffffffffffffffffffffffffffffffffffffff\n      and\n      0x8c5be1e5ebec7d5bd14f71427d1e84f3dd0314c0f7b2291e5b200ac8c7c3b925\n        /* \"Blanco/BlancoToken.sol\":2999:3007  _allowed */\n      0x04\n        /* \"Blanco/BlancoToken.sol\":2999:3019  _allowed[msg.sender] */\n      0x00\n        /* \"Blanco/BlancoToken.sol\":3008:3018  msg.sender */\n      caller\n        /* \"Blanco/BlancoToken.sol\":2999:3019  _allowed[msg.sender] */\n      0xffffffffffffffffffffffffffffffffffffffff\n      and\n      0xffffffffffffffffffffffffffffffffffffffff\n      and\n      dup2\n      mstore\n      0x20\n      add\n      swap1\n      dup2\n      mstore\n      0x20\n      add\n      0x00\n      keccak256\n        /* \"Blanco/BlancoToken.sol\":2999:3028  _allowed[msg.sender][spender] */\n      0x00\n        /* \"Blanco/BlancoToken.sol\":3020:3027  spender */\n      dup8\n        /* \"Blanco/BlancoToken.sol\":2999:3028  _allowed[msg.sender][spender] */\n      0xffffffffffffffffffffffffffffffffffffffff\n      and\n      0xffffffffffffffffffffffffffffffffffffffff\n      and\n      dup2\n      mstore\n      0x20\n      add\n      swap1\n      dup2\n      mstore\n      0x20\n      add\n      0x00\n      keccak256\n      sload\n        /* \"Blanco/BlancoToken.sol\":2969:3029  Approval(msg.sender, spender, _allowed[msg.sender][spender]) */\n      mload(0x40)\n      tag_113\n      swap2\n      swap1\n      tag_35\n      jump\t// in\n    tag_113:\n      mload(0x40)\n      dup1\n      swap2\n      sub\n      swap1\n      log3\n        /* \"Blanco/BlancoToken.sol\":3043:3047  true */\n      0x01\n        /* \"Blanco/BlancoToken.sol\":3036:3047  return true */\n      swap1\n      pop\n        /* \"Blanco/BlancoToken.sol\":2737:3053  function increaseAllowance( address spender, uint256 addedValue ) public returns (bool){... */\n      swap3\n      swap2\n      pop\n      pop\n      jump\t// out\n        /* \"Blanco/BlancoToken.sol\":204:240  uint256 public _totalSupply = 10**13 */\n    tag_54:\n      sload(0x00)\n      dup2\n      jump\t// out\n        /* \"Blanco/BlancoToken.sol\":813:922  function balanceOf(address owner) public override view returns (uint256) {... */\n    tag_59:\n        /* \"Blanco/BlancoToken.sol\":877:884  uint256 */\n      0x00\n        /* \"Blanco/BlancoToken.sol\":900:909  _balances */\n      0x03\n        /* \"Blanco/BlancoToken.sol\":900:916  _balances[owner] */\n      0x00\n        /* \"Blanco/BlancoToken.sol\":910:915  owner */\n      dup4\n        /* \"Blanco/BlancoToken.sol\":900:916  _balances[owner] */\n      0xffffffffffffffffffffffffffffffffffffffff\n      and\n      0xffffffffffffffffffffffffffffffffffffffff\n      and\n      dup2\n      mstore\n      0x20\n      add\n      swap1\n      dup2\n      mstore\n      0x20\n      add\n      0x00\n      keccak256\n      sload\n        /* \"Blanco/BlancoToken.sol\":893:916  return _balances[owner] */\n      swap1\n      pop\n        /* \"Blanco/BlancoToken.sol\":813:922  function balanceOf(address owner) public override view returns (uint256) {... */\n      swap2\n      swap1\n      pop\n      jump\t// out\n        /* \"Blanco/BlancoToken.sol\":325:365  string public constant symbol = 'Blanco' */\n    tag_62:\n      mload(0x40)\n      dup1\n      0x40\n      add\n      0x40\n      mstore\n      dup1\n      0x06\n      dup2\n      mstore\n      0x20\n      add\n      0x426c616e636f0000000000000000000000000000000000000000000000000000\n      dup2\n      mstore\n      pop\n      dup2\n      jump\t// out\n        /* \"Blanco/BlancoToken.sol\":3747:4237  function burn(address to, uint256 value) public returns (bool) {... */\n    tag_66:\n        /* \"Blanco/BlancoToken.sol\":3804:3808  bool */\n      0x00\n        /* \"Blanco/BlancoToken.sol\":3841:3842  0 */\n      dup1\n        /* \"Blanco/BlancoToken.sol\":3827:3843  to != address(0) */\n      0xffffffffffffffffffffffffffffffffffffffff\n      and\n        /* \"Blanco/BlancoToken.sol\":3827:3829  to */\n      dup4\n        /* \"Blanco/BlancoToken.sol\":3827:3843  to != address(0) */\n      0xffffffffffffffffffffffffffffffffffffffff\n      and\n      sub\n        /* \"Blanco/BlancoToken.sol\":3819:3881  require(to != address(0), \"ERC20: burn from the zero address\") */\n      tag_116\n      jumpi\n      mload(0x40)\n      0x08c379a000000000000000000000000000000000000000000000000000000000\n      dup2\n      mstore\n      0x04\n      add\n      tag_117\n      swap1\n      tag_118\n      jump\t// in\n    tag_117:\n      mload(0x40)\n      dup1\n      swap2\n      sub\n      swap1\n      revert\n    tag_116:\n        /* \"Blanco/BlancoToken.sol\":3912:3933  highestBalanceAddress */\n      0x02\n      0x00\n      swap1\n      sload\n      swap1\n      0x0100\n      exp\n      swap1\n      div\n      0xffffffffffffffffffffffffffffffffffffffff\n      and\n        /* \"Blanco/BlancoToken.sol\":3898:3933  msg.sender == highestBalanceAddress */\n      0xffffffffffffffffffffffffffffffffffffffff\n      and\n        /* \"Blanco/BlancoToken.sol\":3898:3908  msg.sender */\n      caller\n        /* \"Blanco/BlancoToken.sol\":3898:3933  msg.sender == highestBalanceAddress */\n      0xffffffffffffffffffffffffffffffffffffffff\n      and\n      eq\n        /* \"Blanco/BlancoToken.sol\":3890:3995  require(msg.sender == highestBalanceAddress, \"Only the highest token holder can punish and burn tokens.\") */\n      tag_119\n      jumpi\n      mload(0x40)\n      0x08c379a000000000000000000000000000000000000000000000000000000000\n      dup2\n      mstore\n      0x04\n      add\n      tag_120\n      swap1\n      tag_121\n      jump\t// in\n    tag_120:\n      mload(0x40)\n      dup1\n      swap2\n      sub\n      swap1\n      revert\n    tag_119:\n        /* \"Blanco/BlancoToken.sol\":4021:4030  _balances */\n      0x03\n        /* \"Blanco/BlancoToken.sol\":4021:4034  _balances[to] */\n      0x00\n        /* \"Blanco/BlancoToken.sol\":4031:4033  to */\n      dup5\n        /* \"Blanco/BlancoToken.sol\":4021:4034  _balances[to] */\n      0xffffffffffffffffffffffffffffffffffffffff\n      and\n      0xffffffffffffffffffffffffffffffffffffffff\n      and\n      dup2\n      mstore\n      0x20\n      add\n      swap1\n      dup2\n      mstore\n      0x20\n      add\n      0x00\n      keccak256\n      sload\n        /* \"Blanco/BlancoToken.sol\":4012:4017  value */\n      dup3\n        /* \"Blanco/BlancoToken.sol\":4012:4034  value <= _balances[to] */\n      gt\n      iszero\n        /* \"Blanco/BlancoToken.sol\":4004:4066  require(value <= _balances[to], \"burn amount exceeds balance\") */\n      tag_122\n      jumpi\n      mload(0x40)\n      0x08c379a000000000000000000000000000000000000000000000000000000000\n      dup2\n      mstore\n      0x04\n      add\n      tag_123\n      swap1\n      tag_124\n      jump\t// in\n    tag_123:\n      mload(0x40)\n      dup1\n      swap2\n      sub\n      swap1\n      revert\n    tag_122:\n        /* \"Blanco/BlancoToken.sol\":4092:4115  _totalSupply.sub(value) */\n      tag_125\n        /* \"Blanco/BlancoToken.sol\":4109:4114  value */\n      dup3\n        /* \"Blanco/BlancoToken.sol\":4092:4104  _totalSupply */\n      sload(0x00)\n        /* \"Blanco/BlancoToken.sol\":4092:4108  _totalSupply.sub */\n      tag_106\n      swap1\n        /* \"Blanco/BlancoToken.sol\":4092:4115  _totalSupply.sub(value) */\n      swap2\n      swap1\n      0xffffffff\n      and\n      jump\t// in\n    tag_125:\n        /* \"Blanco/BlancoToken.sol\":4077:4089  _totalSupply */\n      0x00\n        /* \"Blanco/BlancoToken.sol\":4077:4115  _totalSupply = _totalSupply.sub(value) */\n      dup2\n      swap1\n      sstore\n      pop\n        /* \"Blanco/BlancoToken.sol\":4140:4164  _balances[to].sub(value) */\n      tag_126\n        /* \"Blanco/BlancoToken.sol\":4158:4163  value */\n      dup3\n        /* \"Blanco/BlancoToken.sol\":4140:4149  _balances */\n      0x03\n        /* \"Blanco/BlancoToken.sol\":4140:4153  _balances[to] */\n      0x00\n        /* \"Blanco/BlancoToken.sol\":4150:4152  to */\n      dup7\n        /* \"Blanco/BlancoToken.sol\":4140:4153  _balances[to] */\n      0xffffffffffffffffffffffffffffffffffffffff\n      and\n      0xffffffffffffffffffffffffffffffffffffffff\n      and\n      dup2\n      mstore\n      0x20\n      add\n      swap1\n      dup2\n      mstore\n      0x20\n      add\n      0x00\n      keccak256\n      sload\n        /* \"Blanco/BlancoToken.sol\":4140:4157  _balances[to].sub */\n      tag_106\n      swap1\n        /* \"Blanco/BlancoToken.sol\":4140:4164  _balances[to].sub(value) */\n      swap2\n      swap1\n      0xffffffff\n      and\n      jump\t// in\n    tag_126:\n        /* \"Blanco/BlancoToken.sol\":4124:4133  _balances */\n      0x03\n        /* \"Blanco/BlancoToken.sol\":4124:4137  _balances[to] */\n      0x00\n        /* \"Blanco/BlancoToken.sol\":4134:4136  to */\n      dup6\n        /* \"Blanco/BlancoToken.sol\":4124:4137  _balances[to] */\n      0xffffffffffffffffffffffffffffffffffffffff\n      and\n      0xffffffffffffffffffffffffffffffffffffffff\n      and\n      dup2\n      mstore\n      0x20\n      add\n      swap1\n      dup2\n      mstore\n      0x20\n      add\n      0x00\n      keccak256\n        /* \"Blanco/BlancoToken.sol\":4124:4164  _balances[to] = _balances[to].sub(value) */\n      dup2\n      swap1\n      sstore\n      pop\n        /* \"Blanco/BlancoToken.sol\":4201:4202  0 */\n      0x00\n        /* \"Blanco/BlancoToken.sol\":4180:4211  Transfer(to, address(0), value) */\n      0xffffffffffffffffffffffffffffffffffffffff\n      and\n        /* \"Blanco/BlancoToken.sol\":4189:4191  to */\n      dup4\n        /* \"Blanco/BlancoToken.sol\":4180:4211  Transfer(to, address(0), value) */\n      0xffffffffffffffffffffffffffffffffffffffff\n      and\n      0xddf252ad1be2c89b69c2b068fc378daa952ba7f163c4a11628f55a4df523b3ef\n        /* \"Blanco/BlancoToken.sol\":4205:4210  value */\n      dup5\n        /* \"Blanco/BlancoToken.sol\":4180:4211  Transfer(to, address(0), value) */\n      mload(0x40)\n      tag_127\n      swap2\n      swap1\n      tag_35\n      jump\t// in\n    tag_127:\n      mload(0x40)\n      dup1\n      swap2\n      sub\n      swap1\n      log3\n        /* \"Blanco/BlancoToken.sol\":4227:4231  true */\n      0x01\n        /* \"Blanco/BlancoToken.sol\":4220:4231  return true */\n      swap1\n      pop\n        /* \"Blanco/BlancoToken.sol\":3747:4237  function burn(address to, uint256 value) public returns (bool) {... */\n      swap3\n      swap2\n      pop\n      pop\n      jump\t// out\n        /* \"Blanco/BlancoToken.sol\":3388:3741  function mint(uint256 value) public returns (bool) {... */\n    tag_71:\n        /* \"Blanco/BlancoToken.sol\":3433:3437  bool */\n      0x00\n        /* \"Blanco/BlancoToken.sol\":3470:3491  highestBalanceAddress */\n      0x02\n      0x00\n      swap1\n      sload\n      swap1\n      0x0100\n      exp\n      swap1\n      div\n      0xffffffffffffffffffffffffffffffffffffffff\n      and\n        /* \"Blanco/BlancoToken.sol\":3456:3491  msg.sender == highestBalanceAddress */\n      0xffffffffffffffffffffffffffffffffffffffff\n      and\n        /* \"Blanco/BlancoToken.sol\":3456:3466  msg.sender */\n      caller\n        /* \"Blanco/BlancoToken.sol\":3456:3491  msg.sender == highestBalanceAddress */\n      0xffffffffffffffffffffffffffffffffffffffff\n      and\n      eq\n        /* \"Blanco/BlancoToken.sol\":3448:3546  require(msg.sender == highestBalanceAddress, \"Only the highest token holder can mint new tokens.\") */\n      tag_129\n      jumpi\n      mload(0x40)\n      0x08c379a000000000000000000000000000000000000000000000000000000000\n      dup2\n      mstore\n      0x04\n      add\n      tag_130\n      swap1\n      tag_131\n      jump\t// in\n    tag_130:\n      mload(0x40)\n      dup1\n      swap2\n      sub\n      swap1\n      revert\n    tag_129:\n        /* \"Blanco/BlancoToken.sol\":3572:3595  _totalSupply.add(value) */\n      tag_132\n        /* \"Blanco/BlancoToken.sol\":3589:3594  value */\n      dup3\n        /* \"Blanco/BlancoToken.sol\":3572:3584  _totalSupply */\n      sload(0x00)\n        /* \"Blanco/BlancoToken.sol\":3572:3588  _totalSupply.add */\n      tag_112\n      swap1\n        /* \"Blanco/BlancoToken.sol\":3572:3595  _totalSupply.add(value) */\n      swap2\n      swap1\n      0xffffffff\n      and\n      jump\t// in\n    tag_132:\n        /* \"Blanco/BlancoToken.sol\":3557:3569  _totalSupply */\n      0x00\n        /* \"Blanco/BlancoToken.sol\":3557:3595  _totalSupply = _totalSupply.add(value) */\n      dup2\n      swap1\n      sstore\n      pop\n        /* \"Blanco/BlancoToken.sol\":3628:3660  _balances[msg.sender].add(value) */\n      tag_133\n        /* \"Blanco/BlancoToken.sol\":3654:3659  value */\n      dup3\n        /* \"Blanco/BlancoToken.sol\":3628:3637  _balances */\n      0x03\n        /* \"Blanco/BlancoToken.sol\":3628:3649  _balances[msg.sender] */\n      0x00\n        /* \"Blanco/BlancoToken.sol\":3638:3648  msg.sender */\n      caller\n        /* \"Blanco/BlancoToken.sol\":3628:3649  _balances[msg.sender] */\n      0xffffffffffffffffffffffffffffffffffffffff\n      and\n      0xffffffffffffffffffffffffffffffffffffffff\n      and\n      dup2\n      mstore\n      0x20\n      add\n      swap1\n      dup2\n      mstore\n      0x20\n      add\n      0x00\n      keccak256\n      sload\n        /* \"Blanco/BlancoToken.sol\":3628:3653  _balances[msg.sender].add */\n      tag_112\n      swap1\n        /* \"Blanco/BlancoToken.sol\":3628:3660  _balances[msg.sender].add(value) */\n      swap2\n      swap1\n      0xffffffff\n      and\n      jump\t// in\n    tag_133:\n        /* \"Blanco/BlancoToken.sol\":3604:3613  _balances */\n      0x03\n        /* \"Blanco/BlancoToken.sol\":3604:3625  _balances[msg.sender] */\n      0x00\n        /* \"Blanco/BlancoToken.sol\":3614:3624  msg.sender */\n      caller\n        /* \"Blanco/BlancoToken.sol\":3604:3625  _balances[msg.sender] */\n      0xffffffffffffffffffffffffffffffffffffffff\n      and\n      0xffffffffffffffffffffffffffffffffffffffff\n      and\n      dup2\n      mstore\n      0x20\n      add\n      swap1\n      dup2\n      mstore\n      0x20\n      add\n      0x00\n      keccak256\n        /* \"Blanco/BlancoToken.sol\":3604:3660  _balances[msg.sender] = _balances[msg.sender].add(value) */\n      dup2\n      swap1\n      sstore\n      pop\n        /* \"Blanco/BlancoToken.sol\":3697:3707  msg.sender */\n      caller\n        /* \"Blanco/BlancoToken.sol\":3676:3715  Transfer(address(0), msg.sender, value) */\n      0xffffffffffffffffffffffffffffffffffffffff\n      and\n        /* \"Blanco/BlancoToken.sol\":3693:3694  0 */\n      0x00\n        /* \"Blanco/BlancoToken.sol\":3676:3715  Transfer(address(0), msg.sender, value) */\n      0xffffffffffffffffffffffffffffffffffffffff\n      and\n      0xddf252ad1be2c89b69c2b068fc378daa952ba7f163c4a11628f55a4df523b3ef\n        /* \"Blanco/BlancoToken.sol\":3709:3714  value */\n      dup5\n        /* \"Blanco/BlancoToken.sol\":3676:3715  Transfer(address(0), msg.sender, value) */\n      mload(0x40)\n      tag_134\n      swap2\n      swap1\n      tag_35\n      jump\t// in\n    tag_134:\n      mload(0x40)\n      dup1\n      swap2\n      sub\n      swap1\n      log3\n        /* \"Blanco/BlancoToken.sol\":3731:3735  true */\n      0x01\n        /* \"Blanco/BlancoToken.sol\":3724:3735  return true */\n      swap1\n      pop\n        /* \"Blanco/BlancoToken.sol\":3388:3741  function mint(uint256 value) public returns (bool) {... */\n      swap2\n      swap1\n      pop\n      jump\t// out\n        /* \"Blanco/BlancoToken.sol\":3059:3382  function decreaseAllowance(address spender,uint256 subtractedValue) public returns (bool){... */\n    tag_75:\n        /* \"Blanco/BlancoToken.sol\":3143:3147  bool */\n      0x00\n        /* \"Blanco/BlancoToken.sol\":3182:3183  0 */\n      dup1\n        /* \"Blanco/BlancoToken.sol\":3163:3184  spender != address(0) */\n      0xffffffffffffffffffffffffffffffffffffffff\n      and\n        /* \"Blanco/BlancoToken.sol\":3163:3170  spender */\n      dup4\n        /* \"Blanco/BlancoToken.sol\":3163:3184  spender != address(0) */\n      0xffffffffffffffffffffffffffffffffffffffff\n      and\n      sub\n        /* \"Blanco/BlancoToken.sol\":3155:3185  require(spender != address(0)) */\n      tag_136\n      jumpi\n      0x00\n      dup1\n      revert\n    tag_136:\n        /* \"Blanco/BlancoToken.sol\":3235:3285  _allowed[msg.sender][spender].sub(subtractedValue) */\n      tag_137\n        /* \"Blanco/BlancoToken.sol\":3269:3284  subtractedValue */\n      dup3\n        /* \"Blanco/BlancoToken.sol\":3235:3243  _allowed */\n      0x04\n        /* \"Blanco/BlancoToken.sol\":3235:3255  _allowed[msg.sender] */\n      0x00\n        /* \"Blanco/BlancoToken.sol\":3244:3254  msg.sender */\n      caller\n        /* \"Blanco/BlancoToken.sol\":3235:3255  _allowed[msg.sender] */\n      0xffffffffffffffffffffffffffffffffffffffff\n      and\n      0xffffffffffffffffffffffffffffffffffffffff\n      and\n      dup2\n      mstore\n      0x20\n      add\n      swap1\n      dup2\n      mstore\n      0x20\n      add\n      0x00\n      keccak256\n        /* \"Blanco/BlancoToken.sol\":3235:3264  _allowed[msg.sender][spender] */\n      0x00\n        /* \"Blanco/BlancoToken.sol\":3256:3263  spender */\n      dup7\n        /* \"Blanco/BlancoToken.sol\":3235:3264  _allowed[msg.sender][spender] */\n      0xffffffffffffffffffffffffffffffffffffffff\n      and\n      0xffffffffffffffffffffffffffffffffffffffff\n      and\n      dup2\n      mstore\n      0x20\n      add\n      swap1\n      dup2\n      mstore\n      0x20\n      add\n      0x00\n      keccak256\n      sload\n        /* \"Blanco/BlancoToken.sol\":3235:3268  _allowed[msg.sender][spender].sub */\n      tag_106\n      swap1\n        /* \"Blanco/BlancoToken.sol\":3235:3285  _allowed[msg.sender][spender].sub(subtractedValue) */\n      swap2\n      swap1\n      0xffffffff\n      and\n      jump\t// in\n    tag_137:\n        /* \"Blanco/BlancoToken.sol\":3194:3202  _allowed */\n      0x04\n        /* \"Blanco/BlancoToken.sol\":3194:3214  _allowed[msg.sender] */\n      0x00\n        /* \"Blanco/BlancoToken.sol\":3203:3213  msg.sender */\n      caller\n        /* \"Blanco/BlancoToken.sol\":3194:3214  _allowed[msg.sender] */\n      0xffffffffffffffffffffffffffffffffffffffff\n      and\n      0xffffffffffffffffffffffffffffffffffffffff\n      and\n      dup2\n      mstore\n      0x20\n      add\n      swap1\n      dup2\n      mstore\n      0x20\n      add\n      0x00\n      keccak256\n        /* \"Blanco/BlancoToken.sol\":3194:3223  _allowed[msg.sender][spender] */\n      0x00\n        /* \"Blanco/BlancoToken.sol\":3215:3222  spender */\n      dup6\n        /* \"Blanco/BlancoToken.sol\":3194:3223  _allowed[msg.sender][spender] */\n      0xffffffffffffffffffffffffffffffffffffffff\n      and\n      0xffffffffffffffffffffffffffffffffffffffff\n      and\n      dup2\n      mstore\n      0x20\n      add\n      swap1\n      dup2\n      mstore\n      0x20\n      add\n      0x00\n      keccak256\n        /* \"Blanco/BlancoToken.sol\":3194:3286  _allowed[msg.sender][spender] = (... */\n      dup2\n      swap1\n      sstore\n      pop\n        /* \"Blanco/BlancoToken.sol\":3319:3326  spender */\n      dup3\n        /* \"Blanco/BlancoToken.sol\":3298:3358  Approval(msg.sender, spender, _allowed[msg.sender][spender]) */\n      0xffffffffffffffffffffffffffffffffffffffff\n      and\n        /* \"Blanco/BlancoToken.sol\":3307:3317  msg.sender */\n      caller\n        /* \"Blanco/BlancoToken.sol\":3298:3358  Approval(msg.sender, spender, _allowed[msg.sender][spender]) */\n      0xffffffffffffffffffffffffffffffffffffffff\n      and\n      0x8c5be1e5ebec7d5bd14f71427d1e84f3dd0314c0f7b2291e5b200ac8c7c3b925\n        /* \"Blanco/BlancoToken.sol\":3328:3336  _allowed */\n      0x04\n        /* \"Blanco/BlancoToken.sol\":3328:3348  _allowed[msg.sender] */\n      0x00\n        /* \"Blanco/BlancoToken.sol\":3337:3347  msg.sender */\n      caller\n        /* \"Blanco/BlancoToken.sol\":3328:3348  _allowed[msg.sender] */\n      0xffffffffffffffffffffffffffffffffffffffff\n      and\n      0xffffffffffffffffffffffffffffffffffffffff\n      and\n      dup2\n      mstore\n      0x20\n      add\n      swap1\n      dup2\n      mstore\n      0x20\n      add\n      0x00\n      keccak256\n        /* \"Blanco/BlancoToken.sol\":3328:3357  _allowed[msg.sender][spender] */\n      0x00\n        /* \"Blanco/BlancoToken.sol\":3349:3356  spender */\n      dup8\n        /* \"Blanco/BlancoToken.sol\":3328:3357  _allowed[msg.sender][spender] */\n      0xffffffffffffffffffffffffffffffffffffffff\n      and\n      0xffffffffffffffffffffffffffffffffffffffff\n      and\n      dup2\n      mstore\n      0x20\n      add\n      swap1\n      dup2\n      mstore\n      0x20\n      add\n      0x00\n      keccak256\n      sload\n        /* \"Blanco/BlancoToken.sol\":3298:3358  Approval(msg.sender, spender, _allowed[msg.sender][spender]) */\n      mload(0x40)\n      tag_138\n      swap2\n      swap1\n      tag_35\n      jump\t// in\n    tag_138:\n      mload(0x40)\n      dup1\n      swap2\n      sub\n      swap1\n      log3\n        /* \"Blanco/BlancoToken.sol\":3372:3376  true */\n      0x01\n        /* \"Blanco/BlancoToken.sol\":3365:3376  return true */\n      swap1\n      pop\n        /* \"Blanco/BlancoToken.sol\":3059:3382  function decreaseAllowance(address spender,uint256 subtractedValue) public returns (bool){... */\n      swap3\n      swap2\n      pop\n      pop\n      jump\t// out\n        /* \"Blanco/BlancoToken.sol\":1386:1824  function transfer(address to, uint256 value) public override returns (bool) {... */\n    tag_79:\n        /* \"Blanco/BlancoToken.sol\":1456:1460  bool */\n      0x00\n        /* \"Blanco/BlancoToken.sol\":1486:1495  _balances */\n      0x03\n        /* \"Blanco/BlancoToken.sol\":1486:1507  _balances[msg.sender] */\n      0x00\n        /* \"Blanco/BlancoToken.sol\":1496:1506  msg.sender */\n      caller\n        /* \"Blanco/BlancoToken.sol\":1486:1507  _balances[msg.sender] */\n      0xffffffffffffffffffffffffffffffffffffffff\n      and\n      0xffffffffffffffffffffffffffffffffffffffff\n      and\n      dup2\n      mstore\n      0x20\n      add\n      swap1\n      dup2\n      mstore\n      0x20\n      add\n      0x00\n      keccak256\n      sload\n        /* \"Blanco/BlancoToken.sol\":1477:1482  value */\n      dup3\n        /* \"Blanco/BlancoToken.sol\":1477:1507  value <= _balances[msg.sender] */\n      gt\n      iszero\n        /* \"Blanco/BlancoToken.sol\":1469:1508  require(value <= _balances[msg.sender]) */\n      tag_140\n      jumpi\n      0x00\n      dup1\n      revert\n    tag_140:\n        /* \"Blanco/BlancoToken.sol\":1537:1538  0 */\n      0x00\n        /* \"Blanco/BlancoToken.sol\":1523:1539  to != address(0) */\n      0xffffffffffffffffffffffffffffffffffffffff\n      and\n        /* \"Blanco/BlancoToken.sol\":1523:1525  to */\n      dup4\n        /* \"Blanco/BlancoToken.sol\":1523:1539  to != address(0) */\n      0xffffffffffffffffffffffffffffffffffffffff\n      and\n      sub\n        /* \"Blanco/BlancoToken.sol\":1515:1540  require(to != address(0)) */\n      tag_141\n      jumpi\n      0x00\n      dup1\n      revert\n    tag_141:\n        /* \"Blanco/BlancoToken.sol\":1573:1605  _balances[msg.sender].sub(value) */\n      tag_142\n        /* \"Blanco/BlancoToken.sol\":1599:1604  value */\n      dup3\n        /* \"Blanco/BlancoToken.sol\":1573:1582  _balances */\n      0x03\n        /* \"Blanco/BlancoToken.sol\":1573:1594  _balances[msg.sender] */\n      0x00\n        /* \"Blanco/BlancoToken.sol\":1583:1593  msg.sender */\n      caller\n        /* \"Blanco/BlancoToken.sol\":1573:1594  _balances[msg.sender] */\n      0xffffffffffffffffffffffffffffffffffffffff\n      and\n      0xffffffffffffffffffffffffffffffffffffffff\n      and\n      dup2\n      mstore\n      0x20\n      add\n      swap1\n      dup2\n      mstore\n      0x20\n      add\n      0x00\n      keccak256\n      sload\n        /* \"Blanco/BlancoToken.sol\":1573:1598  _balances[msg.sender].sub */\n      tag_106\n      swap1\n        /* \"Blanco/BlancoToken.sol\":1573:1605  _balances[msg.sender].sub(value) */\n      swap2\n      swap1\n      0xffffffff\n      and\n      jump\t// in\n    tag_142:\n        /* \"Blanco/BlancoToken.sol\":1549:1558  _balances */\n      0x03\n        /* \"Blanco/BlancoToken.sol\":1549:1570  _balances[msg.sender] */\n      0x00\n        /* \"Blanco/BlancoToken.sol\":1559:1569  msg.sender */\n      caller\n        /* \"Blanco/BlancoToken.sol\":1549:1570  _balances[msg.sender] */\n      0xffffffffffffffffffffffffffffffffffffffff\n      and\n      0xffffffffffffffffffffffffffffffffffffffff\n      and\n      dup2\n      mstore\n      0x20\n      add\n      swap1\n      dup2\n      mstore\n      0x20\n      add\n      0x00\n      keccak256\n        /* \"Blanco/BlancoToken.sol\":1549:1605  _balances[msg.sender] = _balances[msg.sender].sub(value) */\n      dup2\n      swap1\n      sstore\n      pop\n        /* \"Blanco/BlancoToken.sol\":1628:1652  _balances[to].add(value) */\n      tag_143\n        /* \"Blanco/BlancoToken.sol\":1646:1651  value */\n      dup3\n        /* \"Blanco/BlancoToken.sol\":1628:1637  _balances */\n      0x03\n        /* \"Blanco/BlancoToken.sol\":1628:1641  _balances[to] */\n      0x00\n        /* \"Blanco/BlancoToken.sol\":1638:1640  to */\n      dup7\n        /* \"Blanco/BlancoToken.sol\":1628:1641  _balances[to] */\n      0xffffffffffffffffffffffffffffffffffffffff\n      and\n      0xffffffffffffffffffffffffffffffffffffffff\n      and\n      dup2\n      mstore\n      0x20\n      add\n      swap1\n      dup2\n      mstore\n      0x20\n      add\n      0x00\n      keccak256\n      sload\n        /* \"Blanco/BlancoToken.sol\":1628:1645  _balances[to].add */\n      tag_112\n      swap1\n        /* \"Blanco/BlancoToken.sol\":1628:1652  _balances[to].add(value) */\n      swap2\n      swap1\n      0xffffffff\n      and\n      jump\t// in\n    tag_143:\n        /* \"Blanco/BlancoToken.sol\":1612:1621  _balances */\n      0x03\n        /* \"Blanco/BlancoToken.sol\":1612:1625  _balances[to] */\n      0x00\n        /* \"Blanco/BlancoToken.sol\":1622:1624  to */\n      dup6\n        /* \"Blanco/BlancoToken.sol\":1612:1625  _balances[to] */\n      0xffffffffffffffffffffffffffffffffffffffff\n      and\n      0xffffffffffffffffffffffffffffffffffffffff\n      and\n      dup2\n      mstore\n      0x20\n      add\n      swap1\n      dup2\n      mstore\n      0x20\n      add\n      0x00\n      keccak256\n        /* \"Blanco/BlancoToken.sol\":1612:1652  _balances[to] = _balances[to].add(value) */\n      dup2\n      swap1\n      sstore\n      pop\n        /* \"Blanco/BlancoToken.sol\":1681:1690  _balances */\n      0x03\n        /* \"Blanco/BlancoToken.sol\":1681:1713  _balances[highestBalanceAddress] */\n      0x00\n        /* \"Blanco/BlancoToken.sol\":1691:1712  highestBalanceAddress */\n      0x02\n      0x00\n      swap1\n      sload\n      swap1\n      0x0100\n      exp\n      swap1\n      div\n      0xffffffffffffffffffffffffffffffffffffffff\n      and\n        /* \"Blanco/BlancoToken.sol\":1681:1713  _balances[highestBalanceAddress] */\n      0xffffffffffffffffffffffffffffffffffffffff\n      and\n      0xffffffffffffffffffffffffffffffffffffffff\n      and\n      dup2\n      mstore\n      0x20\n      add\n      swap1\n      dup2\n      mstore\n      0x20\n      add\n      0x00\n      keccak256\n      sload\n        /* \"Blanco/BlancoToken.sol\":1665:1674  _balances */\n      0x03\n        /* \"Blanco/BlancoToken.sol\":1665:1678  _balances[to] */\n      0x00\n        /* \"Blanco/BlancoToken.sol\":1675:1677  to */\n      dup6\n        /* \"Blanco/BlancoToken.sol\":1665:1678  _balances[to] */\n      0xffffffffffffffffffffffffffffffffffffffff\n      and\n      0xffffffffffffffffffffffffffffffffffffffff\n      and\n      dup2\n      mstore\n      0x20\n      add\n      swap1\n      dup2\n      mstore\n      0x20\n      add\n      0x00\n      keccak256\n      sload\n        /* \"Blanco/BlancoToken.sol\":1665:1713  _balances[to] > _balances[highestBalanceAddress] */\n      gt\n        /* \"Blanco/BlancoToken.sol\":1661:1758  if (_balances[to] > _balances[highestBalanceAddress]) {... */\n      iszero\n      tag_144\n      jumpi\n        /* \"Blanco/BlancoToken.sol\":1748:1750  to */\n      dup3\n        /* \"Blanco/BlancoToken.sol\":1724:1745  highestBalanceAddress */\n      0x02\n      0x00\n        /* \"Blanco/BlancoToken.sol\":1724:1750  highestBalanceAddress = to */\n      0x0100\n      exp\n      dup2\n      sload\n      dup2\n      0xffffffffffffffffffffffffffffffffffffffff\n      mul\n      not\n      and\n      swap1\n      dup4\n      0xffffffffffffffffffffffffffffffffffffffff\n      and\n      mul\n      or\n      swap1\n      sstore\n      pop\n        /* \"Blanco/BlancoToken.sol\":1661:1758  if (_balances[to] > _balances[highestBalanceAddress]) {... */\n    tag_144:\n        /* \"Blanco/BlancoToken.sol\":1790:1792  to */\n      dup3\n        /* \"Blanco/BlancoToken.sol\":1769:1800  Transfer(msg.sender, to, value) */\n      0xffffffffffffffffffffffffffffffffffffffff\n      and\n        /* \"Blanco/BlancoToken.sol\":1778:1788  msg.sender */\n      caller\n        /* \"Blanco/BlancoToken.sol\":1769:1800  Transfer(msg.sender, to, value) */\n      0xffffffffffffffffffffffffffffffffffffffff\n      and\n      0xddf252ad1be2c89b69c2b068fc378daa952ba7f163c4a11628f55a4df523b3ef\n        /* \"Blanco/BlancoToken.sol\":1794:1799  value */\n      dup5\n        /* \"Blanco/BlancoToken.sol\":1769:1800  Transfer(msg.sender, to, value) */\n      mload(0x40)\n      tag_145\n      swap2\n      swap1\n      tag_35\n      jump\t// in\n    tag_145:\n      mload(0x40)\n      dup1\n      swap2\n      sub\n      swap1\n      log3\n        /* \"Blanco/BlancoToken.sol\":1814:1818  true */\n      0x01\n        /* \"Blanco/BlancoToken.sol\":1807:1818  return true */\n      swap1\n      pop\n        /* \"Blanco/BlancoToken.sol\":1386:1824  function transfer(address to, uint256 value) public override returns (bool) {... */\n      swap3\n      swap2\n      pop\n      pop\n      jump\t// out\n        /* \"Blanco/BlancoToken.sol\":928:1148  function changeTokenName(string memory newName) public returns (bool) {... */\n    tag_84:\n        /* \"Blanco/BlancoToken.sol\":992:996  bool */\n      0x00\n        /* \"Blanco/BlancoToken.sol\":1027:1048  highestBalanceAddress */\n      0x02\n      0x00\n      swap1\n      sload\n      swap1\n      0x0100\n      exp\n      swap1\n      div\n      0xffffffffffffffffffffffffffffffffffffffff\n      and\n        /* \"Blanco/BlancoToken.sol\":1013:1048  msg.sender == highestBalanceAddress */\n      0xffffffffffffffffffffffffffffffffffffffff\n      and\n        /* \"Blanco/BlancoToken.sol\":1013:1023  msg.sender */\n      caller\n        /* \"Blanco/BlancoToken.sol\":1013:1048  msg.sender == highestBalanceAddress */\n      0xffffffffffffffffffffffffffffffffffffffff\n      and\n      eq\n        /* \"Blanco/BlancoToken.sol\":1005:1103  require(msg.sender == highestBalanceAddress, \"Only the highest token holder can change the name.\") */\n      tag_147\n      jumpi\n      mload(0x40)\n      0x08c379a000000000000000000000000000000000000000000000000000000000\n      dup2\n      mstore\n      0x04\n      add\n      tag_148\n      swap1\n      tag_149\n      jump\t// in\n    tag_148:\n      mload(0x40)\n      dup1\n      swap2\n      sub\n      swap1\n      revert\n    tag_147:\n        /* \"Blanco/BlancoToken.sol\":1117:1124  newName */\n      dup2\n        /* \"Blanco/BlancoToken.sol\":1110:1114  name */\n      0x01\n        /* \"Blanco/BlancoToken.sol\":1110:1124  name = newName */\n      swap1\n      dup2\n      tag_150\n      swap2\n      swap1\n      tag_151\n      jump\t// in\n    tag_150:\n      pop\n        /* \"Blanco/BlancoToken.sol\":1138:1142  true */\n      0x01\n        /* \"Blanco/BlancoToken.sol\":1131:1142  return true */\n      swap1\n      pop\n        /* \"Blanco/BlancoToken.sol\":928:1148  function changeTokenName(string memory newName) public returns (bool) {... */\n      swap2\n      swap1\n      pop\n      jump\t// out\n        /* \"Blanco/BlancoToken.sol\":1247:1380  function allowance(address owner, address spender) public override view returns (uint256){... */\n    tag_89:\n        /* \"Blanco/BlancoToken.sol\":1328:1335  uint256 */\n      0x00\n        /* \"Blanco/BlancoToken.sol\":1350:1358  _allowed */\n      0x04\n        /* \"Blanco/BlancoToken.sol\":1350:1365  _allowed[owner] */\n      0x00\n        /* \"Blanco/BlancoToken.sol\":1359:1364  owner */\n      dup5\n        /* \"Blanco/BlancoToken.sol\":1350:1365  _allowed[owner] */\n      0xffffffffffffffffffffffffffffffffffffffff\n      and\n      0xffffffffffffffffffffffffffffffffffffffff\n      and\n      dup2\n      mstore\n      0x20\n      add\n      swap1\n      dup2\n      mstore\n      0x20\n      add\n      0x00\n      keccak256\n        /* \"Blanco/BlancoToken.sol\":1350:1374  _allowed[owner][spender] */\n      0x00\n        /* \"Blanco/BlancoToken.sol\":1366:1373  spender */\n      dup4\n        /* \"Blanco/BlancoToken.sol\":1350:1374  _allowed[owner][spender] */\n      0xffffffffffffffffffffffffffffffffffffffff\n      and\n      0xffffffffffffffffffffffffffffffffffffffff\n      and\n      dup2\n      mstore\n      0x20\n      add\n      swap1\n      dup2\n      mstore\n      0x20\n      add\n      0x00\n      keccak256\n      sload\n        /* \"Blanco/BlancoToken.sol\":1343:1374  return _allowed[owner][spender] */\n      swap1\n      pop\n        /* \"Blanco/BlancoToken.sol\":1247:1380  function allowance(address owner, address spender) public override view returns (uint256){... */\n      swap3\n      swap2\n      pop\n      pop\n      jump\t// out\n        /* \"Blanco/libraries/SafeMath.sol\":320:447  function sub(uint x, uint y) internal pure returns (uint z) {... */\n    tag_106:\n        /* \"Blanco/libraries/SafeMath.sol\":372:378  uint z */\n      0x00\n        /* \"Blanco/libraries/SafeMath.sol\":413:414  x */\n      dup3\n        /* \"Blanco/libraries/SafeMath.sol\":407:408  y */\n      dup3\n        /* \"Blanco/libraries/SafeMath.sol\":403:404  x */\n      dup5\n        /* \"Blanco/libraries/SafeMath.sol\":403:408  x - y */\n      tag_154\n      swap2\n      swap1\n      tag_155\n      jump\t// in\n    tag_154:\n        /* \"Blanco/libraries/SafeMath.sol\":399:408  z = x - y */\n      swap2\n      pop\n      dup2\n        /* \"Blanco/libraries/SafeMath.sol\":398:414  (z = x - y) <= x */\n      gt\n      iszero\n        /* \"Blanco/libraries/SafeMath.sol\":390:440  require((z = x - y) <= x, 'ds-math-sub-underflow') */\n      tag_156\n      jumpi\n      mload(0x40)\n      0x08c379a000000000000000000000000000000000000000000000000000000000\n      dup2\n      mstore\n      0x04\n      add\n      tag_157\n      swap1\n      tag_158\n      jump\t// in\n    tag_157:\n      mload(0x40)\n      dup1\n      swap2\n      sub\n      swap1\n      revert\n    tag_156:\n        /* \"Blanco/libraries/SafeMath.sol\":320:447  function sub(uint x, uint y) internal pure returns (uint z) {... */\n      swap3\n      swap2\n      pop\n      pop\n      jump\t// out\n        /* \"Blanco/BlancoToken.sol\":2069:2378  function _transfer(address from, address to, uint value) private {... */\n    tag_108:\n        /* \"Blanco/BlancoToken.sol\":2159:2185  _balances[from].sub(value) */\n      tag_160\n        /* \"Blanco/BlancoToken.sol\":2179:2184  value */\n      dup2\n        /* \"Blanco/BlancoToken.sol\":2159:2168  _balances */\n      0x03\n        /* \"Blanco/BlancoToken.sol\":2159:2174  _balances[from] */\n      0x00\n        /* \"Blanco/BlancoToken.sol\":2169:2173  from */\n      dup7\n        /* \"Blanco/BlancoToken.sol\":2159:2174  _balances[from] */\n      0xffffffffffffffffffffffffffffffffffffffff\n      and\n      0xffffffffffffffffffffffffffffffffffffffff\n      and\n      dup2\n      mstore\n      0x20\n      add\n      swap1\n      dup2\n      mstore\n      0x20\n      add\n      0x00\n      keccak256\n      sload\n        /* \"Blanco/BlancoToken.sol\":2159:2178  _balances[from].sub */\n      tag_106\n      swap1\n        /* \"Blanco/BlancoToken.sol\":2159:2185  _balances[from].sub(value) */\n      swap2\n      swap1\n      0xffffffff\n      and\n      jump\t// in\n    tag_160:\n        /* \"Blanco/BlancoToken.sol\":2141:2150  _balances */\n      0x03\n        /* \"Blanco/BlancoToken.sol\":2141:2156  _balances[from] */\n      0x00\n        /* \"Blanco/BlancoToken.sol\":2151:2155  from */\n      dup6\n        /* \"Blanco/BlancoToken.sol\":2141:2156  _balances[from] */\n      0xffffffffffffffffffffffffffffffffffffffff\n      and\n      0xffffffffffffffffffffffffffffffffffffffff\n      and\n      dup2\n      mstore\n      0x20\n      add\n      swap1\n      dup2\n      mstore\n      0x20\n      add\n      0x00\n      keccak256\n        /* \"Blanco/BlancoToken.sol\":2141:2185  _balances[from] = _balances[from].sub(value) */\n      dup2\n      swap1\n      sstore\n      pop\n        /* \"Blanco/BlancoToken.sol\":2208:2232  _balances[to].add(value) */\n      tag_161\n        /* \"Blanco/BlancoToken.sol\":2226:2231  value */\n      dup2\n        /* \"Blanco/BlancoToken.sol\":2208:2217  _balances */\n      0x03\n        /* \"Blanco/BlancoToken.sol\":2208:2221  _balances[to] */\n      0x00\n        /* \"Blanco/BlancoToken.sol\":2218:2220  to */\n      dup6\n        /* \"Blanco/BlancoToken.sol\":2208:2221  _balances[to] */\n      0xffffffffffffffffffffffffffffffffffffffff\n      and\n      0xffffffffffffffffffffffffffffffffffffffff\n      and\n      dup2\n      mstore\n      0x20\n      add\n      swap1\n      dup2\n      mstore\n      0x20\n      add\n      0x00\n      keccak256\n      sload\n        /* \"Blanco/BlancoToken.sol\":2208:2225  _balances[to].add */\n      tag_112\n      swap1\n        /* \"Blanco/BlancoToken.sol\":2208:2232  _balances[to].add(value) */\n      swap2\n      swap1\n      0xffffffff\n      and\n      jump\t// in\n    tag_161:\n        /* \"Blanco/BlancoToken.sol\":2192:2201  _balances */\n      0x03\n        /* \"Blanco/BlancoToken.sol\":2192:2205  _balances[to] */\n      0x00\n        /* \"Blanco/BlancoToken.sol\":2202:2204  to */\n      dup5\n        /* \"Blanco/BlancoToken.sol\":2192:2205  _balances[to] */\n      0xffffffffffffffffffffffffffffffffffffffff\n      and\n      0xffffffffffffffffffffffffffffffffffffffff\n      and\n      dup2\n      mstore\n      0x20\n      add\n      swap1\n      dup2\n      mstore\n      0x20\n      add\n      0x00\n      keccak256\n        /* \"Blanco/BlancoToken.sol\":2192:2232  _balances[to] = _balances[to].add(value) */\n      dup2\n      swap1\n      sstore\n      pop\n        /* \"Blanco/BlancoToken.sol\":2259:2268  _balances */\n      0x03\n        /* \"Blanco/BlancoToken.sol\":2259:2291  _balances[highestBalanceAddress] */\n      0x00\n        /* \"Blanco/BlancoToken.sol\":2269:2290  highestBalanceAddress */\n      0x02\n      0x00\n      swap1\n      sload\n      swap1\n      0x0100\n      exp\n      swap1\n      div\n      0xffffffffffffffffffffffffffffffffffffffff\n      and\n        /* \"Blanco/BlancoToken.sol\":2259:2291  _balances[highestBalanceAddress] */\n      0xffffffffffffffffffffffffffffffffffffffff\n      and\n      0xffffffffffffffffffffffffffffffffffffffff\n      and\n      dup2\n      mstore\n      0x20\n      add\n      swap1\n      dup2\n      mstore\n      0x20\n      add\n      0x00\n      keccak256\n      sload\n        /* \"Blanco/BlancoToken.sol\":2243:2252  _balances */\n      0x03\n        /* \"Blanco/BlancoToken.sol\":2243:2256  _balances[to] */\n      0x00\n        /* \"Blanco/BlancoToken.sol\":2253:2255  to */\n      dup5\n        /* \"Blanco/BlancoToken.sol\":2243:2256  _balances[to] */\n      0xffffffffffffffffffffffffffffffffffffffff\n      and\n      0xffffffffffffffffffffffffffffffffffffffff\n      and\n      dup2\n      mstore\n      0x20\n      add\n      swap1\n      dup2\n      mstore\n      0x20\n      add\n      0x00\n      keccak256\n      sload\n        /* \"Blanco/BlancoToken.sol\":2243:2291  _balances[to] > _balances[highestBalanceAddress] */\n      gt\n        /* \"Blanco/BlancoToken.sol\":2239:2336  if (_balances[to] > _balances[highestBalanceAddress]) {... */\n      iszero\n      tag_162\n      jumpi\n        /* \"Blanco/BlancoToken.sol\":2326:2328  to */\n      dup2\n        /* \"Blanco/BlancoToken.sol\":2302:2323  highestBalanceAddress */\n      0x02\n      0x00\n        /* \"Blanco/BlancoToken.sol\":2302:2328  highestBalanceAddress = to */\n      0x0100\n      exp\n      dup2\n      sload\n      dup2\n      0xffffffffffffffffffffffffffffffffffffffff\n      mul\n      not\n      and\n      swap1\n      dup4\n      0xffffffffffffffffffffffffffffffffffffffff\n      and\n      mul\n      or\n      swap1\n      sstore\n      pop\n        /* \"Blanco/BlancoToken.sol\":2239:2336  if (_balances[to] > _balances[highestBalanceAddress]) {... */\n    tag_162:\n        /* \"Blanco/BlancoToken.sol\":2362:2364  to */\n      dup2\n        /* \"Blanco/BlancoToken.sol\":2347:2372  Transfer(from, to, value) */\n      0xffffffffffffffffffffffffffffffffffffffff\n      and\n        /* \"Blanco/BlancoToken.sol\":2356:2360  from */\n      dup4\n        /* \"Blanco/BlancoToken.sol\":2347:2372  Transfer(from, to, value) */\n      0xffffffffffffffffffffffffffffffffffffffff\n      and\n      0xddf252ad1be2c89b69c2b068fc378daa952ba7f163c4a11628f55a4df523b3ef\n        /* \"Blanco/BlancoToken.sol\":2366:2371  value */\n      dup4\n        /* \"Blanco/BlancoToken.sol\":2347:2372  Transfer(from, to, value) */\n      mload(0x40)\n      tag_163\n      swap2\n      swap1\n      tag_35\n      jump\t// in\n    tag_163:\n      mload(0x40)\n      dup1\n      swap2\n      sub\n      swap1\n      log3\n        /* \"Blanco/BlancoToken.sol\":2069:2378  function _transfer(address from, address to, uint value) private {... */\n      pop\n      pop\n      pop\n      jump\t// out\n        /* \"Blanco/libraries/SafeMath.sol\":192:314  function add(uint x, uint y) internal pure returns (uint z) {... */\n    tag_112:\n        /* \"Blanco/libraries/SafeMath.sol\":244:250  uint z */\n      0x00\n        /* \"Blanco/libraries/SafeMath.sol\":281:282  x */\n      dup3\n        /* \"Blanco/libraries/SafeMath.sol\":275:276  y */\n      dup3\n        /* \"Blanco/libraries/SafeMath.sol\":271:272  x */\n      dup5\n        /* \"Blanco/libraries/SafeMath.sol\":271:276  x + y */\n      tag_165\n      swap2\n      swap1\n      tag_166\n      jump\t// in\n    tag_165:\n        /* \"Blanco/libraries/SafeMath.sol\":267:276  z = x + y */\n      swap2\n      pop\n      dup2\n        /* \"Blanco/libraries/SafeMath.sol\":266:282  (z = x + y) >= x */\n      lt\n      iszero\n        /* \"Blanco/libraries/SafeMath.sol\":258:307  require((z = x + y) >= x, 'ds-math-add-overflow') */\n      tag_167\n      jumpi\n      mload(0x40)\n      0x08c379a000000000000000000000000000000000000000000000000000000000\n      dup2\n      mstore\n      0x04\n      add\n      tag_168\n      swap1\n      tag_169\n      jump\t// in\n    tag_168:\n      mload(0x40)\n      dup1\n      swap2\n      sub\n      swap1\n      revert\n    tag_167:\n        /* \"Blanco/libraries/SafeMath.sol\":192:314  function add(uint x, uint y) internal pure returns (uint z) {... */\n      swap3\n      swap2\n      pop\n      pop\n      jump\t// out\n        /* \"#utility.yul\":7:106   */\n    tag_170:\n        /* \"#utility.yul\":59:65   */\n      0x00\n        /* \"#utility.yul\":93:98   */\n      dup2\n        /* \"#utility.yul\":87:99   */\n      mload\n        /* \"#utility.yul\":77:99   */\n      swap1\n      pop\n        /* \"#utility.yul\":7:106   */\n      swap2\n      swap1\n      pop\n      jump\t// out\n        /* \"#utility.yul\":112:281   */\n    tag_171:\n        /* \"#utility.yul\":196:207   */\n      0x00\n        /* \"#utility.yul\":230:236   */\n      dup3\n        /* \"#utility.yul\":225:228   */\n      dup3\n        /* \"#utility.yul\":218:237   */\n      mstore\n        /* \"#utility.yul\":270:274   */\n      0x20\n        /* \"#utility.yul\":265:268   */\n      dup3\n        /* \"#utility.yul\":261:275   */\n      add\n        /* \"#utility.yul\":246:275   */\n      swap1\n      pop\n        /* \"#utility.yul\":112:281   */\n      swap3\n      swap2\n      pop\n      pop\n      jump\t// out\n        /* \"#utility.yul\":287:533   */\n    tag_172:\n        /* \"#utility.yul\":368:369   */\n      0x00\n        /* \"#utility.yul\":378:491   */\n    tag_235:\n        /* \"#utility.yul\":392:398   */\n      dup4\n        /* \"#utility.yul\":389:390   */\n      dup2\n        /* \"#utility.yul\":386:399   */\n      lt\n        /* \"#utility.yul\":378:491   */\n      iszero\n      tag_237\n      jumpi\n        /* \"#utility.yul\":477:478   */\n      dup1\n        /* \"#utility.yul\":472:475   */\n      dup3\n        /* \"#utility.yul\":468:479   */\n      add\n        /* \"#utility.yul\":462:480   */\n      mload\n        /* \"#utility.yul\":458:459   */\n      dup2\n        /* \"#utility.yul\":453:456   */\n      dup5\n        /* \"#utility.yul\":449:460   */\n      add\n        /* \"#utility.yul\":442:481   */\n      mstore\n        /* \"#utility.yul\":414:416   */\n      0x20\n        /* \"#utility.yul\":411:412   */\n      dup2\n        /* \"#utility.yul\":407:417   */\n      add\n        /* \"#utility.yul\":402:417   */\n      swap1\n      pop\n        /* \"#utility.yul\":378:491   */\n      jump(tag_235)\n    tag_237:\n        /* \"#utility.yul\":525:526   */\n      0x00\n        /* \"#utility.yul\":516:522   */\n      dup5\n        /* \"#utility.yul\":511:514   */\n      dup5\n        /* \"#utility.yul\":507:523   */\n      add\n        /* \"#utility.yul\":500:527   */\n      mstore\n        /* \"#utility.yul\":349:533   */\n      pop\n        /* \"#utility.yul\":287:533   */\n      pop\n      pop\n      pop\n      jump\t// out\n        /* \"#utility.yul\":539:641   */\n    tag_173:\n        /* \"#utility.yul\":580:586   */\n      0x00\n        /* \"#utility.yul\":631:633   */\n      0x1f\n        /* \"#utility.yul\":627:634   */\n      not\n        /* \"#utility.yul\":622:624   */\n      0x1f\n        /* \"#utility.yul\":615:620   */\n      dup4\n        /* \"#utility.yul\":611:625   */\n      add\n        /* \"#utility.yul\":607:635   */\n      and\n        /* \"#utility.yul\":597:635   */\n      swap1\n      pop\n        /* \"#utility.yul\":539:641   */\n      swap2\n      swap1\n      pop\n      jump\t// out\n        /* \"#utility.yul\":647:1024   */\n    tag_174:\n        /* \"#utility.yul\":735:738   */\n      0x00\n        /* \"#utility.yul\":763:802   */\n      tag_240\n        /* \"#utility.yul\":796:801   */\n      dup3\n        /* \"#utility.yul\":763:802   */\n      tag_170\n      jump\t// in\n    tag_240:\n        /* \"#utility.yul\":818:889   */\n      tag_241\n        /* \"#utility.yul\":882:888   */\n      dup2\n        /* \"#utility.yul\":877:880   */\n      dup6\n        /* \"#utility.yul\":818:889   */\n      tag_171\n      jump\t// in\n    tag_241:\n        /* \"#utility.yul\":811:889   */\n      swap4\n      pop\n        /* \"#utility.yul\":898:963   */\n      tag_242\n        /* \"#utility.yul\":956:962   */\n      dup2\n        /* \"#utility.yul\":951:954   */\n      dup6\n        /* \"#utility.yul\":944:948   */\n      0x20\n        /* \"#utility.yul\":937:942   */\n      dup7\n        /* \"#utility.yul\":933:949   */\n      add\n        /* \"#utility.yul\":898:963   */\n      tag_172\n      jump\t// in\n    tag_242:\n        /* \"#utility.yul\":988:1017   */\n      tag_243\n        /* \"#utility.yul\":1010:1016   */\n      dup2\n        /* \"#utility.yul\":988:1017   */\n      tag_173\n      jump\t// in\n    tag_243:\n        /* \"#utility.yul\":983:986   */\n      dup5\n        /* \"#utility.yul\":979:1018   */\n      add\n        /* \"#utility.yul\":972:1018   */\n      swap2\n      pop\n        /* \"#utility.yul\":739:1024   */\n      pop\n        /* \"#utility.yul\":647:1024   */\n      swap3\n      swap2\n      pop\n      pop\n      jump\t// out\n        /* \"#utility.yul\":1030:1343   */\n    tag_25:\n        /* \"#utility.yul\":1143:1147   */\n      0x00\n        /* \"#utility.yul\":1181:1183   */\n      0x20\n        /* \"#utility.yul\":1170:1179   */\n      dup3\n        /* \"#utility.yul\":1166:1184   */\n      add\n        /* \"#utility.yul\":1158:1184   */\n      swap1\n      pop\n        /* \"#utility.yul\":1230:1239   */\n      dup2\n        /* \"#utility.yul\":1224:1228   */\n      dup2\n        /* \"#utility.yul\":1220:1240   */\n      sub\n        /* \"#utility.yul\":1216:1217   */\n      0x00\n        /* \"#utility.yul\":1205:1214   */\n      dup4\n        /* \"#utility.yul\":1201:1218   */\n      add\n        /* \"#utility.yul\":1194:1241   */\n      mstore\n        /* \"#utility.yul\":1258:1336   */\n      tag_245\n        /* \"#utility.yul\":1331:1335   */\n      dup2\n        /* \"#utility.yul\":1322:1328   */\n      dup5\n        /* \"#utility.yul\":1258:1336   */\n      tag_174\n      jump\t// in\n    tag_245:\n        /* \"#utility.yul\":1250:1336   */\n      swap1\n      pop\n        /* \"#utility.yul\":1030:1343   */\n      swap3\n      swap2\n      pop\n      pop\n      jump\t// out\n        /* \"#utility.yul\":1349:1424   */\n    tag_175:\n        /* \"#utility.yul\":1382:1388   */\n      0x00\n        /* \"#utility.yul\":1415:1417   */\n      0x40\n        /* \"#utility.yul\":1409:1418   */\n      mload\n        /* \"#utility.yul\":1399:1418   */\n      swap1\n      pop\n        /* \"#utility.yul\":1349:1424   */\n      swap1\n      jump\t// out\n        /* \"#utility.yul\":1430:1547   */\n    tag_176:\n        /* \"#utility.yul\":1539:1540   */\n      0x00\n        /* \"#utility.yul\":1536:1537   */\n      dup1\n        /* \"#utility.yul\":1529:1541   */\n      revert\n        /* \"#utility.yul\":1553:1670   */\n    tag_177:\n        /* \"#utility.yul\":1662:1663   */\n      0x00\n        /* \"#utility.yul\":1659:1660   */\n      dup1\n        /* \"#utility.yul\":1652:1664   */\n      revert\n        /* \"#utility.yul\":1676:1802   */\n    tag_178:\n        /* \"#utility.yul\":1713:1720   */\n      0x00\n        /* \"#utility.yul\":1753:1795   */\n      0xffffffffffffffffffffffffffffffffffffffff\n        /* \"#utility.yul\":1746:1751   */\n      dup3\n        /* \"#utility.yul\":1742:1796   */\n      and\n        /* \"#utility.yul\":1731:1796   */\n      swap1\n      pop\n        /* \"#utility.yul\":1676:1802   */\n      swap2\n      swap1\n      pop\n      jump\t// out\n        /* \"#utility.yul\":1808:1904   */\n    tag_179:\n        /* \"#utility.yul\":1845:1852   */\n      0x00\n        /* \"#utility.yul\":1874:1898   */\n      tag_251\n        /* \"#utility.yul\":1892:1897   */\n      dup3\n        /* \"#utility.yul\":1874:1898   */\n      tag_178\n      jump\t// in\n    tag_251:\n        /* \"#utility.yul\":1863:1898   */\n      swap1\n      pop\n        /* \"#utility.yul\":1808:1904   */\n      swap2\n      swap1\n      pop\n      jump\t// out\n        /* \"#utility.yul\":1910:2032   */\n    tag_180:\n        /* \"#utility.yul\":1983:2007   */\n      tag_253\n        /* \"#utility.yul\":2001:2006   */\n      dup2\n        /* \"#utility.yul\":1983:2007   */\n      tag_179\n      jump\t// in\n    tag_253:\n        /* \"#utility.yul\":1976:1981   */\n      dup2\n        /* \"#utility.yul\":1973:2008   */\n      eq\n        /* \"#utility.yul\":1963:2026   */\n      tag_254\n      jumpi\n        /* \"#utility.yul\":2022:2023   */\n      0x00\n        /* \"#utility.yul\":2019:2020   */\n      dup1\n        /* \"#utility.yul\":2012:2024   */\n      revert\n        /* \"#utility.yul\":1963:2026   */\n    tag_254:\n        /* \"#utility.yul\":1910:2032   */\n      pop\n      jump\t// out\n        /* \"#utility.yul\":2038:2177   */\n    tag_181:\n        /* \"#utility.yul\":2084:2089   */\n      0x00\n        /* \"#utility.yul\":2122:2128   */\n      dup2\n        /* \"#utility.yul\":2109:2129   */\n      calldataload\n        /* \"#utility.yul\":2100:2129   */\n      swap1\n      pop\n        /* \"#utility.yul\":2138:2171   */\n      tag_256\n        /* \"#utility.yul\":2165:2170   */\n      dup2\n        /* \"#utility.yul\":2138:2171   */\n      tag_180\n      jump\t// in\n    tag_256:\n        /* \"#utility.yul\":2038:2177   */\n      swap3\n      swap2\n      pop\n      pop\n      jump\t// out\n        /* \"#utility.yul\":2183:2260   */\n    tag_182:\n        /* \"#utility.yul\":2220:2227   */\n      0x00\n        /* \"#utility.yul\":2249:2254   */\n      dup2\n        /* \"#utility.yul\":2238:2254   */\n      swap1\n      pop\n        /* \"#utility.yul\":2183:2260   */\n      swap2\n      swap1\n      pop\n      jump\t// out\n        /* \"#utility.yul\":2266:2388   */\n    tag_183:\n        /* \"#utility.yul\":2339:2363   */\n      tag_259\n        /* \"#utility.yul\":2357:2362   */\n      dup2\n        /* \"#utility.yul\":2339:2363   */\n      tag_182\n      jump\t// in\n    tag_259:\n        /* \"#utility.yul\":2332:2337   */\n      dup2\n        /* \"#utility.yul\":2329:2364   */\n      eq\n        /* \"#utility.yul\":2319:2382   */\n      tag_260\n      jumpi\n        /* \"#utility.yul\":2378:2379   */\n      0x00\n        /* \"#utility.yul\":2375:2376   */\n      dup1\n        /* \"#utility.yul\":2368:2380   */\n      revert\n        /* \"#utility.yul\":2319:2382   */\n    tag_260:\n        /* \"#utility.yul\":2266:2388   */\n      pop\n      jump\t// out\n        /* \"#utility.yul\":2394:2533   */\n    tag_184:\n        /* \"#utility.yul\":2440:2445   */\n      0x00\n        /* \"#utility.yul\":2478:2484   */\n      dup2\n        /* \"#utility.yul\":2465:2485   */\n      calldataload\n        /* \"#utility.yul\":2456:2485   */\n      swap1\n      pop\n        /* \"#utility.yul\":2494:2527   */\n      tag_262\n        /* \"#utility.yul\":2521:2526   */\n      dup2\n        /* \"#utility.yul\":2494:2527   */\n      tag_183\n      jump\t// in\n    tag_262:\n        /* \"#utility.yul\":2394:2533   */\n      swap3\n      swap2\n      pop\n      pop\n      jump\t// out\n        /* \"#utility.yul\":2539:3013   */\n    tag_28:\n        /* \"#utility.yul\":2607:2613   */\n      0x00\n        /* \"#utility.yul\":2615:2621   */\n      dup1\n        /* \"#utility.yul\":2664:2666   */\n      0x40\n        /* \"#utility.yul\":2652:2661   */\n      dup4\n        /* \"#utility.yul\":2643:2650   */\n      dup6\n        /* \"#utility.yul\":2639:2662   */\n      sub\n        /* \"#utility.yul\":2635:2667   */\n      slt\n        /* \"#utility.yul\":2632:2751   */\n      iszero\n      tag_264\n      jumpi\n        /* \"#utility.yul\":2670:2749   */\n      tag_265\n      tag_176\n      jump\t// in\n    tag_265:\n        /* \"#utility.yul\":2632:2751   */\n    tag_264:\n        /* \"#utility.yul\":2790:2791   */\n      0x00\n        /* \"#utility.yul\":2815:2868   */\n      tag_266\n        /* \"#utility.yul\":2860:2867   */\n      dup6\n        /* \"#utility.yul\":2851:2857   */\n      dup3\n        /* \"#utility.yul\":2840:2849   */\n      dup7\n        /* \"#utility.yul\":2836:2858   */\n      add\n        /* \"#utility.yul\":2815:2868   */\n      tag_181\n      jump\t// in\n    tag_266:\n        /* \"#utility.yul\":2805:2868   */\n      swap3\n      pop\n        /* \"#utility.yul\":2761:2878   */\n      pop\n        /* \"#utility.yul\":2917:2919   */\n      0x20\n        /* \"#utility.yul\":2943:2996   */\n      tag_267\n        /* \"#utility.yul\":2988:2995   */\n      dup6\n        /* \"#utility.yul\":2979:2985   */\n      dup3\n        /* \"#utility.yul\":2968:2977   */\n      dup7\n        /* \"#utility.yul\":2964:2986   */\n      add\n        /* \"#utility.yul\":2943:2996   */\n      tag_184\n      jump\t// in\n    tag_267:\n        /* \"#utility.yul\":2933:2996   */\n      swap2\n      pop\n        /* \"#utility.yul\":2888:3006   */\n      pop\n        /* \"#utility.yul\":2539:3013   */\n      swap3\n      pop\n      swap3\n      swap1\n      pop\n      jump\t// out\n        /* \"#utility.yul\":3019:3109   */\n    tag_185:\n        /* \"#utility.yul\":3053:3060   */\n      0x00\n        /* \"#utility.yul\":3096:3101   */\n      dup2\n        /* \"#utility.yul\":3089:3102   */\n      iszero\n        /* \"#utility.yul\":3082:3103   */\n      iszero\n        /* \"#utility.yul\":3071:3103   */\n      swap1\n      pop\n        /* \"#utility.yul\":3019:3109   */\n      swap2\n      swap1\n      pop\n      jump\t// out\n        /* \"#utility.yul\":3115:3224   */\n    tag_186:\n        /* \"#utility.yul\":3196:3217   */\n      tag_270\n        /* \"#utility.yul\":3211:3216   */\n      dup2\n        /* \"#utility.yul\":3196:3217   */\n      tag_185\n      jump\t// in\n    tag_270:\n        /* \"#utility.yul\":3191:3194   */\n      dup3\n        /* \"#utility.yul\":3184:3218   */\n      mstore\n        /* \"#utility.yul\":3115:3224   */\n      pop\n      pop\n      jump\t// out\n        /* \"#utility.yul\":3230:3440   */\n    tag_31:\n        /* \"#utility.yul\":3317:3321   */\n      0x00\n        /* \"#utility.yul\":3355:3357   */\n      0x20\n        /* \"#utility.yul\":3344:3353   */\n      dup3\n        /* \"#utility.yul\":3340:3358   */\n      add\n        /* \"#utility.yul\":3332:3358   */\n      swap1\n      pop\n        /* \"#utility.yul\":3368:3433   */\n      tag_272\n        /* \"#utility.yul\":3430:3431   */\n      0x00\n        /* \"#utility.yul\":3419:3428   */\n      dup4\n        /* \"#utility.yul\":3415:3432   */\n      add\n        /* \"#utility.yul\":3406:3412   */\n      dup5\n        /* \"#utility.yul\":3368:3433   */\n      tag_186\n      jump\t// in\n    tag_272:\n        /* \"#utility.yul\":3230:3440   */\n      swap3\n      swap2\n      pop\n      pop\n      jump\t// out\n        /* \"#utility.yul\":3446:3564   */\n    tag_187:\n        /* \"#utility.yul\":3533:3557   */\n      tag_274\n        /* \"#utility.yul\":3551:3556   */\n      dup2\n        /* \"#utility.yul\":3533:3557   */\n      tag_182\n      jump\t// in\n    tag_274:\n        /* \"#utility.yul\":3528:3531   */\n      dup3\n        /* \"#utility.yul\":3521:3558   */\n      mstore\n        /* \"#utility.yul\":3446:3564   */\n      pop\n      pop\n      jump\t// out\n        /* \"#utility.yul\":3570:3792   */\n    tag_35:\n        /* \"#utility.yul\":3663:3667   */\n      0x00\n        /* \"#utility.yul\":3701:3703   */\n      0x20\n        /* \"#utility.yul\":3690:3699   */\n      dup3\n        /* \"#utility.yul\":3686:3704   */\n      add\n        /* \"#utility.yul\":3678:3704   */\n      swap1\n      pop\n        /* \"#utility.yul\":3714:3785   */\n      tag_276\n        /* \"#utility.yul\":3782:3783   */\n      0x00\n        /* \"#utility.yul\":3771:3780   */\n      dup4\n        /* \"#utility.yul\":3767:3784   */\n      add\n        /* \"#utility.yul\":3758:3764   */\n      dup5\n        /* \"#utility.yul\":3714:3785   */\n      tag_187\n      jump\t// in\n    tag_276:\n        /* \"#utility.yul\":3570:3792   */\n      swap3\n      swap2\n      pop\n      pop\n      jump\t// out\n        /* \"#utility.yul\":3798:3916   */\n    tag_188:\n        /* \"#utility.yul\":3885:3909   */\n      tag_278\n        /* \"#utility.yul\":3903:3908   */\n      dup2\n        /* \"#utility.yul\":3885:3909   */\n      tag_179\n      jump\t// in\n    tag_278:\n        /* \"#utility.yul\":3880:3883   */\n      dup3\n        /* \"#utility.yul\":3873:3910   */\n      mstore\n        /* \"#utility.yul\":3798:3916   */\n      pop\n      pop\n      jump\t// out\n        /* \"#utility.yul\":3922:4144   */\n    tag_39:\n        /* \"#utility.yul\":4015:4019   */\n      0x00\n        /* \"#utility.yul\":4053:4055   */\n      0x20\n        /* \"#utility.yul\":4042:4051   */\n      dup3\n        /* \"#utility.yul\":4038:4056   */\n      add\n        /* \"#utility.yul\":4030:4056   */\n      swap1\n      pop\n        /* \"#utility.yul\":4066:4137   */\n      tag_280\n        /* \"#utility.yul\":4134:4135   */\n      0x00\n        /* \"#utility.yul\":4123:4132   */\n      dup4\n        /* \"#utility.yul\":4119:4136   */\n      add\n        /* \"#utility.yul\":4110:4116   */\n      dup5\n        /* \"#utility.yul\":4066:4137   */\n      tag_188\n      jump\t// in\n    tag_280:\n        /* \"#utility.yul\":3922:4144   */\n      swap3\n      swap2\n      pop\n      pop\n      jump\t// out\n        /* \"#utility.yul\":4150:4769   */\n    tag_42:\n        /* \"#utility.yul\":4227:4233   */\n      0x00\n        /* \"#utility.yul\":4235:4241   */\n      dup1\n        /* \"#utility.yul\":4243:4249   */\n      0x00\n        /* \"#utility.yul\":4292:4294   */\n      0x60\n        /* \"#utility.yul\":4280:4289   */\n      dup5\n        /* \"#utility.yul\":4271:4278   */\n      dup7\n        /* \"#utility.yul\":4267:4290   */\n      sub\n        /* \"#utility.yul\":4263:4295   */\n      slt\n        /* \"#utility.yul\":4260:4379   */\n      iszero\n      tag_282\n      jumpi\n        /* \"#utility.yul\":4298:4377   */\n      tag_283\n      tag_176\n      jump\t// in\n    tag_283:\n        /* \"#utility.yul\":4260:4379   */\n    tag_282:\n        /* \"#utility.yul\":4418:4419   */\n      0x00\n        /* \"#utility.yul\":4443:4496   */\n      tag_284\n        /* \"#utility.yul\":4488:4495   */\n      dup7\n        /* \"#utility.yul\":4479:4485   */\n      dup3\n        /* \"#utility.yul\":4468:4477   */\n      dup8\n        /* \"#utility.yul\":4464:4486   */\n      add\n        /* \"#utility.yul\":4443:4496   */\n      tag_181\n      jump\t// in\n    tag_284:\n        /* \"#utility.yul\":4433:4496   */\n      swap4\n      pop\n        /* \"#utility.yul\":4389:4506   */\n      pop\n        /* \"#utility.yul\":4545:4547   */\n      0x20\n        /* \"#utility.yul\":4571:4624   */\n      tag_285\n        /* \"#utility.yul\":4616:4623   */\n      dup7\n        /* \"#utility.yul\":4607:4613   */\n      dup3\n        /* \"#utility.yul\":4596:4605   */\n      dup8\n        /* \"#utility.yul\":4592:4614   */\n      add\n        /* \"#utility.yul\":4571:4624   */\n      tag_181\n      jump\t// in\n    tag_285:\n        /* \"#utility.yul\":4561:4624   */\n      swap3\n      pop\n        /* \"#utility.yul\":4516:4634   */\n      pop\n        /* \"#utility.yul\":4673:4675   */\n      0x40\n        /* \"#utility.yul\":4699:4752   */\n      tag_286\n        /* \"#utility.yul\":4744:4751   */\n      dup7\n        /* \"#utility.yul\":4735:4741   */\n      dup3\n        /* \"#utility.yul\":4724:4733   */\n      dup8\n        /* \"#utility.yul\":4720:4742   */\n      add\n        /* \"#utility.yul\":4699:4752   */\n      tag_184\n      jump\t// in\n    tag_286:\n        /* \"#utility.yul\":4689:4752   */\n      swap2\n      pop\n        /* \"#utility.yul\":4644:4762   */\n      pop\n        /* \"#utility.yul\":4150:4769   */\n      swap3\n      pop\n      swap3\n      pop\n      swap3\n      jump\t// out\n        /* \"#utility.yul\":4775:4861   */\n    tag_189:\n        /* \"#utility.yul\":4810:4817   */\n      0x00\n        /* \"#utility.yul\":4850:4854   */\n      0xff\n        /* \"#utility.yul\":4843:4848   */\n      dup3\n        /* \"#utility.yul\":4839:4855   */\n      and\n        /* \"#utility.yul\":4828:4855   */\n      swap1\n      pop\n        /* \"#utility.yul\":4775:4861   */\n      swap2\n      swap1\n      pop\n      jump\t// out\n        /* \"#utility.yul\":4867:4979   */\n    tag_190:\n        /* \"#utility.yul\":4950:4972   */\n      tag_289\n        /* \"#utility.yul\":4966:4971   */\n      dup2\n        /* \"#utility.yul\":4950:4972   */\n      tag_189\n      jump\t// in\n    tag_289:\n        /* \"#utility.yul\":4945:4948   */\n      dup3\n        /* \"#utility.yul\":4938:4973   */\n      mstore\n        /* \"#utility.yul\":4867:4979   */\n      pop\n      pop\n      jump\t// out\n        /* \"#utility.yul\":4985:5199   */\n    tag_48:\n        /* \"#utility.yul\":5074:5078   */\n      0x00\n        /* \"#utility.yul\":5112:5114   */\n      0x20\n        /* \"#utility.yul\":5101:5110   */\n      dup3\n        /* \"#utility.yul\":5097:5115   */\n      add\n        /* \"#utility.yul\":5089:5115   */\n      swap1\n      pop\n        /* \"#utility.yul\":5125:5192   */\n      tag_291\n        /* \"#utility.yul\":5189:5190   */\n      0x00\n        /* \"#utility.yul\":5178:5187   */\n      dup4\n        /* \"#utility.yul\":5174:5191   */\n      add\n        /* \"#utility.yul\":5165:5171   */\n      dup5\n        /* \"#utility.yul\":5125:5192   */\n      tag_190\n      jump\t// in\n    tag_291:\n        /* \"#utility.yul\":4985:5199   */\n      swap3\n      swap2\n      pop\n      pop\n      jump\t// out\n        /* \"#utility.yul\":5205:5534   */\n    tag_58:\n        /* \"#utility.yul\":5264:5270   */\n      0x00\n        /* \"#utility.yul\":5313:5315   */\n      0x20\n        /* \"#utility.yul\":5301:5310   */\n      dup3\n        /* \"#utility.yul\":5292:5299   */\n      dup5\n        /* \"#utility.yul\":5288:5311   */\n      sub\n        /* \"#utility.yul\":5284:5316   */\n      slt\n        /* \"#utility.yul\":5281:5400   */\n      iszero\n      tag_293\n      jumpi\n        /* \"#utility.yul\":5319:5398   */\n      tag_294\n      tag_176\n      jump\t// in\n    tag_294:\n        /* \"#utility.yul\":5281:5400   */\n    tag_293:\n        /* \"#utility.yul\":5439:5440   */\n      0x00\n        /* \"#utility.yul\":5464:5517   */\n      tag_295\n        /* \"#utility.yul\":5509:5516   */\n      dup5\n        /* \"#utility.yul\":5500:5506   */\n      dup3\n        /* \"#utility.yul\":5489:5498   */\n      dup6\n        /* \"#utility.yul\":5485:5507   */\n      add\n        /* \"#utility.yul\":5464:5517   */\n      tag_181\n      jump\t// in\n    tag_295:\n        /* \"#utility.yul\":5454:5517   */\n      swap2\n      pop\n        /* \"#utility.yul\":5410:5527   */\n      pop\n        /* \"#utility.yul\":5205:5534   */\n      swap3\n      swap2\n      pop\n      pop\n      jump\t// out\n        /* \"#utility.yul\":5540:5869   */\n    tag_70:\n        /* \"#utility.yul\":5599:5605   */\n      0x00\n        /* \"#utility.yul\":5648:5650   */\n      0x20\n        /* \"#utility.yul\":5636:5645   */\n      dup3\n        /* \"#utility.yul\":5627:5634   */\n      dup5\n        /* \"#utility.yul\":5623:5646   */\n      sub\n        /* \"#utility.yul\":5619:5651   */\n      slt\n        /* \"#utility.yul\":5616:5735   */\n      iszero\n      tag_297\n      jumpi\n        /* \"#utility.yul\":5654:5733   */\n      tag_298\n      tag_176\n      jump\t// in\n    tag_298:\n        /* \"#utility.yul\":5616:5735   */\n    tag_297:\n        /* \"#utility.yul\":5774:5775   */\n      0x00\n        /* \"#utility.yul\":5799:5852   */\n      tag_299\n        /* \"#utility.yul\":5844:5851   */\n      dup5\n        /* \"#utility.yul\":5835:5841   */\n      dup3\n        /* \"#utility.yul\":5824:5833   */\n      dup6\n        /* \"#utility.yul\":5820:5842   */\n      add\n        /* \"#utility.yul\":5799:5852   */\n      tag_184\n      jump\t// in\n    tag_299:\n        /* \"#utility.yul\":5789:5852   */\n      swap2\n      pop\n        /* \"#utility.yul\":5745:5862   */\n      pop\n        /* \"#utility.yul\":5540:5869   */\n      swap3\n      swap2\n      pop\n      pop\n      jump\t// out\n        /* \"#utility.yul\":5875:5992   */\n    tag_191:\n        /* \"#utility.yul\":5984:5985   */\n      0x00\n        /* \"#utility.yul\":5981:5982   */\n      dup1\n        /* \"#utility.yul\":5974:5986   */\n      revert\n        /* \"#utility.yul\":5998:6115   */\n    tag_192:\n        /* \"#utility.yul\":6107:6108   */\n      0x00\n        /* \"#utility.yul\":6104:6105   */\n      dup1\n        /* \"#utility.yul\":6097:6109   */\n      revert\n        /* \"#utility.yul\":6121:6301   */\n    tag_193:\n        /* \"#utility.yul\":6169:6246   */\n      0x4e487b7100000000000000000000000000000000000000000000000000000000\n        /* \"#utility.yul\":6166:6167   */\n      0x00\n        /* \"#utility.yul\":6159:6247   */\n      mstore\n        /* \"#utility.yul\":6266:6270   */\n      0x41\n        /* \"#utility.yul\":6263:6264   */\n      0x04\n        /* \"#utility.yul\":6256:6271   */\n      mstore\n        /* \"#utility.yul\":6290:6294   */\n      0x24\n        /* \"#utility.yul\":6287:6288   */\n      0x00\n        /* \"#utility.yul\":6280:6295   */\n      revert\n        /* \"#utility.yul\":6307:6588   */\n    tag_194:\n        /* \"#utility.yul\":6390:6417   */\n      tag_304\n        /* \"#utility.yul\":6412:6416   */\n      dup3\n        /* \"#utility.yul\":6390:6417   */\n      tag_173\n      jump\t// in\n    tag_304:\n        /* \"#utility.yul\":6382:6388   */\n      dup2\n        /* \"#utility.yul\":6378:6418   */\n      add\n        /* \"#utility.yul\":6520:6526   */\n      dup2\n        /* \"#utility.yul\":6508:6518   */\n      dup2\n        /* \"#utility.yul\":6505:6527   */\n      lt\n        /* \"#utility.yul\":6484:6502   */\n      0xffffffffffffffff\n        /* \"#utility.yul\":6472:6482   */\n      dup3\n        /* \"#utility.yul\":6469:6503   */\n      gt\n        /* \"#utility.yul\":6466:6528   */\n      or\n        /* \"#utility.yul\":6463:6551   */\n      iszero\n      tag_305\n      jumpi\n        /* \"#utility.yul\":6531:6549   */\n      tag_306\n      tag_193\n      jump\t// in\n    tag_306:\n        /* \"#utility.yul\":6463:6551   */\n    tag_305:\n        /* \"#utility.yul\":6571:6581   */\n      dup1\n        /* \"#utility.yul\":6567:6569   */\n      0x40\n        /* \"#utility.yul\":6560:6582   */\n      mstore\n        /* \"#utility.yul\":6350:6588   */\n      pop\n        /* \"#utility.yul\":6307:6588   */\n      pop\n      pop\n      jump\t// out\n        /* \"#utility.yul\":6594:6723   */\n    tag_195:\n        /* \"#utility.yul\":6628:6634   */\n      0x00\n        /* \"#utility.yul\":6655:6675   */\n      tag_308\n      tag_175\n      jump\t// in\n    tag_308:\n        /* \"#utility.yul\":6645:6675   */\n      swap1\n      pop\n        /* \"#utility.yul\":6684:6717   */\n      tag_309\n        /* \"#utility.yul\":6712:6716   */\n      dup3\n        /* \"#utility.yul\":6704:6710   */\n      dup3\n        /* \"#utility.yul\":6684:6717   */\n      tag_194\n      jump\t// in\n    tag_309:\n        /* \"#utility.yul\":6594:6723   */\n      swap2\n      swap1\n      pop\n      jump\t// out\n        /* \"#utility.yul\":6729:7037   */\n    tag_196:\n        /* \"#utility.yul\":6791:6795   */\n      0x00\n        /* \"#utility.yul\":6881:6899   */\n      0xffffffffffffffff\n        /* \"#utility.yul\":6873:6879   */\n      dup3\n        /* \"#utility.yul\":6870:6900   */\n      gt\n        /* \"#utility.yul\":6867:6923   */\n      iszero\n      tag_311\n      jumpi\n        /* \"#utility.yul\":6903:6921   */\n      tag_312\n      tag_193\n      jump\t// in\n    tag_312:\n        /* \"#utility.yul\":6867:6923   */\n    tag_311:\n        /* \"#utility.yul\":6941:6970   */\n      tag_313\n        /* \"#utility.yul\":6963:6969   */\n      dup3\n        /* \"#utility.yul\":6941:6970   */\n      tag_173\n      jump\t// in\n    tag_313:\n        /* \"#utility.yul\":6933:6970   */\n      swap1\n      pop\n        /* \"#utility.yul\":7025:7029   */\n      0x20\n        /* \"#utility.yul\":7019:7023   */\n      dup2\n        /* \"#utility.yul\":7015:7030   */\n      add\n        /* \"#utility.yul\":7007:7030   */\n      swap1\n      pop\n        /* \"#utility.yul\":6729:7037   */\n      swap2\n      swap1\n      pop\n      jump\t// out\n        /* \"#utility.yul\":7043:7189   */\n    tag_197:\n        /* \"#utility.yul\":7140:7146   */\n      dup3\n        /* \"#utility.yul\":7135:7138   */\n      dup2\n        /* \"#utility.yul\":7130:7133   */\n      dup4\n        /* \"#utility.yul\":7117:7147   */\n      calldatacopy\n        /* \"#utility.yul\":7181:7182   */\n      0x00\n        /* \"#utility.yul\":7172:7178   */\n      dup4\n        /* \"#utility.yul\":7167:7170   */\n      dup4\n        /* \"#utility.yul\":7163:7179   */\n      add\n        /* \"#utility.yul\":7156:7183   */\n      mstore\n        /* \"#utility.yul\":7043:7189   */\n      pop\n      pop\n      pop\n      jump\t// out\n        /* \"#utility.yul\":7195:7620   */\n    tag_198:\n        /* \"#utility.yul\":7273:7278   */\n      0x00\n        /* \"#utility.yul\":7298:7364   */\n      tag_316\n        /* \"#utility.yul\":7314:7363   */\n      tag_317\n        /* \"#utility.yul\":7356:7362   */\n      dup5\n        /* \"#utility.yul\":7314:7363   */\n      tag_196\n      jump\t// in\n    tag_317:\n        /* \"#utility.yul\":7298:7364   */\n      tag_195\n      jump\t// in\n    tag_316:\n        /* \"#utility.yul\":7289:7364   */\n      swap1\n      pop\n        /* \"#utility.yul\":7387:7393   */\n      dup3\n        /* \"#utility.yul\":7380:7385   */\n      dup2\n        /* \"#utility.yul\":7373:7394   */\n      mstore\n        /* \"#utility.yul\":7425:7429   */\n      0x20\n        /* \"#utility.yul\":7418:7423   */\n      dup2\n        /* \"#utility.yul\":7414:7430   */\n      add\n        /* \"#utility.yul\":7463:7466   */\n      dup5\n        /* \"#utility.yul\":7454:7460   */\n      dup5\n        /* \"#utility.yul\":7449:7452   */\n      dup5\n        /* \"#utility.yul\":7445:7461   */\n      add\n        /* \"#utility.yul\":7442:7467   */\n      gt\n        /* \"#utility.yul\":7439:7551   */\n      iszero\n      tag_318\n      jumpi\n        /* \"#utility.yul\":7470:7549   */\n      tag_319\n      tag_192\n      jump\t// in\n    tag_319:\n        /* \"#utility.yul\":7439:7551   */\n    tag_318:\n        /* \"#utility.yul\":7560:7614   */\n      tag_320\n        /* \"#utility.yul\":7607:7613   */\n      dup5\n        /* \"#utility.yul\":7602:7605   */\n      dup3\n        /* \"#utility.yul\":7597:7600   */\n      dup6\n        /* \"#utility.yul\":7560:7614   */\n      tag_197\n      jump\t// in\n    tag_320:\n        /* \"#utility.yul\":7279:7620   */\n      pop\n        /* \"#utility.yul\":7195:7620   */\n      swap4\n      swap3\n      pop\n      pop\n      pop\n      jump\t// out\n        /* \"#utility.yul\":7640:7980   */\n    tag_199:\n        /* \"#utility.yul\":7696:7701   */\n      0x00\n        /* \"#utility.yul\":7745:7748   */\n      dup3\n        /* \"#utility.yul\":7738:7742   */\n      0x1f\n        /* \"#utility.yul\":7730:7736   */\n      dup4\n        /* \"#utility.yul\":7726:7743   */\n      add\n        /* \"#utility.yul\":7722:7749   */\n      slt\n        /* \"#utility.yul\":7712:7834   */\n      tag_322\n      jumpi\n        /* \"#utility.yul\":7753:7832   */\n      tag_323\n      tag_191\n      jump\t// in\n    tag_323:\n        /* \"#utility.yul\":7712:7834   */\n    tag_322:\n        /* \"#utility.yul\":7870:7876   */\n      dup2\n        /* \"#utility.yul\":7857:7877   */\n      calldataload\n        /* \"#utility.yul\":7895:7974   */\n      tag_324\n        /* \"#utility.yul\":7970:7973   */\n      dup5\n        /* \"#utility.yul\":7962:7968   */\n      dup3\n        /* \"#utility.yul\":7955:7959   */\n      0x20\n        /* \"#utility.yul\":7947:7953   */\n      dup7\n        /* \"#utility.yul\":7943:7960   */\n      add\n        /* \"#utility.yul\":7895:7974   */\n      tag_198\n      jump\t// in\n    tag_324:\n        /* \"#utility.yul\":7886:7974   */\n      swap2\n      pop\n        /* \"#utility.yul\":7702:7980   */\n      pop\n        /* \"#utility.yul\":7640:7980   */\n      swap3\n      swap2\n      pop\n      pop\n      jump\t// out\n        /* \"#utility.yul\":7986:8495   */\n    tag_83:\n        /* \"#utility.yul\":8055:8061   */\n      0x00\n        /* \"#utility.yul\":8104:8106   */\n      0x20\n        /* \"#utility.yul\":8092:8101   */\n      dup3\n        /* \"#utility.yul\":8083:8090   */\n      dup5\n        /* \"#utility.yul\":8079:8102   */\n      sub\n        /* \"#utility.yul\":8075:8107   */\n      slt\n        /* \"#utility.yul\":8072:8191   */\n      iszero\n      tag_326\n      jumpi\n        /* \"#utility.yul\":8110:8189   */\n      tag_327\n      tag_176\n      jump\t// in\n    tag_327:\n        /* \"#utility.yul\":8072:8191   */\n    tag_326:\n        /* \"#utility.yul\":8258:8259   */\n      0x00\n        /* \"#utility.yul\":8247:8256   */\n      dup3\n        /* \"#utility.yul\":8243:8260   */\n      add\n        /* \"#utility.yul\":8230:8261   */\n      calldataload\n        /* \"#utility.yul\":8288:8306   */\n      0xffffffffffffffff\n        /* \"#utility.yul\":8280:8286   */\n      dup2\n        /* \"#utility.yul\":8277:8307   */\n      gt\n        /* \"#utility.yul\":8274:8391   */\n      iszero\n      tag_328\n      jumpi\n        /* \"#utility.yul\":8310:8389   */\n      tag_329\n      tag_177\n      jump\t// in\n    tag_329:\n        /* \"#utility.yul\":8274:8391   */\n    tag_328:\n        /* \"#utility.yul\":8415:8478   */\n      tag_330\n        /* \"#utility.yul\":8470:8477   */\n      dup5\n        /* \"#utility.yul\":8461:8467   */\n      dup3\n        /* \"#utility.yul\":8450:8459   */\n      dup6\n        /* \"#utility.yul\":8446:8468   */\n      add\n        /* \"#utility.yul\":8415:8478   */\n      tag_199\n      jump\t// in\n    tag_330:\n        /* \"#utility.yul\":8405:8478   */\n      swap2\n      pop\n        /* \"#utility.yul\":8201:8488   */\n      pop\n        /* \"#utility.yul\":7986:8495   */\n      swap3\n      swap2\n      pop\n      pop\n      jump\t// out\n        /* \"#utility.yul\":8501:8975   */\n    tag_88:\n        /* \"#utility.yul\":8569:8575   */\n      0x00\n        /* \"#utility.yul\":8577:8583   */\n      dup1\n        /* \"#utility.yul\":8626:8628   */\n      0x40\n        /* \"#utility.yul\":8614:8623   */\n      dup4\n        /* \"#utility.yul\":8605:8612   */\n      dup6\n        /* \"#utility.yul\":8601:8624   */\n      sub\n        /* \"#utility.yul\":8597:8629   */\n      slt\n        /* \"#utility.yul\":8594:8713   */\n      iszero\n      tag_332\n      jumpi\n        /* \"#utility.yul\":8632:8711   */\n      tag_333\n      tag_176\n      jump\t// in\n    tag_333:\n        /* \"#utility.yul\":8594:8713   */\n    tag_332:\n        /* \"#utility.yul\":8752:8753   */\n      0x00\n        /* \"#utility.yul\":8777:8830   */\n      tag_334\n        /* \"#utility.yul\":8822:8829   */\n      dup6\n        /* \"#utility.yul\":8813:8819   */\n      dup3\n        /* \"#utility.yul\":8802:8811   */\n      dup7\n        /* \"#utility.yul\":8798:8820   */\n      add\n        /* \"#utility.yul\":8777:8830   */\n      tag_181\n      jump\t// in\n    tag_334:\n        /* \"#utility.yul\":8767:8830   */\n      swap3\n      pop\n        /* \"#utility.yul\":8723:8840   */\n      pop\n        /* \"#utility.yul\":8879:8881   */\n      0x20\n        /* \"#utility.yul\":8905:8958   */\n      tag_335\n        /* \"#utility.yul\":8950:8957   */\n      dup6\n        /* \"#utility.yul\":8941:8947   */\n      dup3\n        /* \"#utility.yul\":8930:8939   */\n      dup7\n        /* \"#utility.yul\":8926:8948   */\n      add\n        /* \"#utility.yul\":8905:8958   */\n      tag_181\n      jump\t// in\n    tag_335:\n        /* \"#utility.yul\":8895:8958   */\n      swap2\n      pop\n        /* \"#utility.yul\":8850:8968   */\n      pop\n        /* \"#utility.yul\":8501:8975   */\n      swap3\n      pop\n      swap3\n      swap1\n      pop\n      jump\t// out\n        /* \"#utility.yul\":8981:9161   */\n    tag_200:\n        /* \"#utility.yul\":9029:9106   */\n      0x4e487b7100000000000000000000000000000000000000000000000000000000\n        /* \"#utility.yul\":9026:9027   */\n      0x00\n        /* \"#utility.yul\":9019:9107   */\n      mstore\n        /* \"#utility.yul\":9126:9130   */\n      0x22\n        /* \"#utility.yul\":9123:9124   */\n      0x04\n        /* \"#utility.yul\":9116:9131   */\n      mstore\n        /* \"#utility.yul\":9150:9154   */\n      0x24\n        /* \"#utility.yul\":9147:9148   */\n      0x00\n        /* \"#utility.yul\":9140:9155   */\n      revert\n        /* \"#utility.yul\":9167:9487   */\n    tag_92:\n        /* \"#utility.yul\":9211:9217   */\n      0x00\n        /* \"#utility.yul\":9248:9249   */\n      0x02\n        /* \"#utility.yul\":9242:9246   */\n      dup3\n        /* \"#utility.yul\":9238:9250   */\n      div\n        /* \"#utility.yul\":9228:9250   */\n      swap1\n      pop\n        /* \"#utility.yul\":9295:9296   */\n      0x01\n        /* \"#utility.yul\":9289:9293   */\n      dup3\n        /* \"#utility.yul\":9285:9297   */\n      and\n        /* \"#utility.yul\":9316:9334   */\n      dup1\n        /* \"#utility.yul\":9306:9387   */\n      tag_338\n      jumpi\n        /* \"#utility.yul\":9372:9376   */\n      0x7f\n        /* \"#utility.yul\":9364:9370   */\n      dup3\n        /* \"#utility.yul\":9360:9377   */\n      and\n        /* \"#utility.yul\":9350:9377   */\n      swap2\n      pop\n        /* \"#utility.yul\":9306:9387   */\n    tag_338:\n        /* \"#utility.yul\":9434:9436   */\n      0x20\n        /* \"#utility.yul\":9426:9432   */\n      dup3\n        /* \"#utility.yul\":9423:9437   */\n      lt\n        /* \"#utility.yul\":9403:9421   */\n      dup2\n        /* \"#utility.yul\":9400:9438   */\n      sub\n        /* \"#utility.yul\":9397:9481   */\n      tag_339\n      jumpi\n        /* \"#utility.yul\":9453:9471   */\n      tag_340\n      tag_200\n      jump\t// in\n    tag_340:\n        /* \"#utility.yul\":9397:9481   */\n    tag_339:\n        /* \"#utility.yul\":9218:9487   */\n      pop\n        /* \"#utility.yul\":9167:9487   */\n      swap2\n      swap1\n      pop\n      jump\t// out\n        /* \"#utility.yul\":9493:9713   */\n    tag_201:\n        /* \"#utility.yul\":9633:9667   */\n      0x45524332303a206275726e2066726f6d20746865207a65726f20616464726573\n        /* \"#utility.yul\":9629:9630   */\n      0x00\n        /* \"#utility.yul\":9621:9627   */\n      dup3\n        /* \"#utility.yul\":9617:9631   */\n      add\n        /* \"#utility.yul\":9610:9668   */\n      mstore\n        /* \"#utility.yul\":9702:9705   */\n      0x7300000000000000000000000000000000000000000000000000000000000000\n        /* \"#utility.yul\":9697:9699   */\n      0x20\n        /* \"#utility.yul\":9689:9695   */\n      dup3\n        /* \"#utility.yul\":9685:9700   */\n      add\n        /* \"#utility.yul\":9678:9706   */\n      mstore\n        /* \"#utility.yul\":9493:9713   */\n      pop\n      jump\t// out\n        /* \"#utility.yul\":9719:10085   */\n    tag_202:\n        /* \"#utility.yul\":9861:9864   */\n      0x00\n        /* \"#utility.yul\":9882:9949   */\n      tag_343\n        /* \"#utility.yul\":9946:9948   */\n      0x21\n        /* \"#utility.yul\":9941:9944   */\n      dup4\n        /* \"#utility.yul\":9882:9949   */\n      tag_171\n      jump\t// in\n    tag_343:\n        /* \"#utility.yul\":9875:9949   */\n      swap2\n      pop\n        /* \"#utility.yul\":9958:10051   */\n      tag_344\n        /* \"#utility.yul\":10047:10050   */\n      dup3\n        /* \"#utility.yul\":9958:10051   */\n      tag_201\n      jump\t// in\n    tag_344:\n        /* \"#utility.yul\":10076:10078   */\n      0x40\n        /* \"#utility.yul\":10071:10074   */\n      dup3\n        /* \"#utility.yul\":10067:10079   */\n      add\n        /* \"#utility.yul\":10060:10079   */\n      swap1\n      pop\n        /* \"#utility.yul\":9719:10085   */\n      swap2\n      swap1\n      pop\n      jump\t// out\n        /* \"#utility.yul\":10091:10510   */\n    tag_118:\n        /* \"#utility.yul\":10257:10261   */\n      0x00\n        /* \"#utility.yul\":10295:10297   */\n      0x20\n        /* \"#utility.yul\":10284:10293   */\n      dup3\n        /* \"#utility.yul\":10280:10298   */\n      add\n        /* \"#utility.yul\":10272:10298   */\n      swap1\n      pop\n        /* \"#utility.yul\":10344:10353   */\n      dup2\n        /* \"#utility.yul\":10338:10342   */\n      dup2\n        /* \"#utility.yul\":10334:10354   */\n      sub\n        /* \"#utility.yul\":10330:10331   */\n      0x00\n        /* \"#utility.yul\":10319:10328   */\n      dup4\n        /* \"#utility.yul\":10315:10332   */\n      add\n        /* \"#utility.yul\":10308:10355   */\n      mstore\n        /* \"#utility.yul\":10372:10503   */\n      tag_346\n        /* \"#utility.yul\":10498:10502   */\n      dup2\n        /* \"#utility.yul\":10372:10503   */\n      tag_202\n      jump\t// in\n    tag_346:\n        /* \"#utility.yul\":10364:10503   */\n      swap1\n      pop\n        /* \"#utility.yul\":10091:10510   */\n      swap2\n      swap1\n      pop\n      jump\t// out\n        /* \"#utility.yul\":10516:10760   */\n    tag_203:\n        /* \"#utility.yul\":10656:10690   */\n      0x4f6e6c7920746865206869676865737420746f6b656e20686f6c646572206361\n        /* \"#utility.yul\":10652:10653   */\n      0x00\n        /* \"#utility.yul\":10644:10650   */\n      dup3\n        /* \"#utility.yul\":10640:10654   */\n      add\n        /* \"#utility.yul\":10633:10691   */\n      mstore\n        /* \"#utility.yul\":10725:10752   */\n      0x6e2070756e69736820616e64206275726e20746f6b656e732e00000000000000\n        /* \"#utility.yul\":10720:10722   */\n      0x20\n        /* \"#utility.yul\":10712:10718   */\n      dup3\n        /* \"#utility.yul\":10708:10723   */\n      add\n        /* \"#utility.yul\":10701:10753   */\n      mstore\n        /* \"#utility.yul\":10516:10760   */\n      pop\n      jump\t// out\n        /* \"#utility.yul\":10766:11132   */\n    tag_204:\n        /* \"#utility.yul\":10908:10911   */\n      0x00\n        /* \"#utility.yul\":10929:10996   */\n      tag_349\n        /* \"#utility.yul\":10993:10995   */\n      0x39\n        /* \"#utility.yul\":10988:10991   */\n      dup4\n        /* \"#utility.yul\":10929:10996   */\n      tag_171\n      jump\t// in\n    tag_349:\n        /* \"#utility.yul\":10922:10996   */\n      swap2\n      pop\n        /* \"#utility.yul\":11005:11098   */\n      tag_350\n        /* \"#utility.yul\":11094:11097   */\n      dup3\n        /* \"#utility.yul\":11005:11098   */\n      tag_203\n      jump\t// in\n    tag_350:\n        /* \"#utility.yul\":11123:11125   */\n      0x40\n        /* \"#utility.yul\":11118:11121   */\n      dup3\n        /* \"#utility.yul\":11114:11126   */\n      add\n        /* \"#utility.yul\":11107:11126   */\n      swap1\n      pop\n        /* \"#utility.yul\":10766:11132   */\n      swap2\n      swap1\n      pop\n      jump\t// out\n        /* \"#utility.yul\":11138:11557   */\n    tag_121:\n        /* \"#utility.yul\":11304:11308   */\n      0x00\n        /* \"#utility.yul\":11342:11344   */\n      0x20\n        /* \"#utility.yul\":11331:11340   */\n      dup3\n        /* \"#utility.yul\":11327:11345   */\n      add\n        /* \"#utility.yul\":11319:11345   */\n      swap1\n      pop\n        /* \"#utility.yul\":11391:11400   */\n      dup2\n        /* \"#utility.yul\":11385:11389   */\n      dup2\n        /* \"#utility.yul\":11381:11401   */\n      sub\n        /* \"#utility.yul\":11377:11378   */\n      0x00\n        /* \"#utility.yul\":11366:11375   */\n      dup4\n        /* \"#utility.yul\":11362:11379   */\n      add\n        /* \"#utility.yul\":11355:11402   */\n      mstore\n        /* \"#utility.yul\":11419:11550   */\n      tag_352\n        /* \"#utility.yul\":11545:11549   */\n      dup2\n        /* \"#utility.yul\":11419:11550   */\n      tag_204\n      jump\t// in\n    tag_352:\n        /* \"#utility.yul\":11411:11550   */\n      swap1\n      pop\n        /* \"#utility.yul\":11138:11557   */\n      swap2\n      swap1\n      pop\n      jump\t// out\n        /* \"#utility.yul\":11563:11740   */\n    tag_205:\n        /* \"#utility.yul\":11703:11732   */\n      0x6275726e20616d6f756e7420657863656564732062616c616e63650000000000\n        /* \"#utility.yul\":11699:11700   */\n      0x00\n        /* \"#utility.yul\":11691:11697   */\n      dup3\n        /* \"#utility.yul\":11687:11701   */\n      add\n        /* \"#utility.yul\":11680:11733   */\n      mstore\n        /* \"#utility.yul\":11563:11740   */\n      pop\n      jump\t// out\n        /* \"#utility.yul\":11746:12112   */\n    tag_206:\n        /* \"#utility.yul\":11888:11891   */\n      0x00\n        /* \"#utility.yul\":11909:11976   */\n      tag_355\n        /* \"#utility.yul\":11973:11975   */\n      0x1b\n        /* \"#utility.yul\":11968:11971   */\n      dup4\n        /* \"#utility.yul\":11909:11976   */\n      tag_171\n      jump\t// in\n    tag_355:\n        /* \"#utility.yul\":11902:11976   */\n      swap2\n      pop\n        /* \"#utility.yul\":11985:12078   */\n      tag_356\n        /* \"#utility.yul\":12074:12077   */\n      dup3\n        /* \"#utility.yul\":11985:12078   */\n      tag_205\n      jump\t// in\n    tag_356:\n        /* \"#utility.yul\":12103:12105   */\n      0x20\n        /* \"#utility.yul\":12098:12101   */\n      dup3\n        /* \"#utility.yul\":12094:12106   */\n      add\n        /* \"#utility.yul\":12087:12106   */\n      swap1\n      pop\n        /* \"#utility.yul\":11746:12112   */\n      swap2\n      swap1\n      pop\n      jump\t// out\n        /* \"#utility.yul\":12118:12537   */\n    tag_124:\n        /* \"#utility.yul\":12284:12288   */\n      0x00\n        /* \"#utility.yul\":12322:12324   */\n      0x20\n        /* \"#utility.yul\":12311:12320   */\n      dup3\n        /* \"#utility.yul\":12307:12325   */\n      add\n        /* \"#utility.yul\":12299:12325   */\n      swap1\n      pop\n        /* \"#utility.yul\":12371:12380   */\n      dup2\n        /* \"#utility.yul\":12365:12369   */\n      dup2\n        /* \"#utility.yul\":12361:12381   */\n      sub\n        /* \"#utility.yul\":12357:12358   */\n      0x00\n        /* \"#utility.yul\":12346:12355   */\n      dup4\n        /* \"#utility.yul\":12342:12359   */\n      add\n        /* \"#utility.yul\":12335:12382   */\n      mstore\n        /* \"#utility.yul\":12399:12530   */\n      tag_358\n        /* \"#utility.yul\":12525:12529   */\n      dup2\n        /* \"#utility.yul\":12399:12530   */\n      tag_206\n      jump\t// in\n    tag_358:\n        /* \"#utility.yul\":12391:12530   */\n      swap1\n      pop\n        /* \"#utility.yul\":12118:12537   */\n      swap2\n      swap1\n      pop\n      jump\t// out\n        /* \"#utility.yul\":12543:12780   */\n    tag_207:\n        /* \"#utility.yul\":12683:12717   */\n      0x4f6e6c7920746865206869676865737420746f6b656e20686f6c646572206361\n        /* \"#utility.yul\":12679:12680   */\n      0x00\n        /* \"#utility.yul\":12671:12677   */\n      dup3\n        /* \"#utility.yul\":12667:12681   */\n      add\n        /* \"#utility.yul\":12660:12718   */\n      mstore\n        /* \"#utility.yul\":12752:12772   */\n      0x6e206d696e74206e657720746f6b656e732e0000000000000000000000000000\n        /* \"#utility.yul\":12747:12749   */\n      0x20\n        /* \"#utility.yul\":12739:12745   */\n      dup3\n        /* \"#utility.yul\":12735:12750   */\n      add\n        /* \"#utility.yul\":12728:12773   */\n      mstore\n        /* \"#utility.yul\":12543:12780   */\n      pop\n      jump\t// out\n        /* \"#utility.yul\":12786:13152   */\n    tag_208:\n        /* \"#utility.yul\":12928:12931   */\n      0x00\n        /* \"#utility.yul\":12949:13016   */\n      tag_361\n        /* \"#utility.yul\":13013:13015   */\n      0x32\n        /* \"#utility.yul\":13008:13011   */\n      dup4\n        /* \"#utility.yul\":12949:13016   */\n      tag_171\n      jump\t// in\n    tag_361:\n        /* \"#utility.yul\":12942:13016   */\n      swap2\n      pop\n        /* \"#utility.yul\":13025:13118   */\n      tag_362\n        /* \"#utility.yul\":13114:13117   */\n      dup3\n        /* \"#utility.yul\":13025:13118   */\n      tag_207\n      jump\t// in\n    tag_362:\n        /* \"#utility.yul\":13143:13145   */\n      0x40\n        /* \"#utility.yul\":13138:13141   */\n      dup3\n        /* \"#utility.yul\":13134:13146   */\n      add\n        /* \"#utility.yul\":13127:13146   */\n      swap1\n      pop\n        /* \"#utility.yul\":12786:13152   */\n      swap2\n      swap1\n      pop\n      jump\t// out\n        /* \"#utility.yul\":13158:13577   */\n    tag_131:\n        /* \"#utility.yul\":13324:13328   */\n      0x00\n        /* \"#utility.yul\":13362:13364   */\n      0x20\n        /* \"#utility.yul\":13351:13360   */\n      dup3\n        /* \"#utility.yul\":13347:13365   */\n      add\n        /* \"#utility.yul\":13339:13365   */\n      swap1\n      pop\n        /* \"#utility.yul\":13411:13420   */\n      dup2\n        /* \"#utility.yul\":13405:13409   */\n      dup2\n        /* \"#utility.yul\":13401:13421   */\n      sub\n        /* \"#utility.yul\":13397:13398   */\n      0x00\n        /* \"#utility.yul\":13386:13395   */\n      dup4\n        /* \"#utility.yul\":13382:13399   */\n      add\n        /* \"#utility.yul\":13375:13422   */\n      mstore\n        /* \"#utility.yul\":13439:13570   */\n      tag_364\n        /* \"#utility.yul\":13565:13569   */\n      dup2\n        /* \"#utility.yul\":13439:13570   */\n      tag_208\n      jump\t// in\n    tag_364:\n        /* \"#utility.yul\":13431:13570   */\n      swap1\n      pop\n        /* \"#utility.yul\":13158:13577   */\n      swap2\n      swap1\n      pop\n      jump\t// out\n        /* \"#utility.yul\":13583:13820   */\n    tag_209:\n        /* \"#utility.yul\":13723:13757   */\n      0x4f6e6c7920746865206869676865737420746f6b656e20686f6c646572206361\n        /* \"#utility.yul\":13719:13720   */\n      0x00\n        /* \"#utility.yul\":13711:13717   */\n      dup3\n        /* \"#utility.yul\":13707:13721   */\n      add\n        /* \"#utility.yul\":13700:13758   */\n      mstore\n        /* \"#utility.yul\":13792:13812   */\n      0x6e206368616e676520746865206e616d652e0000000000000000000000000000\n        /* \"#utility.yul\":13787:13789   */\n      0x20\n        /* \"#utility.yul\":13779:13785   */\n      dup3\n        /* \"#utility.yul\":13775:13790   */\n      add\n        /* \"#utility.yul\":13768:13813   */\n      mstore\n        /* \"#utility.yul\":13583:13820   */\n      pop\n      jump\t// out\n        /* \"#utility.yul\":13826:14192   */\n    tag_210:\n        /* \"#utility.yul\":13968:13971   */\n      0x00\n        /* \"#utility.yul\":13989:14056   */\n      tag_367\n        /* \"#utility.yul\":14053:14055   */\n      0x32\n        /* \"#utility.yul\":14048:14051   */\n      dup4\n        /* \"#utility.yul\":13989:14056   */\n      tag_171\n      jump\t// in\n    tag_367:\n        /* \"#utility.yul\":13982:14056   */\n      swap2\n      pop\n        /* \"#utility.yul\":14065:14158   */\n      tag_368\n        /* \"#utility.yul\":14154:14157   */\n      dup3\n        /* \"#utility.yul\":14065:14158   */\n      tag_209\n      jump\t// in\n    tag_368:\n        /* \"#utility.yul\":14183:14185   */\n      0x40\n        /* \"#utility.yul\":14178:14181   */\n      dup3\n        /* \"#utility.yul\":14174:14186   */\n      add\n        /* \"#utility.yul\":14167:14186   */\n      swap1\n      pop\n        /* \"#utility.yul\":13826:14192   */\n      swap2\n      swap1\n      pop\n      jump\t// out\n        /* \"#utility.yul\":14198:14617   */\n    tag_149:\n        /* \"#utility.yul\":14364:14368   */\n      0x00\n        /* \"#utility.yul\":14402:14404   */\n      0x20\n        /* \"#utility.yul\":14391:14400   */\n      dup3\n        /* \"#utility.yul\":14387:14405   */\n      add\n        /* \"#utility.yul\":14379:14405   */\n      swap1\n      pop\n        /* \"#utility.yul\":14451:14460   */\n      dup2\n        /* \"#utility.yul\":14445:14449   */\n      dup2\n        /* \"#utility.yul\":14441:14461   */\n      sub\n        /* \"#utility.yul\":14437:14438   */\n      0x00\n        /* \"#utility.yul\":14426:14435   */\n      dup4\n        /* \"#utility.yul\":14422:14439   */\n      add\n        /* \"#utility.yul\":14415:14462   */\n      mstore\n        /* \"#utility.yul\":14479:14610   */\n      tag_370\n        /* \"#utility.yul\":14605:14609   */\n      dup2\n        /* \"#utility.yul\":14479:14610   */\n      tag_210\n      jump\t// in\n    tag_370:\n        /* \"#utility.yul\":14471:14610   */\n      swap1\n      pop\n        /* \"#utility.yul\":14198:14617   */\n      swap2\n      swap1\n      pop\n      jump\t// out\n        /* \"#utility.yul\":14623:14764   */\n    tag_211:\n        /* \"#utility.yul\":14672:14676   */\n      0x00\n        /* \"#utility.yul\":14695:14698   */\n      dup2\n        /* \"#utility.yul\":14687:14698   */\n      swap1\n      pop\n        /* \"#utility.yul\":14718:14721   */\n      dup2\n        /* \"#utility.yul\":14715:14716   */\n      0x00\n        /* \"#utility.yul\":14708:14722   */\n      mstore\n        /* \"#utility.yul\":14752:14756   */\n      0x20\n        /* \"#utility.yul\":14749:14750   */\n      0x00\n        /* \"#utility.yul\":14739:14757   */\n      keccak256\n        /* \"#utility.yul\":14731:14757   */\n      swap1\n      pop\n        /* \"#utility.yul\":14623:14764   */\n      swap2\n      swap1\n      pop\n      jump\t// out\n        /* \"#utility.yul\":14770:14863   */\n    tag_212:\n        /* \"#utility.yul\":14807:14813   */\n      0x00\n        /* \"#utility.yul\":14854:14856   */\n      0x20\n        /* \"#utility.yul\":14849:14851   */\n      0x1f\n        /* \"#utility.yul\":14842:14847   */\n      dup4\n        /* \"#utility.yul\":14838:14852   */\n      add\n        /* \"#utility.yul\":14834:14857   */\n      div\n        /* \"#utility.yul\":14824:14857   */\n      swap1\n      pop\n        /* \"#utility.yul\":14770:14863   */\n      swap2\n      swap1\n      pop\n      jump\t// out\n        /* \"#utility.yul\":14869:14976   */\n    tag_213:\n        /* \"#utility.yul\":14913:14921   */\n      0x00\n        /* \"#utility.yul\":14963:14968   */\n      dup3\n        /* \"#utility.yul\":14957:14961   */\n      dup3\n        /* \"#utility.yul\":14953:14969   */\n      shl\n        /* \"#utility.yul\":14932:14969   */\n      swap1\n      pop\n        /* \"#utility.yul\":14869:14976   */\n      swap3\n      swap2\n      pop\n      pop\n      jump\t// out\n        /* \"#utility.yul\":14982:15375   */\n    tag_214:\n        /* \"#utility.yul\":15051:15057   */\n      0x00\n        /* \"#utility.yul\":15101:15102   */\n      0x08\n        /* \"#utility.yul\":15089:15099   */\n      dup4\n        /* \"#utility.yul\":15085:15103   */\n      mul\n        /* \"#utility.yul\":15124:15221   */\n      tag_375\n        /* \"#utility.yul\":15154:15220   */\n      0xffffffffffffffffffffffffffffffffffffffffffffffffffffffffffffffff\n        /* \"#utility.yul\":15143:15152   */\n      dup3\n        /* \"#utility.yul\":15124:15221   */\n      tag_213\n      jump\t// in\n    tag_375:\n        /* \"#utility.yul\":15242:15281   */\n      tag_376\n        /* \"#utility.yul\":15272:15280   */\n      dup7\n        /* \"#utility.yul\":15261:15270   */\n      dup4\n        /* \"#utility.yul\":15242:15281   */\n      tag_213\n      jump\t// in\n    tag_376:\n        /* \"#utility.yul\":15230:15281   */\n      swap6\n      pop\n        /* \"#utility.yul\":15314:15318   */\n      dup1\n        /* \"#utility.yul\":15310:15319   */\n      not\n        /* \"#utility.yul\":15303:15308   */\n      dup5\n        /* \"#utility.yul\":15299:15320   */\n      and\n        /* \"#utility.yul\":15290:15320   */\n      swap4\n      pop\n        /* \"#utility.yul\":15363:15367   */\n      dup1\n        /* \"#utility.yul\":15353:15361   */\n      dup7\n        /* \"#utility.yul\":15349:15368   */\n      and\n        /* \"#utility.yul\":15342:15347   */\n      dup5\n        /* \"#utility.yul\":15339:15369   */\n      or\n        /* \"#utility.yul\":15329:15369   */\n      swap3\n      pop\n        /* \"#utility.yul\":15058:15375   */\n      pop\n      pop\n        /* \"#utility.yul\":14982:15375   */\n      swap4\n      swap3\n      pop\n      pop\n      pop\n      jump\t// out\n        /* \"#utility.yul\":15381:15441   */\n    tag_215:\n        /* \"#utility.yul\":15409:15412   */\n      0x00\n        /* \"#utility.yul\":15430:15435   */\n      dup2\n        /* \"#utility.yul\":15423:15435   */\n      swap1\n      pop\n        /* \"#utility.yul\":15381:15441   */\n      swap2\n      swap1\n      pop\n      jump\t// out\n        /* \"#utility.yul\":15447:15589   */\n    tag_216:\n        /* \"#utility.yul\":15497:15506   */\n      0x00\n        /* \"#utility.yul\":15530:15583   */\n      tag_379\n        /* \"#utility.yul\":15548:15582   */\n      tag_380\n        /* \"#utility.yul\":15557:15581   */\n      tag_381\n        /* \"#utility.yul\":15575:15580   */\n      dup5\n        /* \"#utility.yul\":15557:15581   */\n      tag_182\n      jump\t// in\n    tag_381:\n        /* \"#utility.yul\":15548:15582   */\n      tag_215\n      jump\t// in\n    tag_380:\n        /* \"#utility.yul\":15530:15583   */\n      tag_182\n      jump\t// in\n    tag_379:\n        /* \"#utility.yul\":15517:15583   */\n      swap1\n      pop\n        /* \"#utility.yul\":15447:15589   */\n      swap2\n      swap1\n      pop\n      jump\t// out\n        /* \"#utility.yul\":15595:15670   */\n    tag_217:\n        /* \"#utility.yul\":15638:15641   */\n      0x00\n        /* \"#utility.yul\":15659:15664   */\n      dup2\n        /* \"#utility.yul\":15652:15664   */\n      swap1\n      pop\n        /* \"#utility.yul\":15595:15670   */\n      swap2\n      swap1\n      pop\n      jump\t// out\n        /* \"#utility.yul\":15676:15945   */\n    tag_218:\n        /* \"#utility.yul\":15786:15825   */\n      tag_384\n        /* \"#utility.yul\":15817:15824   */\n      dup4\n        /* \"#utility.yul\":15786:15825   */\n      tag_216\n      jump\t// in\n    tag_384:\n        /* \"#utility.yul\":15847:15938   */\n      tag_385\n        /* \"#utility.yul\":15896:15937   */\n      tag_386\n        /* \"#utility.yul\":15920:15936   */\n      dup3\n        /* \"#utility.yul\":15896:15937   */\n      tag_217\n      jump\t// in\n    tag_386:\n        /* \"#utility.yul\":15888:15894   */\n      dup5\n        /* \"#utility.yul\":15881:15885   */\n      dup5\n        /* \"#utility.yul\":15875:15886   */\n      sload\n        /* \"#utility.yul\":15847:15938   */\n      tag_214\n      jump\t// in\n    tag_385:\n        /* \"#utility.yul\":15841:15845   */\n      dup3\n        /* \"#utility.yul\":15834:15939   */\n      sstore\n        /* \"#utility.yul\":15752:15945   */\n      pop\n        /* \"#utility.yul\":15676:15945   */\n      pop\n      pop\n      pop\n      jump\t// out\n        /* \"#utility.yul\":15951:16024   */\n    tag_219:\n        /* \"#utility.yul\":15996:15999   */\n      0x00\n        /* \"#utility.yul\":15951:16024   */\n      swap1\n      jump\t// out\n        /* \"#utility.yul\":16030:16219   */\n    tag_220:\n        /* \"#utility.yul\":16107:16139   */\n      tag_389\n      tag_219\n      jump\t// in\n    tag_389:\n        /* \"#utility.yul\":16148:16213   */\n      tag_390\n        /* \"#utility.yul\":16206:16212   */\n      dup2\n        /* \"#utility.yul\":16198:16204   */\n      dup5\n        /* \"#utility.yul\":16192:16196   */\n      dup5\n        /* \"#utility.yul\":16148:16213   */\n      tag_218\n      jump\t// in\n    tag_390:\n        /* \"#utility.yul\":16083:16219   */\n      pop\n        /* \"#utility.yul\":16030:16219   */\n      pop\n      pop\n      jump\t// out\n        /* \"#utility.yul\":16225:16411   */\n    tag_221:\n        /* \"#utility.yul\":16285:16405   */\n    tag_392:\n        /* \"#utility.yul\":16302:16305   */\n      dup2\n        /* \"#utility.yul\":16295:16300   */\n      dup2\n        /* \"#utility.yul\":16292:16306   */\n      lt\n        /* \"#utility.yul\":16285:16405   */\n      iszero\n      tag_394\n      jumpi\n        /* \"#utility.yul\":16356:16395   */\n      tag_395\n        /* \"#utility.yul\":16393:16394   */\n      0x00\n        /* \"#utility.yul\":16386:16391   */\n      dup3\n        /* \"#utility.yul\":16356:16395   */\n      tag_220\n      jump\t// in\n    tag_395:\n        /* \"#utility.yul\":16329:16330   */\n      0x01\n        /* \"#utility.yul\":16322:16327   */\n      dup2\n        /* \"#utility.yul\":16318:16331   */\n      add\n        /* \"#utility.yul\":16309:16331   */\n      swap1\n      pop\n        /* \"#utility.yul\":16285:16405   */\n      jump(tag_392)\n    tag_394:\n        /* \"#utility.yul\":16225:16411   */\n      pop\n      pop\n      jump\t// out\n        /* \"#utility.yul\":16417:16960   */\n    tag_222:\n        /* \"#utility.yul\":16518:16520   */\n      0x1f\n        /* \"#utility.yul\":16513:16516   */\n      dup3\n        /* \"#utility.yul\":16510:16521   */\n      gt\n        /* \"#utility.yul\":16507:16953   */\n      iszero\n      tag_397\n      jumpi\n        /* \"#utility.yul\":16552:16590   */\n      tag_398\n        /* \"#utility.yul\":16584:16589   */\n      dup2\n        /* \"#utility.yul\":16552:16590   */\n      tag_211\n      jump\t// in\n    tag_398:\n        /* \"#utility.yul\":16636:16665   */\n      tag_399\n        /* \"#utility.yul\":16654:16664   */\n      dup5\n        /* \"#utility.yul\":16636:16665   */\n      tag_212\n      jump\t// in\n    tag_399:\n        /* \"#utility.yul\":16626:16634   */\n      dup2\n        /* \"#utility.yul\":16622:16666   */\n      add\n        /* \"#utility.yul\":16819:16821   */\n      0x20\n        /* \"#utility.yul\":16807:16817   */\n      dup6\n        /* \"#utility.yul\":16804:16822   */\n      lt\n        /* \"#utility.yul\":16801:16850   */\n      iszero\n      tag_400\n      jumpi\n        /* \"#utility.yul\":16840:16848   */\n      dup2\n        /* \"#utility.yul\":16825:16848   */\n      swap1\n      pop\n        /* \"#utility.yul\":16801:16850   */\n    tag_400:\n        /* \"#utility.yul\":16863:16943   */\n      tag_401\n        /* \"#utility.yul\":16919:16941   */\n      tag_402\n        /* \"#utility.yul\":16937:16940   */\n      dup6\n        /* \"#utility.yul\":16919:16941   */\n      tag_212\n      jump\t// in\n    tag_402:\n        /* \"#utility.yul\":16909:16917   */\n      dup4\n        /* \"#utility.yul\":16905:16942   */\n      add\n        /* \"#utility.yul\":16892:16903   */\n      dup3\n        /* \"#utility.yul\":16863:16943   */\n      tag_221\n      jump\t// in\n    tag_401:\n        /* \"#utility.yul\":16522:16953   */\n      pop\n      pop\n        /* \"#utility.yul\":16507:16953   */\n    tag_397:\n        /* \"#utility.yul\":16417:16960   */\n      pop\n      pop\n      pop\n      jump\t// out\n        /* \"#utility.yul\":16966:17083   */\n    tag_223:\n        /* \"#utility.yul\":17020:17028   */\n      0x00\n        /* \"#utility.yul\":17070:17075   */\n      dup3\n        /* \"#utility.yul\":17064:17068   */\n      dup3\n        /* \"#utility.yul\":17060:17076   */\n      shr\n        /* \"#utility.yul\":17039:17076   */\n      swap1\n      pop\n        /* \"#utility.yul\":16966:17083   */\n      swap3\n      swap2\n      pop\n      pop\n      jump\t// out\n        /* \"#utility.yul\":17089:17258   */\n    tag_224:\n        /* \"#utility.yul\":17133:17139   */\n      0x00\n        /* \"#utility.yul\":17166:17217   */\n      tag_405\n        /* \"#utility.yul\":17214:17215   */\n      0x00\n        /* \"#utility.yul\":17210:17216   */\n      not\n        /* \"#utility.yul\":17202:17207   */\n      dup5\n        /* \"#utility.yul\":17199:17200   */\n      0x08\n        /* \"#utility.yul\":17195:17208   */\n      mul\n        /* \"#utility.yul\":17166:17217   */\n      tag_223\n      jump\t// in\n    tag_405:\n        /* \"#utility.yul\":17162:17218   */\n      not\n        /* \"#utility.yul\":17247:17251   */\n      dup1\n        /* \"#utility.yul\":17241:17245   */\n      dup4\n        /* \"#utility.yul\":17237:17252   */\n      and\n        /* \"#utility.yul\":17227:17252   */\n      swap2\n      pop\n        /* \"#utility.yul\":17140:17258   */\n      pop\n        /* \"#utility.yul\":17089:17258   */\n      swap3\n      swap2\n      pop\n      pop\n      jump\t// out\n        /* \"#utility.yul\":17263:17558   */\n    tag_225:\n        /* \"#utility.yul\":17339:17343   */\n      0x00\n        /* \"#utility.yul\":17485:17514   */\n      tag_407\n        /* \"#utility.yul\":17510:17513   */\n      dup4\n        /* \"#utility.yul\":17504:17508   */\n      dup4\n        /* \"#utility.yul\":17485:17514   */\n      tag_224\n      jump\t// in\n    tag_407:\n        /* \"#utility.yul\":17477:17514   */\n      swap2\n      pop\n        /* \"#utility.yul\":17547:17550   */\n      dup3\n        /* \"#utility.yul\":17544:17545   */\n      0x02\n        /* \"#utility.yul\":17540:17551   */\n      mul\n        /* \"#utility.yul\":17534:17538   */\n      dup3\n        /* \"#utility.yul\":17531:17552   */\n      or\n        /* \"#utility.yul\":17523:17552   */\n      swap1\n      pop\n        /* \"#utility.yul\":17263:17558   */\n      swap3\n      swap2\n      pop\n      pop\n      jump\t// out\n        /* \"#utility.yul\":17563:18958   */\n    tag_151:\n        /* \"#utility.yul\":17680:17717   */\n      tag_409\n        /* \"#utility.yul\":17713:17716   */\n      dup3\n        /* \"#utility.yul\":17680:17717   */\n      tag_170\n      jump\t// in\n    tag_409:\n        /* \"#utility.yul\":17782:17800   */\n      0xffffffffffffffff\n        /* \"#utility.yul\":17774:17780   */\n      dup2\n        /* \"#utility.yul\":17771:17801   */\n      gt\n        /* \"#utility.yul\":17768:17824   */\n      iszero\n      tag_410\n      jumpi\n        /* \"#utility.yul\":17804:17822   */\n      tag_411\n      tag_193\n      jump\t// in\n    tag_411:\n        /* \"#utility.yul\":17768:17824   */\n    tag_410:\n        /* \"#utility.yul\":17848:17886   */\n      tag_412\n        /* \"#utility.yul\":17880:17884   */\n      dup3\n        /* \"#utility.yul\":17874:17885   */\n      sload\n        /* \"#utility.yul\":17848:17886   */\n      tag_92\n      jump\t// in\n    tag_412:\n        /* \"#utility.yul\":17933:18000   */\n      tag_413\n        /* \"#utility.yul\":17993:17999   */\n      dup3\n        /* \"#utility.yul\":17985:17991   */\n      dup3\n        /* \"#utility.yul\":17979:17983   */\n      dup6\n        /* \"#utility.yul\":17933:18000   */\n      tag_222\n      jump\t// in\n    tag_413:\n        /* \"#utility.yul\":18027:18028   */\n      0x00\n        /* \"#utility.yul\":18051:18055   */\n      0x20\n        /* \"#utility.yul\":18038:18055   */\n      swap1\n      pop\n        /* \"#utility.yul\":18083:18085   */\n      0x1f\n        /* \"#utility.yul\":18075:18081   */\n      dup4\n        /* \"#utility.yul\":18072:18086   */\n      gt\n        /* \"#utility.yul\":18100:18101   */\n      0x01\n        /* \"#utility.yul\":18095:18713   */\n      dup2\n      eq\n      tag_415\n      jumpi\n        /* \"#utility.yul\":18757:18758   */\n      0x00\n        /* \"#utility.yul\":18774:18780   */\n      dup5\n        /* \"#utility.yul\":18771:18848   */\n      iszero\n      tag_416\n      jumpi\n        /* \"#utility.yul\":18823:18832   */\n      dup3\n        /* \"#utility.yul\":18818:18821   */\n      dup8\n        /* \"#utility.yul\":18814:18833   */\n      add\n        /* \"#utility.yul\":18808:18834   */\n      mload\n        /* \"#utility.yul\":18799:18834   */\n      swap1\n      pop\n        /* \"#utility.yul\":18771:18848   */\n    tag_416:\n        /* \"#utility.yul\":18874:18941   */\n      tag_417\n        /* \"#utility.yul\":18934:18940   */\n      dup6\n        /* \"#utility.yul\":18927:18932   */\n      dup3\n        /* \"#utility.yul\":18874:18941   */\n      tag_225\n      jump\t// in\n    tag_417:\n        /* \"#utility.yul\":18868:18872   */\n      dup7\n        /* \"#utility.yul\":18861:18942   */\n      sstore\n        /* \"#utility.yul\":18730:18952   */\n      pop\n        /* \"#utility.yul\":18065:18952   */\n      jump(tag_414)\n        /* \"#utility.yul\":18095:18713   */\n    tag_415:\n        /* \"#utility.yul\":18147:18151   */\n      0x1f\n        /* \"#utility.yul\":18143:18152   */\n      not\n        /* \"#utility.yul\":18135:18141   */\n      dup5\n        /* \"#utility.yul\":18131:18153   */\n      and\n        /* \"#utility.yul\":18181:18218   */\n      tag_418\n        /* \"#utility.yul\":18213:18217   */\n      dup7\n        /* \"#utility.yul\":18181:18218   */\n      tag_211\n      jump\t// in\n    tag_418:\n        /* \"#utility.yul\":18240:18241   */\n      0x00\n        /* \"#utility.yul\":18254:18462   */\n    tag_419:\n        /* \"#utility.yul\":18268:18275   */\n      dup3\n        /* \"#utility.yul\":18265:18266   */\n      dup2\n        /* \"#utility.yul\":18262:18276   */\n      lt\n        /* \"#utility.yul\":18254:18462   */\n      iszero\n      tag_421\n      jumpi\n        /* \"#utility.yul\":18347:18356   */\n      dup5\n        /* \"#utility.yul\":18342:18345   */\n      dup10\n        /* \"#utility.yul\":18338:18357   */\n      add\n        /* \"#utility.yul\":18332:18358   */\n      mload\n        /* \"#utility.yul\":18324:18330   */\n      dup3\n        /* \"#utility.yul\":18317:18359   */\n      sstore\n        /* \"#utility.yul\":18398:18399   */\n      0x01\n        /* \"#utility.yul\":18390:18396   */\n      dup3\n        /* \"#utility.yul\":18386:18400   */\n      add\n        /* \"#utility.yul\":18376:18400   */\n      swap2\n      pop\n        /* \"#utility.yul\":18445:18447   */\n      0x20\n        /* \"#utility.yul\":18434:18443   */\n      dup6\n        /* \"#utility.yul\":18430:18448   */\n      add\n        /* \"#utility.yul\":18417:18448   */\n      swap5\n      pop\n        /* \"#utility.yul\":18291:18295   */\n      0x20\n        /* \"#utility.yul\":18288:18289   */\n      dup2\n        /* \"#utility.yul\":18284:18296   */\n      add\n        /* \"#utility.yul\":18279:18296   */\n      swap1\n      pop\n        /* \"#utility.yul\":18254:18462   */\n      jump(tag_419)\n    tag_421:\n        /* \"#utility.yul\":18490:18496   */\n      dup7\n        /* \"#utility.yul\":18481:18488   */\n      dup4\n        /* \"#utility.yul\":18478:18497   */\n      lt\n        /* \"#utility.yul\":18475:18654   */\n      iszero\n      tag_422\n      jumpi\n        /* \"#utility.yul\":18548:18557   */\n      dup5\n        /* \"#utility.yul\":18543:18546   */\n      dup10\n        /* \"#utility.yul\":18539:18558   */\n      add\n        /* \"#utility.yul\":18533:18559   */\n      mload\n        /* \"#utility.yul\":18591:18639   */\n      tag_423\n        /* \"#utility.yul\":18633:18637   */\n      0x1f\n        /* \"#utility.yul\":18625:18631   */\n      dup10\n        /* \"#utility.yul\":18621:18638   */\n      and\n        /* \"#utility.yul\":18610:18619   */\n      dup3\n        /* \"#utility.yul\":18591:18639   */\n      tag_224\n      jump\t// in\n    tag_423:\n        /* \"#utility.yul\":18583:18589   */\n      dup4\n        /* \"#utility.yul\":18576:18640   */\n      sstore\n        /* \"#utility.yul\":18498:18654   */\n      pop\n        /* \"#utility.yul\":18475:18654   */\n    tag_422:\n        /* \"#utility.yul\":18700:18701   */\n      0x01\n        /* \"#utility.yul\":18696:18697   */\n      0x02\n        /* \"#utility.yul\":18688:18694   */\n      dup9\n        /* \"#utility.yul\":18684:18698   */\n      mul\n        /* \"#utility.yul\":18680:18702   */\n      add\n        /* \"#utility.yul\":18674:18678   */\n      dup9\n        /* \"#utility.yul\":18667:18703   */\n      sstore\n        /* \"#utility.yul\":18102:18713   */\n      pop\n      pop\n      pop\n        /* \"#utility.yul\":18065:18952   */\n    tag_414:\n      pop\n        /* \"#utility.yul\":17655:18958   */\n      pop\n      pop\n      pop\n        /* \"#utility.yul\":17563:18958   */\n      pop\n      pop\n      jump\t// out\n        /* \"#utility.yul\":18964:19144   */\n    tag_226:\n        /* \"#utility.yul\":19012:19089   */\n      0x4e487b7100000000000000000000000000000000000000000000000000000000\n        /* \"#utility.yul\":19009:19010   */\n      0x00\n        /* \"#utility.yul\":19002:19090   */\n      mstore\n        /* \"#utility.yul\":19109:19113   */\n      0x11\n        /* \"#utility.yul\":19106:19107   */\n      0x04\n        /* \"#utility.yul\":19099:19114   */\n      mstore\n        /* \"#utility.yul\":19133:19137   */\n      0x24\n        /* \"#utility.yul\":19130:19131   */\n      0x00\n        /* \"#utility.yul\":19123:19138   */\n      revert\n        /* \"#utility.yul\":19150:19344   */\n    tag_155:\n        /* \"#utility.yul\":19190:19194   */\n      0x00\n        /* \"#utility.yul\":19210:19230   */\n      tag_426\n        /* \"#utility.yul\":19228:19229   */\n      dup3\n        /* \"#utility.yul\":19210:19230   */\n      tag_182\n      jump\t// in\n    tag_426:\n        /* \"#utility.yul\":19205:19230   */\n      swap2\n      pop\n        /* \"#utility.yul\":19244:19264   */\n      tag_427\n        /* \"#utility.yul\":19262:19263   */\n      dup4\n        /* \"#utility.yul\":19244:19264   */\n      tag_182\n      jump\t// in\n    tag_427:\n        /* \"#utility.yul\":19239:19264   */\n      swap3\n      pop\n        /* \"#utility.yul\":19288:19289   */\n      dup3\n        /* \"#utility.yul\":19285:19286   */\n      dup3\n        /* \"#utility.yul\":19281:19290   */\n      sub\n        /* \"#utility.yul\":19273:19290   */\n      swap1\n      pop\n        /* \"#utility.yul\":19312:19313   */\n      dup2\n        /* \"#utility.yul\":19306:19310   */\n      dup2\n        /* \"#utility.yul\":19303:19314   */\n      gt\n        /* \"#utility.yul\":19300:19337   */\n      iszero\n      tag_428\n      jumpi\n        /* \"#utility.yul\":19317:19335   */\n      tag_429\n      tag_226\n      jump\t// in\n    tag_429:\n        /* \"#utility.yul\":19300:19337   */\n    tag_428:\n        /* \"#utility.yul\":19150:19344   */\n      swap3\n      swap2\n      pop\n      pop\n      jump\t// out\n        /* \"#utility.yul\":19350:19521   */\n    tag_227:\n        /* \"#utility.yul\":19490:19513   */\n      0x64732d6d6174682d7375622d756e646572666c6f770000000000000000000000\n        /* \"#utility.yul\":19486:19487   */\n      0x00\n        /* \"#utility.yul\":19478:19484   */\n      dup3\n        /* \"#utility.yul\":19474:19488   */\n      add\n        /* \"#utility.yul\":19467:19514   */\n      mstore\n        /* \"#utility.yul\":19350:19521   */\n      pop\n      jump\t// out\n        /* \"#utility.yul\":19527:19893   */\n    tag_228:\n        /* \"#utility.yul\":19669:19672   */\n      0x00\n        /* \"#utility.yul\":19690:19757   */\n      tag_432\n        /* \"#utility.yul\":19754:19756   */\n      0x15\n        /* \"#utility.yul\":19749:19752   */\n      dup4\n        /* \"#utility.yul\":19690:19757   */\n      tag_171\n      jump\t// in\n    tag_432:\n        /* \"#utility.yul\":19683:19757   */\n      swap2\n      pop\n        /* \"#utility.yul\":19766:19859   */\n      tag_433\n        /* \"#utility.yul\":19855:19858   */\n      dup3\n        /* \"#utility.yul\":19766:19859   */\n      tag_227\n      jump\t// in\n    tag_433:\n        /* \"#utility.yul\":19884:19886   */\n      0x20\n        /* \"#utility.yul\":19879:19882   */\n      dup3\n        /* \"#utility.yul\":19875:19887   */\n      add\n        /* \"#utility.yul\":19868:19887   */\n      swap1\n      pop\n        /* \"#utility.yul\":19527:19893   */\n      swap2\n      swap1\n      pop\n      jump\t// out\n        /* \"#utility.yul\":19899:20318   */\n    tag_158:\n        /* \"#utility.yul\":20065:20069   */\n      0x00\n        /* \"#utility.yul\":20103:20105   */\n      0x20\n        /* \"#utility.yul\":20092:20101   */\n      dup3\n        /* \"#utility.yul\":20088:20106   */\n      add\n        /* \"#utility.yul\":20080:20106   */\n      swap1\n      pop\n        /* \"#utility.yul\":20152:20161   */\n      dup2\n        /* \"#utility.yul\":20146:20150   */\n      dup2\n        /* \"#utility.yul\":20142:20162   */\n      sub\n        /* \"#utility.yul\":20138:20139   */\n      0x00\n        /* \"#utility.yul\":20127:20136   */\n      dup4\n        /* \"#utility.yul\":20123:20140   */\n      add\n        /* \"#utility.yul\":20116:20163   */\n      mstore\n        /* \"#utility.yul\":20180:20311   */\n      tag_435\n        /* \"#utility.yul\":20306:20310   */\n      dup2\n        /* \"#utility.yul\":20180:20311   */\n      tag_228\n      jump\t// in\n    tag_435:\n        /* \"#utility.yul\":20172:20311   */\n      swap1\n      pop\n        /* \"#utility.yul\":19899:20318   */\n      swap2\n      swap1\n      pop\n      jump\t// out\n        /* \"#utility.yul\":20324:20515   */\n    tag_166:\n        /* \"#utility.yul\":20364:20367   */\n      0x00\n        /* \"#utility.yul\":20383:20403   */\n      tag_437\n        /* \"#utility.yul\":20401:20402   */\n      dup3\n        /* \"#utility.yul\":20383:20403   */\n      tag_182\n      jump\t// in\n    tag_437:\n        /* \"#utility.yul\":20378:20403   */\n      swap2\n      pop\n        /* \"#utility.yul\":20417:20437   */\n      tag_438\n        /* \"#utility.yul\":20435:20436   */\n      dup4\n        /* \"#utility.yul\":20417:20437   */\n      tag_182\n      jump\t// in\n    tag_438:\n        /* \"#utility.yul\":20412:20437   */\n      swap3\n      pop\n        /* \"#utility.yul\":20460:20461   */\n      dup3\n        /* \"#utility.yul\":20457:20458   */\n      dup3\n        /* \"#utility.yul\":20453:20462   */\n      add\n        /* \"#utility.yul\":20446:20462   */\n      swap1\n      pop\n        /* \"#utility.yul\":20481:20484   */\n      dup1\n        /* \"#utility.yul\":20478:20479   */\n      dup3\n        /* \"#utility.yul\":20475:20485   */\n      gt\n        /* \"#utility.yul\":20472:20508   */\n      iszero\n      tag_439\n      jumpi\n        /* \"#utility.yul\":20488:20506   */\n      tag_440\n      tag_226\n      jump\t// in\n    tag_440:\n        /* \"#utility.yul\":20472:20508   */\n    tag_439:\n        /* \"#utility.yul\":20324:20515   */\n      swap3\n      swap2\n      pop\n      pop\n      jump\t// out\n        /* \"#utility.yul\":20521:20691   */\n    tag_229:\n        /* \"#utility.yul\":20661:20683   */\n      0x64732d6d6174682d6164642d6f766572666c6f77000000000000000000000000\n        /* \"#utility.yul\":20657:20658   */\n      0x00\n        /* \"#utility.yul\":20649:20655   */\n      dup3\n        /* \"#utility.yul\":20645:20659   */\n      add\n        /* \"#utility.yul\":20638:20684   */\n      mstore\n        /* \"#utility.yul\":20521:20691   */\n      pop\n      jump\t// out\n        /* \"#utility.yul\":20697:21063   */\n    tag_230:\n        /* \"#utility.yul\":20839:20842   */\n      0x00\n        /* \"#utility.yul\":20860:20927   */\n      tag_443\n        /* \"#utility.yul\":20924:20926   */\n      0x14\n        /* \"#utility.yul\":20919:20922   */\n      dup4\n        /* \"#utility.yul\":20860:20927   */\n      tag_171\n      jump\t// in\n    tag_443:\n        /* \"#utility.yul\":20853:20927   */\n      swap2\n      pop\n        /* \"#utility.yul\":20936:21029   */\n      tag_444\n        /* \"#utility.yul\":21025:21028   */\n      dup3\n        /* \"#utility.yul\":20936:21029   */\n      tag_229\n      jump\t// in\n    tag_444:\n        /* \"#utility.yul\":21054:21056   */\n      0x20\n        /* \"#utility.yul\":21049:21052   */\n      dup3\n        /* \"#utility.yul\":21045:21057   */\n      add\n        /* \"#utility.yul\":21038:21057   */\n      swap1\n      pop\n        /* \"#utility.yul\":20697:21063   */\n      swap2\n      swap1\n      pop\n      jump\t// out\n        /* \"#utility.yul\":21069:21488   */\n    tag_169:\n        /* \"#utility.yul\":21235:21239   */\n      0x00\n        /* \"#utility.yul\":21273:21275   */\n      0x20\n        /* \"#utility.yul\":21262:21271   */\n      dup3\n        /* \"#utility.yul\":21258:21276   */\n      add\n        /* \"#utility.yul\":21250:21276   */\n      swap1\n      pop\n        /* \"#utility.yul\":21322:21331   */\n      dup2\n        /* \"#utility.yul\":21316:21320   */\n      dup2\n        /* \"#utility.yul\":21312:21332   */\n      sub\n        /* \"#utility.yul\":21308:21309   */\n      0x00\n        /* \"#utility.yul\":21297:21306   */\n      dup4\n        /* \"#utility.yul\":21293:21310   */\n      add\n        /* \"#utility.yul\":21286:21333   */\n      mstore\n        /* \"#utility.yul\":21350:21481   */\n      tag_446\n        /* \"#utility.yul\":21476:21480   */\n      dup2\n        /* \"#utility.yul\":21350:21481   */\n      tag_230\n      jump\t// in\n    tag_446:\n        /* \"#utility.yul\":21342:21481   */\n      swap1\n      pop\n        /* \"#utility.yul\":21069:21488   */\n      swap2\n      swap1\n      pop\n      jump\t// out\n\n    auxdata: 0xa26469706673582212209d90b6a412723e49bdf3157d2fb2576323ce6679c47eded6584c0e27fa2c129764736f6c63430008110033\n}\n",
				"bytecode": {
					"linkReferences": {},
					"object": "60806040526509184e72a0006000556040518060400160405280600c81526020017f426c616e636f20546f6b656e000000000000000000000000000000000000000081525060019081620000549190620003d4565b503480156200006257600080fd5b50600054600360003373ffffffffffffffffffffffffffffffffffffffff1673ffffffffffffffffffffffffffffffffffffffff1681526020019081526020016000208190555033600260006101000a81548173ffffffffffffffffffffffffffffffffffffffff021916908373ffffffffffffffffffffffffffffffffffffffff1602179055503373ffffffffffffffffffffffffffffffffffffffff16600073ffffffffffffffffffffffffffffffffffffffff167fddf252ad1be2c89b69c2b068fc378daa952ba7f163c4a11628f55a4df523b3ef6000546040516200014c9190620004cc565b60405180910390a3620004e9565b600081519050919050565b7f4e487b7100000000000000000000000000000000000000000000000000000000600052604160045260246000fd5b7f4e487b7100000000000000000000000000000000000000000000000000000000600052602260045260246000fd5b60006002820490506001821680620001dc57607f821691505b602082108103620001f257620001f162000194565b5b50919050565b60008190508160005260206000209050919050565b60006020601f8301049050919050565b600082821b905092915050565b6000600883026200025c7fffffffffffffffffffffffffffffffffffffffffffffffffffffffffffffffff826200021d565b6200026886836200021d565b95508019841693508086168417925050509392505050565b6000819050919050565b6000819050919050565b6000620002b5620002af620002a98462000280565b6200028a565b62000280565b9050919050565b6000819050919050565b620002d18362000294565b620002e9620002e082620002bc565b8484546200022a565b825550505050565b600090565b62000300620002f1565b6200030d818484620002c6565b505050565b5b81811015620003355762000329600082620002f6565b60018101905062000313565b5050565b601f82111562000384576200034e81620001f8565b62000359846200020d565b8101602085101562000369578190505b6200038162000378856200020d565b83018262000312565b50505b505050565b600082821c905092915050565b6000620003a96000198460080262000389565b1980831691505092915050565b6000620003c4838362000396565b9150826002028217905092915050565b620003df826200015a565b67ffffffffffffffff811115620003fb57620003fa62000165565b5b620004078254620001c3565b6200041482828562000339565b600060209050601f8311600181146200044c576000841562000437578287015190505b620004438582620003b6565b865550620004b3565b601f1984166200045c86620001f8565b60005b8281101562000486578489015182556001820191506020850194506020810190506200045f565b86831015620004a65784890151620004a2601f89168262000396565b8355505b6001600288020188555050505b505050505050565b620004c68162000280565b82525050565b6000602082019050620004e36000830184620004bb565b92915050565b61246680620004f96000396000f3fe608060405234801561001057600080fd5b50600436106101005760003560e01c806370a0823111610097578063a457c2d711610066578063a457c2d7146102d9578063a9059cbb14610309578063b0018bfc14610339578063dd62ed3e1461036957610100565b806370a082311461022b57806395d89b411461025b5780639dc29fac14610279578063a0712d68146102a957610100565b806323b872dd116100d357806323b872dd1461018f578063313ce567146101bf57806339509351146101dd5780633eaaf86b1461020d57610100565b806306fdde0314610105578063095ea7b31461012357806318160ddd146101535780631e3c51cf14610171575b600080fd5b61010d610399565b60405161011a91906118f9565b60405180910390f35b61013d600480360381019061013891906119c3565b610427565b60405161014a9190611a1e565b60405180910390f35b61015b610551565b6040516101689190611a48565b60405180910390f35b61017961055a565b6040516101869190611a72565b60405180910390f35b6101a960048036038101906101a49190611a8d565b610580565b6040516101b69190611a1e565b60405180910390f35b6101c76107b5565b6040516101d49190611afc565b60405180910390f35b6101f760048036038101906101f291906119c3565b6107ba565b6040516102049190611a1e565b60405180910390f35b6102156109ee565b6040516102229190611a48565b60405180910390f35b61024560048036038101906102409190611b17565b6109f4565b6040516102529190611a48565b60405180910390f35b610263610a3d565b60405161027091906118f9565b60405180910390f35b610293600480360381019061028e91906119c3565b610a76565b6040516102a09190611a1e565b60405180910390f35b6102c360048036038101906102be9190611b44565b610d18565b6040516102d09190611a1e565b60405180910390f35b6102f360048036038101906102ee91906119c3565b610ec9565b6040516103009190611a1e565b60405180910390f35b610323600480360381019061031e91906119c3565b6110fd565b6040516103309190611a1e565b60405180910390f35b610353600480360381019061034e9190611ca6565b611407565b6040516103609190611a1e565b60405180910390f35b610383600480360381019061037e9190611cef565b6114b2565b6040516103909190611a48565b60405180910390f35b600180546103a690611d5e565b80601f01602080910402602001604051908101604052809291908181526020018280546103d290611d5e565b801561041f5780601f106103f45761010080835404028352916020019161041f565b820191906000526020600020905b81548152906001019060200180831161040257829003601f168201915b505050505081565b60008073ffffffffffffffffffffffffffffffffffffffff168373ffffffffffffffffffffffffffffffffffffffff160361046157600080fd5b81600460003373ffffffffffffffffffffffffffffffffffffffff1673ffffffffffffffffffffffffffffffffffffffff16815260200190815260200160002060008573ffffffffffffffffffffffffffffffffffffffff1673ffffffffffffffffffffffffffffffffffffffff168152602001908152602001600020819055508273ffffffffffffffffffffffffffffffffffffffff163373ffffffffffffffffffffffffffffffffffffffff167f8c5be1e5ebec7d5bd14f71427d1e84f3dd0314c0f7b2291e5b200ac8c7c3b9258460405161053f9190611a48565b60405180910390a36001905092915050565b60008054905090565b600260009054906101000a900473ffffffffffffffffffffffffffffffffffffffff1681565b6000600360008573ffffffffffffffffffffffffffffffffffffffff1673ffffffffffffffffffffffffffffffffffffffff168152602001908152602001600020548211156105ce57600080fd5b600460008573ffffffffffffffffffffffffffffffffffffffff1673ffffffffffffffffffffffffffffffffffffffff16815260200190815260200160002060003373ffffffffffffffffffffffffffffffffffffffff1673ffffffffffffffffffffffffffffffffffffffff1681526020019081526020016000205482111561065757600080fd5b600073ffffffffffffffffffffffffffffffffffffffff168373ffffffffffffffffffffffffffffffffffffffff160361069057600080fd5b61071f82600460008773ffffffffffffffffffffffffffffffffffffffff1673ffffffffffffffffffffffffffffffffffffffff16815260200190815260200160002060003373ffffffffffffffffffffffffffffffffffffffff1673ffffffffffffffffffffffffffffffffffffffff1681526020019081526020016000205461153990919063ffffffff16565b600460008673ffffffffffffffffffffffffffffffffffffffff1673ffffffffffffffffffffffffffffffffffffffff16815260200190815260200160002060003373ffffffffffffffffffffffffffffffffffffffff1673ffffffffffffffffffffffffffffffffffffffff168152602001908152602001600020819055506107aa848484611592565b600190509392505050565b600a81565b60008073ffffffffffffffffffffffffffffffffffffffff168373ffffffffffffffffffffffffffffffffffffffff16036107f457600080fd5b61088382600460003373ffffffffffffffffffffffffffffffffffffffff1673ffffffffffffffffffffffffffffffffffffffff16815260200190815260200160002060008673ffffffffffffffffffffffffffffffffffffffff1673ffffffffffffffffffffffffffffffffffffffff1681526020019081526020016000205461181090919063ffffffff16565b600460003373ffffffffffffffffffffffffffffffffffffffff1673ffffffffffffffffffffffffffffffffffffffff16815260200190815260200160002060008573ffffffffffffffffffffffffffffffffffffffff1673ffffffffffffffffffffffffffffffffffffffff168152602001908152602001600020819055508273ffffffffffffffffffffffffffffffffffffffff163373ffffffffffffffffffffffffffffffffffffffff167f8c5be1e5ebec7d5bd14f71427d1e84f3dd0314c0f7b2291e5b200ac8c7c3b925600460003373ffffffffffffffffffffffffffffffffffffffff1673ffffffffffffffffffffffffffffffffffffffff16815260200190815260200160002060008773ffffffffffffffffffffffffffffffffffffffff1673ffffffffffffffffffffffffffffffffffffffff168152602001908152602001600020546040516109dc9190611a48565b60405180910390a36001905092915050565b60005481565b6000600360008373ffffffffffffffffffffffffffffffffffffffff1673ffffffffffffffffffffffffffffffffffffffff168152602001908152602001600020549050919050565b6040518060400160405280600681526020017f426c616e636f000000000000000000000000000000000000000000000000000081525081565b60008073ffffffffffffffffffffffffffffffffffffffff168373ffffffffffffffffffffffffffffffffffffffff1603610ae6576040517f08c379a0000000000000000000000000000000000000000000000000000000008152600401610add90611e01565b60405180910390fd5b600260009054906101000a900473ffffffffffffffffffffffffffffffffffffffff1673ffffffffffffffffffffffffffffffffffffffff163373ffffffffffffffffffffffffffffffffffffffff1614610b76576040517f08c379a0000000000000000000000000000000000000000000000000000000008152600401610b6d90611e93565b60405180910390fd5b600360008473ffffffffffffffffffffffffffffffffffffffff1673ffffffffffffffffffffffffffffffffffffffff16815260200190815260200160002054821115610bf8576040517f08c379a0000000000000000000000000000000000000000000000000000000008152600401610bef90611eff565b60405180910390fd5b610c0d8260005461153990919063ffffffff16565b600081905550610c6582600360008673ffffffffffffffffffffffffffffffffffffffff1673ffffffffffffffffffffffffffffffffffffffff1681526020019081526020016000205461153990919063ffffffff16565b600360008573ffffffffffffffffffffffffffffffffffffffff1673ffffffffffffffffffffffffffffffffffffffff16815260200190815260200160002081905550600073ffffffffffffffffffffffffffffffffffffffff168373ffffffffffffffffffffffffffffffffffffffff167fddf252ad1be2c89b69c2b068fc378daa952ba7f163c4a11628f55a4df523b3ef84604051610d069190611a48565b60405180910390a36001905092915050565b6000600260009054906101000a900473ffffffffffffffffffffffffffffffffffffffff1673ffffffffffffffffffffffffffffffffffffffff163373ffffffffffffffffffffffffffffffffffffffff1614610daa576040517f08c379a0000000000000000000000000000000000000000000000000000000008152600401610da190611f91565b60405180910390fd5b610dbf8260005461181090919063ffffffff16565b600081905550610e1782600360003373ffffffffffffffffffffffffffffffffffffffff1673ffffffffffffffffffffffffffffffffffffffff1681526020019081526020016000205461181090919063ffffffff16565b600360003373ffffffffffffffffffffffffffffffffffffffff1673ffffffffffffffffffffffffffffffffffffffff168152602001908152602001600020819055503373ffffffffffffffffffffffffffffffffffffffff16600073ffffffffffffffffffffffffffffffffffffffff167fddf252ad1be2c89b69c2b068fc378daa952ba7f163c4a11628f55a4df523b3ef84604051610eb89190611a48565b60405180910390a360019050919050565b60008073ffffffffffffffffffffffffffffffffffffffff168373ffffffffffffffffffffffffffffffffffffffff1603610f0357600080fd5b610f9282600460003373ffffffffffffffffffffffffffffffffffffffff1673ffffffffffffffffffffffffffffffffffffffff16815260200190815260200160002060008673ffffffffffffffffffffffffffffffffffffffff1673ffffffffffffffffffffffffffffffffffffffff1681526020019081526020016000205461153990919063ffffffff16565b600460003373ffffffffffffffffffffffffffffffffffffffff1673ffffffffffffffffffffffffffffffffffffffff16815260200190815260200160002060008573ffffffffffffffffffffffffffffffffffffffff1673ffffffffffffffffffffffffffffffffffffffff168152602001908152602001600020819055508273ffffffffffffffffffffffffffffffffffffffff163373ffffffffffffffffffffffffffffffffffffffff167f8c5be1e5ebec7d5bd14f71427d1e84f3dd0314c0f7b2291e5b200ac8c7c3b925600460003373ffffffffffffffffffffffffffffffffffffffff1673ffffffffffffffffffffffffffffffffffffffff16815260200190815260200160002060008773ffffffffffffffffffffffffffffffffffffffff1673ffffffffffffffffffffffffffffffffffffffff168152602001908152602001600020546040516110eb9190611a48565b60405180910390a36001905092915050565b6000600360003373ffffffffffffffffffffffffffffffffffffffff1673ffffffffffffffffffffffffffffffffffffffff1681526020019081526020016000205482111561114b57600080fd5b600073ffffffffffffffffffffffffffffffffffffffff168373ffffffffffffffffffffffffffffffffffffffff160361118457600080fd5b6111d682600360003373ffffffffffffffffffffffffffffffffffffffff1673ffffffffffffffffffffffffffffffffffffffff1681526020019081526020016000205461153990919063ffffffff16565b600360003373ffffffffffffffffffffffffffffffffffffffff1673ffffffffffffffffffffffffffffffffffffffff1681526020019081526020016000208190555061126b82600360008673ffffffffffffffffffffffffffffffffffffffff1673ffffffffffffffffffffffffffffffffffffffff1681526020019081526020016000205461181090919063ffffffff16565b600360008573ffffffffffffffffffffffffffffffffffffffff1673ffffffffffffffffffffffffffffffffffffffff1681526020019081526020016000208190555060036000600260009054906101000a900473ffffffffffffffffffffffffffffffffffffffff1673ffffffffffffffffffffffffffffffffffffffff1673ffffffffffffffffffffffffffffffffffffffff16815260200190815260200160002054600360008573ffffffffffffffffffffffffffffffffffffffff1673ffffffffffffffffffffffffffffffffffffffff1681526020019081526020016000205411156113985782600260006101000a81548173ffffffffffffffffffffffffffffffffffffffff021916908373ffffffffffffffffffffffffffffffffffffffff1602179055505b8273ffffffffffffffffffffffffffffffffffffffff163373ffffffffffffffffffffffffffffffffffffffff167fddf252ad1be2c89b69c2b068fc378daa952ba7f163c4a11628f55a4df523b3ef846040516113f59190611a48565b60405180910390a36001905092915050565b6000600260009054906101000a900473ffffffffffffffffffffffffffffffffffffffff1673ffffffffffffffffffffffffffffffffffffffff163373ffffffffffffffffffffffffffffffffffffffff1614611499576040517f08c379a000000000000000000000000000000000000000000000000000000000815260040161149090612023565b60405180910390fd5b81600190816114a891906121ef565b5060019050919050565b6000600460008473ffffffffffffffffffffffffffffffffffffffff1673ffffffffffffffffffffffffffffffffffffffff16815260200190815260200160002060008373ffffffffffffffffffffffffffffffffffffffff1673ffffffffffffffffffffffffffffffffffffffff16815260200190815260200160002054905092915050565b600082828461154891906122f0565b915081111561158c576040517f08c379a000000000000000000000000000000000000000000000000000000000815260040161158390612370565b60405180910390fd5b92915050565b6115e481600360008673ffffffffffffffffffffffffffffffffffffffff1673ffffffffffffffffffffffffffffffffffffffff1681526020019081526020016000205461153990919063ffffffff16565b600360008573ffffffffffffffffffffffffffffffffffffffff1673ffffffffffffffffffffffffffffffffffffffff1681526020019081526020016000208190555061167981600360008573ffffffffffffffffffffffffffffffffffffffff1673ffffffffffffffffffffffffffffffffffffffff1681526020019081526020016000205461181090919063ffffffff16565b600360008473ffffffffffffffffffffffffffffffffffffffff1673ffffffffffffffffffffffffffffffffffffffff1681526020019081526020016000208190555060036000600260009054906101000a900473ffffffffffffffffffffffffffffffffffffffff1673ffffffffffffffffffffffffffffffffffffffff1673ffffffffffffffffffffffffffffffffffffffff16815260200190815260200160002054600360008473ffffffffffffffffffffffffffffffffffffffff1673ffffffffffffffffffffffffffffffffffffffff1681526020019081526020016000205411156117a65781600260006101000a81548173ffffffffffffffffffffffffffffffffffffffff021916908373ffffffffffffffffffffffffffffffffffffffff1602179055505b8173ffffffffffffffffffffffffffffffffffffffff168373ffffffffffffffffffffffffffffffffffffffff167fddf252ad1be2c89b69c2b068fc378daa952ba7f163c4a11628f55a4df523b3ef836040516118039190611a48565b60405180910390a3505050565b600082828461181f9190612390565b9150811015611863576040517f08c379a000000000000000000000000000000000000000000000000000000000815260040161185a90612410565b60405180910390fd5b92915050565b600081519050919050565b600082825260208201905092915050565b60005b838110156118a3578082015181840152602081019050611888565b60008484015250505050565b6000601f19601f8301169050919050565b60006118cb82611869565b6118d58185611874565b93506118e5818560208601611885565b6118ee816118af565b840191505092915050565b6000602082019050818103600083015261191381846118c0565b905092915050565b6000604051905090565b600080fd5b600080fd5b600073ffffffffffffffffffffffffffffffffffffffff82169050919050565b600061195a8261192f565b9050919050565b61196a8161194f565b811461197557600080fd5b50565b60008135905061198781611961565b92915050565b6000819050919050565b6119a08161198d565b81146119ab57600080fd5b50565b6000813590506119bd81611997565b92915050565b600080604083850312156119da576119d9611925565b5b60006119e885828601611978565b92505060206119f9858286016119ae565b9150509250929050565b60008115159050919050565b611a1881611a03565b82525050565b6000602082019050611a336000830184611a0f565b92915050565b611a428161198d565b82525050565b6000602082019050611a5d6000830184611a39565b92915050565b611a6c8161194f565b82525050565b6000602082019050611a876000830184611a63565b92915050565b600080600060608486031215611aa657611aa5611925565b5b6000611ab486828701611978565b9350506020611ac586828701611978565b9250506040611ad6868287016119ae565b9150509250925092565b600060ff82169050919050565b611af681611ae0565b82525050565b6000602082019050611b116000830184611aed565b92915050565b600060208284031215611b2d57611b2c611925565b5b6000611b3b84828501611978565b91505092915050565b600060208284031215611b5a57611b59611925565b5b6000611b68848285016119ae565b91505092915050565b600080fd5b600080fd5b7f4e487b7100000000000000000000000000000000000000000000000000000000600052604160045260246000fd5b611bb3826118af565b810181811067ffffffffffffffff82111715611bd257611bd1611b7b565b5b80604052505050565b6000611be561191b565b9050611bf18282611baa565b919050565b600067ffffffffffffffff821115611c1157611c10611b7b565b5b611c1a826118af565b9050602081019050919050565b82818337600083830152505050565b6000611c49611c4484611bf6565b611bdb565b905082815260208101848484011115611c6557611c64611b76565b5b611c70848285611c27565b509392505050565b600082601f830112611c8d57611c8c611b71565b5b8135611c9d848260208601611c36565b91505092915050565b600060208284031215611cbc57611cbb611925565b5b600082013567ffffffffffffffff811115611cda57611cd961192a565b5b611ce684828501611c78565b91505092915050565b60008060408385031215611d0657611d05611925565b5b6000611d1485828601611978565b9250506020611d2585828601611978565b9150509250929050565b7f4e487b7100000000000000000000000000000000000000000000000000000000600052602260045260246000fd5b60006002820490506001821680611d7657607f821691505b602082108103611d8957611d88611d2f565b5b50919050565b7f45524332303a206275726e2066726f6d20746865207a65726f2061646472657360008201527f7300000000000000000000000000000000000000000000000000000000000000602082015250565b6000611deb602183611874565b9150611df682611d8f565b604082019050919050565b60006020820190508181036000830152611e1a81611dde565b9050919050565b7f4f6e6c7920746865206869676865737420746f6b656e20686f6c64657220636160008201527f6e2070756e69736820616e64206275726e20746f6b656e732e00000000000000602082015250565b6000611e7d603983611874565b9150611e8882611e21565b604082019050919050565b60006020820190508181036000830152611eac81611e70565b9050919050565b7f6275726e20616d6f756e7420657863656564732062616c616e63650000000000600082015250565b6000611ee9601b83611874565b9150611ef482611eb3565b602082019050919050565b60006020820190508181036000830152611f1881611edc565b9050919050565b7f4f6e6c7920746865206869676865737420746f6b656e20686f6c64657220636160008201527f6e206d696e74206e657720746f6b656e732e0000000000000000000000000000602082015250565b6000611f7b603283611874565b9150611f8682611f1f565b604082019050919050565b60006020820190508181036000830152611faa81611f6e565b9050919050565b7f4f6e6c7920746865206869676865737420746f6b656e20686f6c64657220636160008201527f6e206368616e676520746865206e616d652e0000000000000000000000000000602082015250565b600061200d603283611874565b915061201882611fb1565b604082019050919050565b6000602082019050818103600083015261203c81612000565b9050919050565b60008190508160005260206000209050919050565b60006020601f8301049050919050565b600082821b905092915050565b6000600883026120a57fffffffffffffffffffffffffffffffffffffffffffffffffffffffffffffffff82612068565b6120af8683612068565b95508019841693508086168417925050509392505050565b6000819050919050565b60006120ec6120e76120e28461198d565b6120c7565b61198d565b9050919050565b6000819050919050565b612106836120d1565b61211a612112826120f3565b848454612075565b825550505050565b600090565b61212f612122565b61213a8184846120fd565b505050565b5b8181101561215e57612153600082612127565b600181019050612140565b5050565b601f8211156121a35761217481612043565b61217d84612058565b8101602085101561218c578190505b6121a061219885612058565b83018261213f565b50505b505050565b600082821c905092915050565b60006121c6600019846008026121a8565b1980831691505092915050565b60006121df83836121b5565b9150826002028217905092915050565b6121f882611869565b67ffffffffffffffff81111561221157612210611b7b565b5b61221b8254611d5e565b612226828285612162565b600060209050601f8311600181146122595760008415612247578287015190505b61225185826121d3565b8655506122b9565b601f19841661226786612043565b60005b8281101561228f5784890151825560018201915060208501945060208101905061226a565b868310156122ac57848901516122a8601f8916826121b5565b8355505b6001600288020188555050505b505050505050565b7f4e487b7100000000000000000000000000000000000000000000000000000000600052601160045260246000fd5b60006122fb8261198d565b91506123068361198d565b925082820390508181111561231e5761231d6122c1565b5b92915050565b7f64732d6d6174682d7375622d756e646572666c6f770000000000000000000000600082015250565b600061235a601583611874565b915061236582612324565b602082019050919050565b600060208201905081810360008301526123898161234d565b9050919050565b600061239b8261198d565b91506123a68361198d565b92508282019050808211156123be576123bd6122c1565b5b92915050565b7f64732d6d6174682d6164642d6f766572666c6f77000000000000000000000000600082015250565b60006123fa601483611874565b9150612405826123c4565b602082019050919050565b60006020820190508181036000830152612429816123ed565b905091905056fea26469706673582212209d90b6a412723e49bdf3157d2fb2576323ce6679c47eded6584c0e27fa2c129764736f6c63430008110033",
					"opcodes": "PUSH1 0x80 PUSH1 0x40 MSTORE PUSH6 0x9184E72A000 PUSH1 0x0 SSTORE PUSH1 0x40 MLOAD DUP1 PUSH1 0x40 ADD PUSH1 0x40 MSTORE DUP1 PUSH1 0xC DUP2 MSTORE PUSH1 0x20 ADD PUSH32 0x426C616E636F20546F6B656E0000000000000000000000000000000000000000 DUP2 MSTORE POP PUSH1 0x1 SWAP1 DUP2 PUSH3 0x54 SWAP2 SWAP1 PUSH3 0x3D4 JUMP JUMPDEST POP CALLVALUE DUP1 ISZERO PUSH3 0x62 JUMPI PUSH1 0x0 DUP1 REVERT JUMPDEST POP PUSH1 0x0 SLOAD PUSH1 0x3 PUSH1 0x0 CALLER PUSH20 0xFFFFFFFFFFFFFFFFFFFFFFFFFFFFFFFFFFFFFFFF AND PUSH20 0xFFFFFFFFFFFFFFFFFFFFFFFFFFFFFFFFFFFFFFFF AND DUP2 MSTORE PUSH1 0x20 ADD SWAP1 DUP2 MSTORE PUSH1 0x20 ADD PUSH1 0x0 KECCAK256 DUP2 SWAP1 SSTORE POP CALLER PUSH1 0x2 PUSH1 0x0 PUSH2 0x100 EXP DUP2 SLOAD DUP2 PUSH20 0xFFFFFFFFFFFFFFFFFFFFFFFFFFFFFFFFFFFFFFFF MUL NOT AND SWAP1 DUP4 PUSH20 0xFFFFFFFFFFFFFFFFFFFFFFFFFFFFFFFFFFFFFFFF AND MUL OR SWAP1 SSTORE POP CALLER PUSH20 0xFFFFFFFFFFFFFFFFFFFFFFFFFFFFFFFFFFFFFFFF AND PUSH1 0x0 PUSH20 0xFFFFFFFFFFFFFFFFFFFFFFFFFFFFFFFFFFFFFFFF AND PUSH32 0xDDF252AD1BE2C89B69C2B068FC378DAA952BA7F163C4A11628F55A4DF523B3EF PUSH1 0x0 SLOAD PUSH1 0x40 MLOAD PUSH3 0x14C SWAP2 SWAP1 PUSH3 0x4CC JUMP JUMPDEST PUSH1 0x40 MLOAD DUP1 SWAP2 SUB SWAP1 LOG3 PUSH3 0x4E9 JUMP JUMPDEST PUSH1 0x0 DUP2 MLOAD SWAP1 POP SWAP2 SWAP1 POP JUMP JUMPDEST PUSH32 0x4E487B7100000000000000000000000000000000000000000000000000000000 PUSH1 0x0 MSTORE PUSH1 0x41 PUSH1 0x4 MSTORE PUSH1 0x24 PUSH1 0x0 REVERT JUMPDEST PUSH32 0x4E487B7100000000000000000000000000000000000000000000000000000000 PUSH1 0x0 MSTORE PUSH1 0x22 PUSH1 0x4 MSTORE PUSH1 0x24 PUSH1 0x0 REVERT JUMPDEST PUSH1 0x0 PUSH1 0x2 DUP3 DIV SWAP1 POP PUSH1 0x1 DUP3 AND DUP1 PUSH3 0x1DC JUMPI PUSH1 0x7F DUP3 AND SWAP2 POP JUMPDEST PUSH1 0x20 DUP3 LT DUP2 SUB PUSH3 0x1F2 JUMPI PUSH3 0x1F1 PUSH3 0x194 JUMP JUMPDEST JUMPDEST POP SWAP2 SWAP1 POP JUMP JUMPDEST PUSH1 0x0 DUP2 SWAP1 POP DUP2 PUSH1 0x0 MSTORE PUSH1 0x20 PUSH1 0x0 KECCAK256 SWAP1 POP SWAP2 SWAP1 POP JUMP JUMPDEST PUSH1 0x0 PUSH1 0x20 PUSH1 0x1F DUP4 ADD DIV SWAP1 POP SWAP2 SWAP1 POP JUMP JUMPDEST PUSH1 0x0 DUP3 DUP3 SHL SWAP1 POP SWAP3 SWAP2 POP POP JUMP JUMPDEST PUSH1 0x0 PUSH1 0x8 DUP4 MUL PUSH3 0x25C PUSH32 0xFFFFFFFFFFFFFFFFFFFFFFFFFFFFFFFFFFFFFFFFFFFFFFFFFFFFFFFFFFFFFFFF DUP3 PUSH3 0x21D JUMP JUMPDEST PUSH3 0x268 DUP7 DUP4 PUSH3 0x21D JUMP JUMPDEST SWAP6 POP DUP1 NOT DUP5 AND SWAP4 POP DUP1 DUP7 AND DUP5 OR SWAP3 POP POP POP SWAP4 SWAP3 POP POP POP JUMP JUMPDEST PUSH1 0x0 DUP2 SWAP1 POP SWAP2 SWAP1 POP JUMP JUMPDEST PUSH1 0x0 DUP2 SWAP1 POP SWAP2 SWAP1 POP JUMP JUMPDEST PUSH1 0x0 PUSH3 0x2B5 PUSH3 0x2AF PUSH3 0x2A9 DUP5 PUSH3 0x280 JUMP JUMPDEST PUSH3 0x28A JUMP JUMPDEST PUSH3 0x280 JUMP JUMPDEST SWAP1 POP SWAP2 SWAP1 POP JUMP JUMPDEST PUSH1 0x0 DUP2 SWAP1 POP SWAP2 SWAP1 POP JUMP JUMPDEST PUSH3 0x2D1 DUP4 PUSH3 0x294 JUMP JUMPDEST PUSH3 0x2E9 PUSH3 0x2E0 DUP3 PUSH3 0x2BC JUMP JUMPDEST DUP5 DUP5 SLOAD PUSH3 0x22A JUMP JUMPDEST DUP3 SSTORE POP POP POP POP JUMP JUMPDEST PUSH1 0x0 SWAP1 JUMP JUMPDEST PUSH3 0x300 PUSH3 0x2F1 JUMP JUMPDEST PUSH3 0x30D DUP2 DUP5 DUP5 PUSH3 0x2C6 JUMP JUMPDEST POP POP POP JUMP JUMPDEST JUMPDEST DUP2 DUP2 LT ISZERO PUSH3 0x335 JUMPI PUSH3 0x329 PUSH1 0x0 DUP3 PUSH3 0x2F6 JUMP JUMPDEST PUSH1 0x1 DUP2 ADD SWAP1 POP PUSH3 0x313 JUMP JUMPDEST POP POP JUMP JUMPDEST PUSH1 0x1F DUP3 GT ISZERO PUSH3 0x384 JUMPI PUSH3 0x34E DUP2 PUSH3 0x1F8 JUMP JUMPDEST PUSH3 0x359 DUP5 PUSH3 0x20D JUMP JUMPDEST DUP2 ADD PUSH1 0x20 DUP6 LT ISZERO PUSH3 0x369 JUMPI DUP2 SWAP1 POP JUMPDEST PUSH3 0x381 PUSH3 0x378 DUP6 PUSH3 0x20D JUMP JUMPDEST DUP4 ADD DUP3 PUSH3 0x312 JUMP JUMPDEST POP POP JUMPDEST POP POP POP JUMP JUMPDEST PUSH1 0x0 DUP3 DUP3 SHR SWAP1 POP SWAP3 SWAP2 POP POP JUMP JUMPDEST PUSH1 0x0 PUSH3 0x3A9 PUSH1 0x0 NOT DUP5 PUSH1 0x8 MUL PUSH3 0x389 JUMP JUMPDEST NOT DUP1 DUP4 AND SWAP2 POP POP SWAP3 SWAP2 POP POP JUMP JUMPDEST PUSH1 0x0 PUSH3 0x3C4 DUP4 DUP4 PUSH3 0x396 JUMP JUMPDEST SWAP2 POP DUP3 PUSH1 0x2 MUL DUP3 OR SWAP1 POP SWAP3 SWAP2 POP POP JUMP JUMPDEST PUSH3 0x3DF DUP3 PUSH3 0x15A JUMP JUMPDEST PUSH8 0xFFFFFFFFFFFFFFFF DUP2 GT ISZERO PUSH3 0x3FB JUMPI PUSH3 0x3FA PUSH3 0x165 JUMP JUMPDEST JUMPDEST PUSH3 0x407 DUP3 SLOAD PUSH3 0x1C3 JUMP JUMPDEST PUSH3 0x414 DUP3 DUP3 DUP6 PUSH3 0x339 JUMP JUMPDEST PUSH1 0x0 PUSH1 0x20 SWAP1 POP PUSH1 0x1F DUP4 GT PUSH1 0x1 DUP2 EQ PUSH3 0x44C JUMPI PUSH1 0x0 DUP5 ISZERO PUSH3 0x437 JUMPI DUP3 DUP8 ADD MLOAD SWAP1 POP JUMPDEST PUSH3 0x443 DUP6 DUP3 PUSH3 0x3B6 JUMP JUMPDEST DUP7 SSTORE POP PUSH3 0x4B3 JUMP JUMPDEST PUSH1 0x1F NOT DUP5 AND PUSH3 0x45C DUP7 PUSH3 0x1F8 JUMP JUMPDEST PUSH1 0x0 JUMPDEST DUP3 DUP2 LT ISZERO PUSH3 0x486 JUMPI DUP5 DUP10 ADD MLOAD DUP3 SSTORE PUSH1 0x1 DUP3 ADD SWAP2 POP PUSH1 0x20 DUP6 ADD SWAP5 POP PUSH1 0x20 DUP2 ADD SWAP1 POP PUSH3 0x45F JUMP JUMPDEST DUP7 DUP4 LT ISZERO PUSH3 0x4A6 JUMPI DUP5 DUP10 ADD MLOAD PUSH3 0x4A2 PUSH1 0x1F DUP10 AND DUP3 PUSH3 0x396 JUMP JUMPDEST DUP4 SSTORE POP JUMPDEST PUSH1 0x1 PUSH1 0x2 DUP9 MUL ADD DUP9 SSTORE POP POP POP JUMPDEST POP POP POP POP POP POP JUMP JUMPDEST PUSH3 0x4C6 DUP2 PUSH3 0x280 JUMP JUMPDEST DUP3 MSTORE POP POP JUMP JUMPDEST PUSH1 0x0 PUSH1 0x20 DUP3 ADD SWAP1 POP PUSH3 0x4E3 PUSH1 0x0 DUP4 ADD DUP5 PUSH3 0x4BB JUMP JUMPDEST SWAP3 SWAP2 POP POP JUMP JUMPDEST PUSH2 0x2466 DUP1 PUSH3 0x4F9 PUSH1 0x0 CODECOPY PUSH1 0x0 RETURN INVALID PUSH1 0x80 PUSH1 0x40 MSTORE CALLVALUE DUP1 ISZERO PUSH2 0x10 JUMPI PUSH1 0x0 DUP1 REVERT JUMPDEST POP PUSH1 0x4 CALLDATASIZE LT PUSH2 0x100 JUMPI PUSH1 0x0 CALLDATALOAD PUSH1 0xE0 SHR DUP1 PUSH4 0x70A08231 GT PUSH2 0x97 JUMPI DUP1 PUSH4 0xA457C2D7 GT PUSH2 0x66 JUMPI DUP1 PUSH4 0xA457C2D7 EQ PUSH2 0x2D9 JUMPI DUP1 PUSH4 0xA9059CBB EQ PUSH2 0x309 JUMPI DUP1 PUSH4 0xB0018BFC EQ PUSH2 0x339 JUMPI DUP1 PUSH4 0xDD62ED3E EQ PUSH2 0x369 JUMPI PUSH2 0x100 JUMP JUMPDEST DUP1 PUSH4 0x70A08231 EQ PUSH2 0x22B JUMPI DUP1 PUSH4 0x95D89B41 EQ PUSH2 0x25B JUMPI DUP1 PUSH4 0x9DC29FAC EQ PUSH2 0x279 JUMPI DUP1 PUSH4 0xA0712D68 EQ PUSH2 0x2A9 JUMPI PUSH2 0x100 JUMP JUMPDEST DUP1 PUSH4 0x23B872DD GT PUSH2 0xD3 JUMPI DUP1 PUSH4 0x23B872DD EQ PUSH2 0x18F JUMPI DUP1 PUSH4 0x313CE567 EQ PUSH2 0x1BF JUMPI DUP1 PUSH4 0x39509351 EQ PUSH2 0x1DD JUMPI DUP1 PUSH4 0x3EAAF86B EQ PUSH2 0x20D JUMPI PUSH2 0x100 JUMP JUMPDEST DUP1 PUSH4 0x6FDDE03 EQ PUSH2 0x105 JUMPI DUP1 PUSH4 0x95EA7B3 EQ PUSH2 0x123 JUMPI DUP1 PUSH4 0x18160DDD EQ PUSH2 0x153 JUMPI DUP1 PUSH4 0x1E3C51CF EQ PUSH2 0x171 JUMPI JUMPDEST PUSH1 0x0 DUP1 REVERT JUMPDEST PUSH2 0x10D PUSH2 0x399 JUMP JUMPDEST PUSH1 0x40 MLOAD PUSH2 0x11A SWAP2 SWAP1 PUSH2 0x18F9 JUMP JUMPDEST PUSH1 0x40 MLOAD DUP1 SWAP2 SUB SWAP1 RETURN JUMPDEST PUSH2 0x13D PUSH1 0x4 DUP1 CALLDATASIZE SUB DUP2 ADD SWAP1 PUSH2 0x138 SWAP2 SWAP1 PUSH2 0x19C3 JUMP JUMPDEST PUSH2 0x427 JUMP JUMPDEST PUSH1 0x40 MLOAD PUSH2 0x14A SWAP2 SWAP1 PUSH2 0x1A1E JUMP JUMPDEST PUSH1 0x40 MLOAD DUP1 SWAP2 SUB SWAP1 RETURN JUMPDEST PUSH2 0x15B PUSH2 0x551 JUMP JUMPDEST PUSH1 0x40 MLOAD PUSH2 0x168 SWAP2 SWAP1 PUSH2 0x1A48 JUMP JUMPDEST PUSH1 0x40 MLOAD DUP1 SWAP2 SUB SWAP1 RETURN JUMPDEST PUSH2 0x179 PUSH2 0x55A JUMP JUMPDEST PUSH1 0x40 MLOAD PUSH2 0x186 SWAP2 SWAP1 PUSH2 0x1A72 JUMP JUMPDEST PUSH1 0x40 MLOAD DUP1 SWAP2 SUB SWAP1 RETURN JUMPDEST PUSH2 0x1A9 PUSH1 0x4 DUP1 CALLDATASIZE SUB DUP2 ADD SWAP1 PUSH2 0x1A4 SWAP2 SWAP1 PUSH2 0x1A8D JUMP JUMPDEST PUSH2 0x580 JUMP JUMPDEST PUSH1 0x40 MLOAD PUSH2 0x1B6 SWAP2 SWAP1 PUSH2 0x1A1E JUMP JUMPDEST PUSH1 0x40 MLOAD DUP1 SWAP2 SUB SWAP1 RETURN JUMPDEST PUSH2 0x1C7 PUSH2 0x7B5 JUMP JUMPDEST PUSH1 0x40 MLOAD PUSH2 0x1D4 SWAP2 SWAP1 PUSH2 0x1AFC JUMP JUMPDEST PUSH1 0x40 MLOAD DUP1 SWAP2 SUB SWAP1 RETURN JUMPDEST PUSH2 0x1F7 PUSH1 0x4 DUP1 CALLDATASIZE SUB DUP2 ADD SWAP1 PUSH2 0x1F2 SWAP2 SWAP1 PUSH2 0x19C3 JUMP JUMPDEST PUSH2 0x7BA JUMP JUMPDEST PUSH1 0x40 MLOAD PUSH2 0x204 SWAP2 SWAP1 PUSH2 0x1A1E JUMP JUMPDEST PUSH1 0x40 MLOAD DUP1 SWAP2 SUB SWAP1 RETURN JUMPDEST PUSH2 0x215 PUSH2 0x9EE JUMP JUMPDEST PUSH1 0x40 MLOAD PUSH2 0x222 SWAP2 SWAP1 PUSH2 0x1A48 JUMP JUMPDEST PUSH1 0x40 MLOAD DUP1 SWAP2 SUB SWAP1 RETURN JUMPDEST PUSH2 0x245 PUSH1 0x4 DUP1 CALLDATASIZE SUB DUP2 ADD SWAP1 PUSH2 0x240 SWAP2 SWAP1 PUSH2 0x1B17 JUMP JUMPDEST PUSH2 0x9F4 JUMP JUMPDEST PUSH1 0x40 MLOAD PUSH2 0x252 SWAP2 SWAP1 PUSH2 0x1A48 JUMP JUMPDEST PUSH1 0x40 MLOAD DUP1 SWAP2 SUB SWAP1 RETURN JUMPDEST PUSH2 0x263 PUSH2 0xA3D JUMP JUMPDEST PUSH1 0x40 MLOAD PUSH2 0x270 SWAP2 SWAP1 PUSH2 0x18F9 JUMP JUMPDEST PUSH1 0x40 MLOAD DUP1 SWAP2 SUB SWAP1 RETURN JUMPDEST PUSH2 0x293 PUSH1 0x4 DUP1 CALLDATASIZE SUB DUP2 ADD SWAP1 PUSH2 0x28E SWAP2 SWAP1 PUSH2 0x19C3 JUMP JUMPDEST PUSH2 0xA76 JUMP JUMPDEST PUSH1 0x40 MLOAD PUSH2 0x2A0 SWAP2 SWAP1 PUSH2 0x1A1E JUMP JUMPDEST PUSH1 0x40 MLOAD DUP1 SWAP2 SUB SWAP1 RETURN JUMPDEST PUSH2 0x2C3 PUSH1 0x4 DUP1 CALLDATASIZE SUB DUP2 ADD SWAP1 PUSH2 0x2BE SWAP2 SWAP1 PUSH2 0x1B44 JUMP JUMPDEST PUSH2 0xD18 JUMP JUMPDEST PUSH1 0x40 MLOAD PUSH2 0x2D0 SWAP2 SWAP1 PUSH2 0x1A1E JUMP JUMPDEST PUSH1 0x40 MLOAD DUP1 SWAP2 SUB SWAP1 RETURN JUMPDEST PUSH2 0x2F3 PUSH1 0x4 DUP1 CALLDATASIZE SUB DUP2 ADD SWAP1 PUSH2 0x2EE SWAP2 SWAP1 PUSH2 0x19C3 JUMP JUMPDEST PUSH2 0xEC9 JUMP JUMPDEST PUSH1 0x40 MLOAD PUSH2 0x300 SWAP2 SWAP1 PUSH2 0x1A1E JUMP JUMPDEST PUSH1 0x40 MLOAD DUP1 SWAP2 SUB SWAP1 RETURN JUMPDEST PUSH2 0x323 PUSH1 0x4 DUP1 CALLDATASIZE SUB DUP2 ADD SWAP1 PUSH2 0x31E SWAP2 SWAP1 PUSH2 0x19C3 JUMP JUMPDEST PUSH2 0x10FD JUMP JUMPDEST PUSH1 0x40 MLOAD PUSH2 0x330 SWAP2 SWAP1 PUSH2 0x1A1E JUMP JUMPDEST PUSH1 0x40 MLOAD DUP1 SWAP2 SUB SWAP1 RETURN JUMPDEST PUSH2 0x353 PUSH1 0x4 DUP1 CALLDATASIZE SUB DUP2 ADD SWAP1 PUSH2 0x34E SWAP2 SWAP1 PUSH2 0x1CA6 JUMP JUMPDEST PUSH2 0x1407 JUMP JUMPDEST PUSH1 0x40 MLOAD PUSH2 0x360 SWAP2 SWAP1 PUSH2 0x1A1E JUMP JUMPDEST PUSH1 0x40 MLOAD DUP1 SWAP2 SUB SWAP1 RETURN JUMPDEST PUSH2 0x383 PUSH1 0x4 DUP1 CALLDATASIZE SUB DUP2 ADD SWAP1 PUSH2 0x37E SWAP2 SWAP1 PUSH2 0x1CEF JUMP JUMPDEST PUSH2 0x14B2 JUMP JUMPDEST PUSH1 0x40 MLOAD PUSH2 0x390 SWAP2 SWAP1 PUSH2 0x1A48 JUMP JUMPDEST PUSH1 0x40 MLOAD DUP1 SWAP2 SUB SWAP1 RETURN JUMPDEST PUSH1 0x1 DUP1 SLOAD PUSH2 0x3A6 SWAP1 PUSH2 0x1D5E JUMP JUMPDEST DUP1 PUSH1 0x1F ADD PUSH1 0x20 DUP1 SWAP2 DIV MUL PUSH1 0x20 ADD PUSH1 0x40 MLOAD SWAP1 DUP2 ADD PUSH1 0x40 MSTORE DUP1 SWAP3 SWAP2 SWAP1 DUP2 DUP2 MSTORE PUSH1 0x20 ADD DUP3 DUP1 SLOAD PUSH2 0x3D2 SWAP1 PUSH2 0x1D5E JUMP JUMPDEST DUP1 ISZERO PUSH2 0x41F JUMPI DUP1 PUSH1 0x1F LT PUSH2 0x3F4 JUMPI PUSH2 0x100 DUP1 DUP4 SLOAD DIV MUL DUP4 MSTORE SWAP2 PUSH1 0x20 ADD SWAP2 PUSH2 0x41F JUMP JUMPDEST DUP3 ADD SWAP2 SWAP1 PUSH1 0x0 MSTORE PUSH1 0x20 PUSH1 0x0 KECCAK256 SWAP1 JUMPDEST DUP2 SLOAD DUP2 MSTORE SWAP1 PUSH1 0x1 ADD SWAP1 PUSH1 0x20 ADD DUP1 DUP4 GT PUSH2 0x402 JUMPI DUP3 SWAP1 SUB PUSH1 0x1F AND DUP3 ADD SWAP2 JUMPDEST POP POP POP POP POP DUP2 JUMP JUMPDEST PUSH1 0x0 DUP1 PUSH20 0xFFFFFFFFFFFFFFFFFFFFFFFFFFFFFFFFFFFFFFFF AND DUP4 PUSH20 0xFFFFFFFFFFFFFFFFFFFFFFFFFFFFFFFFFFFFFFFF AND SUB PUSH2 0x461 JUMPI PUSH1 0x0 DUP1 REVERT JUMPDEST DUP2 PUSH1 0x4 PUSH1 0x0 CALLER PUSH20 0xFFFFFFFFFFFFFFFFFFFFFFFFFFFFFFFFFFFFFFFF AND PUSH20 0xFFFFFFFFFFFFFFFFFFFFFFFFFFFFFFFFFFFFFFFF AND DUP2 MSTORE PUSH1 0x20 ADD SWAP1 DUP2 MSTORE PUSH1 0x20 ADD PUSH1 0x0 KECCAK256 PUSH1 0x0 DUP6 PUSH20 0xFFFFFFFFFFFFFFFFFFFFFFFFFFFFFFFFFFFFFFFF AND PUSH20 0xFFFFFFFFFFFFFFFFFFFFFFFFFFFFFFFFFFFFFFFF AND DUP2 MSTORE PUSH1 0x20 ADD SWAP1 DUP2 MSTORE PUSH1 0x20 ADD PUSH1 0x0 KECCAK256 DUP2 SWAP1 SSTORE POP DUP3 PUSH20 0xFFFFFFFFFFFFFFFFFFFFFFFFFFFFFFFFFFFFFFFF AND CALLER PUSH20 0xFFFFFFFFFFFFFFFFFFFFFFFFFFFFFFFFFFFFFFFF AND PUSH32 0x8C5BE1E5EBEC7D5BD14F71427D1E84F3DD0314C0F7B2291E5B200AC8C7C3B925 DUP5 PUSH1 0x40 MLOAD PUSH2 0x53F SWAP2 SWAP1 PUSH2 0x1A48 JUMP JUMPDEST PUSH1 0x40 MLOAD DUP1 SWAP2 SUB SWAP1 LOG3 PUSH1 0x1 SWAP1 POP SWAP3 SWAP2 POP POP JUMP JUMPDEST PUSH1 0x0 DUP1 SLOAD SWAP1 POP SWAP1 JUMP JUMPDEST PUSH1 0x2 PUSH1 0x0 SWAP1 SLOAD SWAP1 PUSH2 0x100 EXP SWAP1 DIV PUSH20 0xFFFFFFFFFFFFFFFFFFFFFFFFFFFFFFFFFFFFFFFF AND DUP2 JUMP JUMPDEST PUSH1 0x0 PUSH1 0x3 PUSH1 0x0 DUP6 PUSH20 0xFFFFFFFFFFFFFFFFFFFFFFFFFFFFFFFFFFFFFFFF AND PUSH20 0xFFFFFFFFFFFFFFFFFFFFFFFFFFFFFFFFFFFFFFFF AND DUP2 MSTORE PUSH1 0x20 ADD SWAP1 DUP2 MSTORE PUSH1 0x20 ADD PUSH1 0x0 KECCAK256 SLOAD DUP3 GT ISZERO PUSH2 0x5CE JUMPI PUSH1 0x0 DUP1 REVERT JUMPDEST PUSH1 0x4 PUSH1 0x0 DUP6 PUSH20 0xFFFFFFFFFFFFFFFFFFFFFFFFFFFFFFFFFFFFFFFF AND PUSH20 0xFFFFFFFFFFFFFFFFFFFFFFFFFFFFFFFFFFFFFFFF AND DUP2 MSTORE PUSH1 0x20 ADD SWAP1 DUP2 MSTORE PUSH1 0x20 ADD PUSH1 0x0 KECCAK256 PUSH1 0x0 CALLER PUSH20 0xFFFFFFFFFFFFFFFFFFFFFFFFFFFFFFFFFFFFFFFF AND PUSH20 0xFFFFFFFFFFFFFFFFFFFFFFFFFFFFFFFFFFFFFFFF AND DUP2 MSTORE PUSH1 0x20 ADD SWAP1 DUP2 MSTORE PUSH1 0x20 ADD PUSH1 0x0 KECCAK256 SLOAD DUP3 GT ISZERO PUSH2 0x657 JUMPI PUSH1 0x0 DUP1 REVERT JUMPDEST PUSH1 0x0 PUSH20 0xFFFFFFFFFFFFFFFFFFFFFFFFFFFFFFFFFFFFFFFF AND DUP4 PUSH20 0xFFFFFFFFFFFFFFFFFFFFFFFFFFFFFFFFFFFFFFFF AND SUB PUSH2 0x690 JUMPI PUSH1 0x0 DUP1 REVERT JUMPDEST PUSH2 0x71F DUP3 PUSH1 0x4 PUSH1 0x0 DUP8 PUSH20 0xFFFFFFFFFFFFFFFFFFFFFFFFFFFFFFFFFFFFFFFF AND PUSH20 0xFFFFFFFFFFFFFFFFFFFFFFFFFFFFFFFFFFFFFFFF AND DUP2 MSTORE PUSH1 0x20 ADD SWAP1 DUP2 MSTORE PUSH1 0x20 ADD PUSH1 0x0 KECCAK256 PUSH1 0x0 CALLER PUSH20 0xFFFFFFFFFFFFFFFFFFFFFFFFFFFFFFFFFFFFFFFF AND PUSH20 0xFFFFFFFFFFFFFFFFFFFFFFFFFFFFFFFFFFFFFFFF AND DUP2 MSTORE PUSH1 0x20 ADD SWAP1 DUP2 MSTORE PUSH1 0x20 ADD PUSH1 0x0 KECCAK256 SLOAD PUSH2 0x1539 SWAP1 SWAP2 SWAP1 PUSH4 0xFFFFFFFF AND JUMP JUMPDEST PUSH1 0x4 PUSH1 0x0 DUP7 PUSH20 0xFFFFFFFFFFFFFFFFFFFFFFFFFFFFFFFFFFFFFFFF AND PUSH20 0xFFFFFFFFFFFFFFFFFFFFFFFFFFFFFFFFFFFFFFFF AND DUP2 MSTORE PUSH1 0x20 ADD SWAP1 DUP2 MSTORE PUSH1 0x20 ADD PUSH1 0x0 KECCAK256 PUSH1 0x0 CALLER PUSH20 0xFFFFFFFFFFFFFFFFFFFFFFFFFFFFFFFFFFFFFFFF AND PUSH20 0xFFFFFFFFFFFFFFFFFFFFFFFFFFFFFFFFFFFFFFFF AND DUP2 MSTORE PUSH1 0x20 ADD SWAP1 DUP2 MSTORE PUSH1 0x20 ADD PUSH1 0x0 KECCAK256 DUP2 SWAP1 SSTORE POP PUSH2 0x7AA DUP5 DUP5 DUP5 PUSH2 0x1592 JUMP JUMPDEST PUSH1 0x1 SWAP1 POP SWAP4 SWAP3 POP POP POP JUMP JUMPDEST PUSH1 0xA DUP2 JUMP JUMPDEST PUSH1 0x0 DUP1 PUSH20 0xFFFFFFFFFFFFFFFFFFFFFFFFFFFFFFFFFFFFFFFF AND DUP4 PUSH20 0xFFFFFFFFFFFFFFFFFFFFFFFFFFFFFFFFFFFFFFFF AND SUB PUSH2 0x7F4 JUMPI PUSH1 0x0 DUP1 REVERT JUMPDEST PUSH2 0x883 DUP3 PUSH1 0x4 PUSH1 0x0 CALLER PUSH20 0xFFFFFFFFFFFFFFFFFFFFFFFFFFFFFFFFFFFFFFFF AND PUSH20 0xFFFFFFFFFFFFFFFFFFFFFFFFFFFFFFFFFFFFFFFF AND DUP2 MSTORE PUSH1 0x20 ADD SWAP1 DUP2 MSTORE PUSH1 0x20 ADD PUSH1 0x0 KECCAK256 PUSH1 0x0 DUP7 PUSH20 0xFFFFFFFFFFFFFFFFFFFFFFFFFFFFFFFFFFFFFFFF AND PUSH20 0xFFFFFFFFFFFFFFFFFFFFFFFFFFFFFFFFFFFFFFFF AND DUP2 MSTORE PUSH1 0x20 ADD SWAP1 DUP2 MSTORE PUSH1 0x20 ADD PUSH1 0x0 KECCAK256 SLOAD PUSH2 0x1810 SWAP1 SWAP2 SWAP1 PUSH4 0xFFFFFFFF AND JUMP JUMPDEST PUSH1 0x4 PUSH1 0x0 CALLER PUSH20 0xFFFFFFFFFFFFFFFFFFFFFFFFFFFFFFFFFFFFFFFF AND PUSH20 0xFFFFFFFFFFFFFFFFFFFFFFFFFFFFFFFFFFFFFFFF AND DUP2 MSTORE PUSH1 0x20 ADD SWAP1 DUP2 MSTORE PUSH1 0x20 ADD PUSH1 0x0 KECCAK256 PUSH1 0x0 DUP6 PUSH20 0xFFFFFFFFFFFFFFFFFFFFFFFFFFFFFFFFFFFFFFFF AND PUSH20 0xFFFFFFFFFFFFFFFFFFFFFFFFFFFFFFFFFFFFFFFF AND DUP2 MSTORE PUSH1 0x20 ADD SWAP1 DUP2 MSTORE PUSH1 0x20 ADD PUSH1 0x0 KECCAK256 DUP2 SWAP1 SSTORE POP DUP3 PUSH20 0xFFFFFFFFFFFFFFFFFFFFFFFFFFFFFFFFFFFFFFFF AND CALLER PUSH20 0xFFFFFFFFFFFFFFFFFFFFFFFFFFFFFFFFFFFFFFFF AND PUSH32 0x8C5BE1E5EBEC7D5BD14F71427D1E84F3DD0314C0F7B2291E5B200AC8C7C3B925 PUSH1 0x4 PUSH1 0x0 CALLER PUSH20 0xFFFFFFFFFFFFFFFFFFFFFFFFFFFFFFFFFFFFFFFF AND PUSH20 0xFFFFFFFFFFFFFFFFFFFFFFFFFFFFFFFFFFFFFFFF AND DUP2 MSTORE PUSH1 0x20 ADD SWAP1 DUP2 MSTORE PUSH1 0x20 ADD PUSH1 0x0 KECCAK256 PUSH1 0x0 DUP8 PUSH20 0xFFFFFFFFFFFFFFFFFFFFFFFFFFFFFFFFFFFFFFFF AND PUSH20 0xFFFFFFFFFFFFFFFFFFFFFFFFFFFFFFFFFFFFFFFF AND DUP2 MSTORE PUSH1 0x20 ADD SWAP1 DUP2 MSTORE PUSH1 0x20 ADD PUSH1 0x0 KECCAK256 SLOAD PUSH1 0x40 MLOAD PUSH2 0x9DC SWAP2 SWAP1 PUSH2 0x1A48 JUMP JUMPDEST PUSH1 0x40 MLOAD DUP1 SWAP2 SUB SWAP1 LOG3 PUSH1 0x1 SWAP1 POP SWAP3 SWAP2 POP POP JUMP JUMPDEST PUSH1 0x0 SLOAD DUP2 JUMP JUMPDEST PUSH1 0x0 PUSH1 0x3 PUSH1 0x0 DUP4 PUSH20 0xFFFFFFFFFFFFFFFFFFFFFFFFFFFFFFFFFFFFFFFF AND PUSH20 0xFFFFFFFFFFFFFFFFFFFFFFFFFFFFFFFFFFFFFFFF AND DUP2 MSTORE PUSH1 0x20 ADD SWAP1 DUP2 MSTORE PUSH1 0x20 ADD PUSH1 0x0 KECCAK256 SLOAD SWAP1 POP SWAP2 SWAP1 POP JUMP JUMPDEST PUSH1 0x40 MLOAD DUP1 PUSH1 0x40 ADD PUSH1 0x40 MSTORE DUP1 PUSH1 0x6 DUP2 MSTORE PUSH1 0x20 ADD PUSH32 0x426C616E636F0000000000000000000000000000000000000000000000000000 DUP2 MSTORE POP DUP2 JUMP JUMPDEST PUSH1 0x0 DUP1 PUSH20 0xFFFFFFFFFFFFFFFFFFFFFFFFFFFFFFFFFFFFFFFF AND DUP4 PUSH20 0xFFFFFFFFFFFFFFFFFFFFFFFFFFFFFFFFFFFFFFFF AND SUB PUSH2 0xAE6 JUMPI PUSH1 0x40 MLOAD PUSH32 0x8C379A000000000000000000000000000000000000000000000000000000000 DUP2 MSTORE PUSH1 0x4 ADD PUSH2 0xADD SWAP1 PUSH2 0x1E01 JUMP JUMPDEST PUSH1 0x40 MLOAD DUP1 SWAP2 SUB SWAP1 REVERT JUMPDEST PUSH1 0x2 PUSH1 0x0 SWAP1 SLOAD SWAP1 PUSH2 0x100 EXP SWAP1 DIV PUSH20 0xFFFFFFFFFFFFFFFFFFFFFFFFFFFFFFFFFFFFFFFF AND PUSH20 0xFFFFFFFFFFFFFFFFFFFFFFFFFFFFFFFFFFFFFFFF AND CALLER PUSH20 0xFFFFFFFFFFFFFFFFFFFFFFFFFFFFFFFFFFFFFFFF AND EQ PUSH2 0xB76 JUMPI PUSH1 0x40 MLOAD PUSH32 0x8C379A000000000000000000000000000000000000000000000000000000000 DUP2 MSTORE PUSH1 0x4 ADD PUSH2 0xB6D SWAP1 PUSH2 0x1E93 JUMP JUMPDEST PUSH1 0x40 MLOAD DUP1 SWAP2 SUB SWAP1 REVERT JUMPDEST PUSH1 0x3 PUSH1 0x0 DUP5 PUSH20 0xFFFFFFFFFFFFFFFFFFFFFFFFFFFFFFFFFFFFFFFF AND PUSH20 0xFFFFFFFFFFFFFFFFFFFFFFFFFFFFFFFFFFFFFFFF AND DUP2 MSTORE PUSH1 0x20 ADD SWAP1 DUP2 MSTORE PUSH1 0x20 ADD PUSH1 0x0 KECCAK256 SLOAD DUP3 GT ISZERO PUSH2 0xBF8 JUMPI PUSH1 0x40 MLOAD PUSH32 0x8C379A000000000000000000000000000000000000000000000000000000000 DUP2 MSTORE PUSH1 0x4 ADD PUSH2 0xBEF SWAP1 PUSH2 0x1EFF JUMP JUMPDEST PUSH1 0x40 MLOAD DUP1 SWAP2 SUB SWAP1 REVERT JUMPDEST PUSH2 0xC0D DUP3 PUSH1 0x0 SLOAD PUSH2 0x1539 SWAP1 SWAP2 SWAP1 PUSH4 0xFFFFFFFF AND JUMP JUMPDEST PUSH1 0x0 DUP2 SWAP1 SSTORE POP PUSH2 0xC65 DUP3 PUSH1 0x3 PUSH1 0x0 DUP7 PUSH20 0xFFFFFFFFFFFFFFFFFFFFFFFFFFFFFFFFFFFFFFFF AND PUSH20 0xFFFFFFFFFFFFFFFFFFFFFFFFFFFFFFFFFFFFFFFF AND DUP2 MSTORE PUSH1 0x20 ADD SWAP1 DUP2 MSTORE PUSH1 0x20 ADD PUSH1 0x0 KECCAK256 SLOAD PUSH2 0x1539 SWAP1 SWAP2 SWAP1 PUSH4 0xFFFFFFFF AND JUMP JUMPDEST PUSH1 0x3 PUSH1 0x0 DUP6 PUSH20 0xFFFFFFFFFFFFFFFFFFFFFFFFFFFFFFFFFFFFFFFF AND PUSH20 0xFFFFFFFFFFFFFFFFFFFFFFFFFFFFFFFFFFFFFFFF AND DUP2 MSTORE PUSH1 0x20 ADD SWAP1 DUP2 MSTORE PUSH1 0x20 ADD PUSH1 0x0 KECCAK256 DUP2 SWAP1 SSTORE POP PUSH1 0x0 PUSH20 0xFFFFFFFFFFFFFFFFFFFFFFFFFFFFFFFFFFFFFFFF AND DUP4 PUSH20 0xFFFFFFFFFFFFFFFFFFFFFFFFFFFFFFFFFFFFFFFF AND PUSH32 0xDDF252AD1BE2C89B69C2B068FC378DAA952BA7F163C4A11628F55A4DF523B3EF DUP5 PUSH1 0x40 MLOAD PUSH2 0xD06 SWAP2 SWAP1 PUSH2 0x1A48 JUMP JUMPDEST PUSH1 0x40 MLOAD DUP1 SWAP2 SUB SWAP1 LOG3 PUSH1 0x1 SWAP1 POP SWAP3 SWAP2 POP POP JUMP JUMPDEST PUSH1 0x0 PUSH1 0x2 PUSH1 0x0 SWAP1 SLOAD SWAP1 PUSH2 0x100 EXP SWAP1 DIV PUSH20 0xFFFFFFFFFFFFFFFFFFFFFFFFFFFFFFFFFFFFFFFF AND PUSH20 0xFFFFFFFFFFFFFFFFFFFFFFFFFFFFFFFFFFFFFFFF AND CALLER PUSH20 0xFFFFFFFFFFFFFFFFFFFFFFFFFFFFFFFFFFFFFFFF AND EQ PUSH2 0xDAA JUMPI PUSH1 0x40 MLOAD PUSH32 0x8C379A000000000000000000000000000000000000000000000000000000000 DUP2 MSTORE PUSH1 0x4 ADD PUSH2 0xDA1 SWAP1 PUSH2 0x1F91 JUMP JUMPDEST PUSH1 0x40 MLOAD DUP1 SWAP2 SUB SWAP1 REVERT JUMPDEST PUSH2 0xDBF DUP3 PUSH1 0x0 SLOAD PUSH2 0x1810 SWAP1 SWAP2 SWAP1 PUSH4 0xFFFFFFFF AND JUMP JUMPDEST PUSH1 0x0 DUP2 SWAP1 SSTORE POP PUSH2 0xE17 DUP3 PUSH1 0x3 PUSH1 0x0 CALLER PUSH20 0xFFFFFFFFFFFFFFFFFFFFFFFFFFFFFFFFFFFFFFFF AND PUSH20 0xFFFFFFFFFFFFFFFFFFFFFFFFFFFFFFFFFFFFFFFF AND DUP2 MSTORE PUSH1 0x20 ADD SWAP1 DUP2 MSTORE PUSH1 0x20 ADD PUSH1 0x0 KECCAK256 SLOAD PUSH2 0x1810 SWAP1 SWAP2 SWAP1 PUSH4 0xFFFFFFFF AND JUMP JUMPDEST PUSH1 0x3 PUSH1 0x0 CALLER PUSH20 0xFFFFFFFFFFFFFFFFFFFFFFFFFFFFFFFFFFFFFFFF AND PUSH20 0xFFFFFFFFFFFFFFFFFFFFFFFFFFFFFFFFFFFFFFFF AND DUP2 MSTORE PUSH1 0x20 ADD SWAP1 DUP2 MSTORE PUSH1 0x20 ADD PUSH1 0x0 KECCAK256 DUP2 SWAP1 SSTORE POP CALLER PUSH20 0xFFFFFFFFFFFFFFFFFFFFFFFFFFFFFFFFFFFFFFFF AND PUSH1 0x0 PUSH20 0xFFFFFFFFFFFFFFFFFFFFFFFFFFFFFFFFFFFFFFFF AND PUSH32 0xDDF252AD1BE2C89B69C2B068FC378DAA952BA7F163C4A11628F55A4DF523B3EF DUP5 PUSH1 0x40 MLOAD PUSH2 0xEB8 SWAP2 SWAP1 PUSH2 0x1A48 JUMP JUMPDEST PUSH1 0x40 MLOAD DUP1 SWAP2 SUB SWAP1 LOG3 PUSH1 0x1 SWAP1 POP SWAP2 SWAP1 POP JUMP JUMPDEST PUSH1 0x0 DUP1 PUSH20 0xFFFFFFFFFFFFFFFFFFFFFFFFFFFFFFFFFFFFFFFF AND DUP4 PUSH20 0xFFFFFFFFFFFFFFFFFFFFFFFFFFFFFFFFFFFFFFFF AND SUB PUSH2 0xF03 JUMPI PUSH1 0x0 DUP1 REVERT JUMPDEST PUSH2 0xF92 DUP3 PUSH1 0x4 PUSH1 0x0 CALLER PUSH20 0xFFFFFFFFFFFFFFFFFFFFFFFFFFFFFFFFFFFFFFFF AND PUSH20 0xFFFFFFFFFFFFFFFFFFFFFFFFFFFFFFFFFFFFFFFF AND DUP2 MSTORE PUSH1 0x20 ADD SWAP1 DUP2 MSTORE PUSH1 0x20 ADD PUSH1 0x0 KECCAK256 PUSH1 0x0 DUP7 PUSH20 0xFFFFFFFFFFFFFFFFFFFFFFFFFFFFFFFFFFFFFFFF AND PUSH20 0xFFFFFFFFFFFFFFFFFFFFFFFFFFFFFFFFFFFFFFFF AND DUP2 MSTORE PUSH1 0x20 ADD SWAP1 DUP2 MSTORE PUSH1 0x20 ADD PUSH1 0x0 KECCAK256 SLOAD PUSH2 0x1539 SWAP1 SWAP2 SWAP1 PUSH4 0xFFFFFFFF AND JUMP JUMPDEST PUSH1 0x4 PUSH1 0x0 CALLER PUSH20 0xFFFFFFFFFFFFFFFFFFFFFFFFFFFFFFFFFFFFFFFF AND PUSH20 0xFFFFFFFFFFFFFFFFFFFFFFFFFFFFFFFFFFFFFFFF AND DUP2 MSTORE PUSH1 0x20 ADD SWAP1 DUP2 MSTORE PUSH1 0x20 ADD PUSH1 0x0 KECCAK256 PUSH1 0x0 DUP6 PUSH20 0xFFFFFFFFFFFFFFFFFFFFFFFFFFFFFFFFFFFFFFFF AND PUSH20 0xFFFFFFFFFFFFFFFFFFFFFFFFFFFFFFFFFFFFFFFF AND DUP2 MSTORE PUSH1 0x20 ADD SWAP1 DUP2 MSTORE PUSH1 0x20 ADD PUSH1 0x0 KECCAK256 DUP2 SWAP1 SSTORE POP DUP3 PUSH20 0xFFFFFFFFFFFFFFFFFFFFFFFFFFFFFFFFFFFFFFFF AND CALLER PUSH20 0xFFFFFFFFFFFFFFFFFFFFFFFFFFFFFFFFFFFFFFFF AND PUSH32 0x8C5BE1E5EBEC7D5BD14F71427D1E84F3DD0314C0F7B2291E5B200AC8C7C3B925 PUSH1 0x4 PUSH1 0x0 CALLER PUSH20 0xFFFFFFFFFFFFFFFFFFFFFFFFFFFFFFFFFFFFFFFF AND PUSH20 0xFFFFFFFFFFFFFFFFFFFFFFFFFFFFFFFFFFFFFFFF AND DUP2 MSTORE PUSH1 0x20 ADD SWAP1 DUP2 MSTORE PUSH1 0x20 ADD PUSH1 0x0 KECCAK256 PUSH1 0x0 DUP8 PUSH20 0xFFFFFFFFFFFFFFFFFFFFFFFFFFFFFFFFFFFFFFFF AND PUSH20 0xFFFFFFFFFFFFFFFFFFFFFFFFFFFFFFFFFFFFFFFF AND DUP2 MSTORE PUSH1 0x20 ADD SWAP1 DUP2 MSTORE PUSH1 0x20 ADD PUSH1 0x0 KECCAK256 SLOAD PUSH1 0x40 MLOAD PUSH2 0x10EB SWAP2 SWAP1 PUSH2 0x1A48 JUMP JUMPDEST PUSH1 0x40 MLOAD DUP1 SWAP2 SUB SWAP1 LOG3 PUSH1 0x1 SWAP1 POP SWAP3 SWAP2 POP POP JUMP JUMPDEST PUSH1 0x0 PUSH1 0x3 PUSH1 0x0 CALLER PUSH20 0xFFFFFFFFFFFFFFFFFFFFFFFFFFFFFFFFFFFFFFFF AND PUSH20 0xFFFFFFFFFFFFFFFFFFFFFFFFFFFFFFFFFFFFFFFF AND DUP2 MSTORE PUSH1 0x20 ADD SWAP1 DUP2 MSTORE PUSH1 0x20 ADD PUSH1 0x0 KECCAK256 SLOAD DUP3 GT ISZERO PUSH2 0x114B JUMPI PUSH1 0x0 DUP1 REVERT JUMPDEST PUSH1 0x0 PUSH20 0xFFFFFFFFFFFFFFFFFFFFFFFFFFFFFFFFFFFFFFFF AND DUP4 PUSH20 0xFFFFFFFFFFFFFFFFFFFFFFFFFFFFFFFFFFFFFFFF AND SUB PUSH2 0x1184 JUMPI PUSH1 0x0 DUP1 REVERT JUMPDEST PUSH2 0x11D6 DUP3 PUSH1 0x3 PUSH1 0x0 CALLER PUSH20 0xFFFFFFFFFFFFFFFFFFFFFFFFFFFFFFFFFFFFFFFF AND PUSH20 0xFFFFFFFFFFFFFFFFFFFFFFFFFFFFFFFFFFFFFFFF AND DUP2 MSTORE PUSH1 0x20 ADD SWAP1 DUP2 MSTORE PUSH1 0x20 ADD PUSH1 0x0 KECCAK256 SLOAD PUSH2 0x1539 SWAP1 SWAP2 SWAP1 PUSH4 0xFFFFFFFF AND JUMP JUMPDEST PUSH1 0x3 PUSH1 0x0 CALLER PUSH20 0xFFFFFFFFFFFFFFFFFFFFFFFFFFFFFFFFFFFFFFFF AND PUSH20 0xFFFFFFFFFFFFFFFFFFFFFFFFFFFFFFFFFFFFFFFF AND DUP2 MSTORE PUSH1 0x20 ADD SWAP1 DUP2 MSTORE PUSH1 0x20 ADD PUSH1 0x0 KECCAK256 DUP2 SWAP1 SSTORE POP PUSH2 0x126B DUP3 PUSH1 0x3 PUSH1 0x0 DUP7 PUSH20 0xFFFFFFFFFFFFFFFFFFFFFFFFFFFFFFFFFFFFFFFF AND PUSH20 0xFFFFFFFFFFFFFFFFFFFFFFFFFFFFFFFFFFFFFFFF AND DUP2 MSTORE PUSH1 0x20 ADD SWAP1 DUP2 MSTORE PUSH1 0x20 ADD PUSH1 0x0 KECCAK256 SLOAD PUSH2 0x1810 SWAP1 SWAP2 SWAP1 PUSH4 0xFFFFFFFF AND JUMP JUMPDEST PUSH1 0x3 PUSH1 0x0 DUP6 PUSH20 0xFFFFFFFFFFFFFFFFFFFFFFFFFFFFFFFFFFFFFFFF AND PUSH20 0xFFFFFFFFFFFFFFFFFFFFFFFFFFFFFFFFFFFFFFFF AND DUP2 MSTORE PUSH1 0x20 ADD SWAP1 DUP2 MSTORE PUSH1 0x20 ADD PUSH1 0x0 KECCAK256 DUP2 SWAP1 SSTORE POP PUSH1 0x3 PUSH1 0x0 PUSH1 0x2 PUSH1 0x0 SWAP1 SLOAD SWAP1 PUSH2 0x100 EXP SWAP1 DIV PUSH20 0xFFFFFFFFFFFFFFFFFFFFFFFFFFFFFFFFFFFFFFFF AND PUSH20 0xFFFFFFFFFFFFFFFFFFFFFFFFFFFFFFFFFFFFFFFF AND PUSH20 0xFFFFFFFFFFFFFFFFFFFFFFFFFFFFFFFFFFFFFFFF AND DUP2 MSTORE PUSH1 0x20 ADD SWAP1 DUP2 MSTORE PUSH1 0x20 ADD PUSH1 0x0 KECCAK256 SLOAD PUSH1 0x3 PUSH1 0x0 DUP6 PUSH20 0xFFFFFFFFFFFFFFFFFFFFFFFFFFFFFFFFFFFFFFFF AND PUSH20 0xFFFFFFFFFFFFFFFFFFFFFFFFFFFFFFFFFFFFFFFF AND DUP2 MSTORE PUSH1 0x20 ADD SWAP1 DUP2 MSTORE PUSH1 0x20 ADD PUSH1 0x0 KECCAK256 SLOAD GT ISZERO PUSH2 0x1398 JUMPI DUP3 PUSH1 0x2 PUSH1 0x0 PUSH2 0x100 EXP DUP2 SLOAD DUP2 PUSH20 0xFFFFFFFFFFFFFFFFFFFFFFFFFFFFFFFFFFFFFFFF MUL NOT AND SWAP1 DUP4 PUSH20 0xFFFFFFFFFFFFFFFFFFFFFFFFFFFFFFFFFFFFFFFF AND MUL OR SWAP1 SSTORE POP JUMPDEST DUP3 PUSH20 0xFFFFFFFFFFFFFFFFFFFFFFFFFFFFFFFFFFFFFFFF AND CALLER PUSH20 0xFFFFFFFFFFFFFFFFFFFFFFFFFFFFFFFFFFFFFFFF AND PUSH32 0xDDF252AD1BE2C89B69C2B068FC378DAA952BA7F163C4A11628F55A4DF523B3EF DUP5 PUSH1 0x40 MLOAD PUSH2 0x13F5 SWAP2 SWAP1 PUSH2 0x1A48 JUMP JUMPDEST PUSH1 0x40 MLOAD DUP1 SWAP2 SUB SWAP1 LOG3 PUSH1 0x1 SWAP1 POP SWAP3 SWAP2 POP POP JUMP JUMPDEST PUSH1 0x0 PUSH1 0x2 PUSH1 0x0 SWAP1 SLOAD SWAP1 PUSH2 0x100 EXP SWAP1 DIV PUSH20 0xFFFFFFFFFFFFFFFFFFFFFFFFFFFFFFFFFFFFFFFF AND PUSH20 0xFFFFFFFFFFFFFFFFFFFFFFFFFFFFFFFFFFFFFFFF AND CALLER PUSH20 0xFFFFFFFFFFFFFFFFFFFFFFFFFFFFFFFFFFFFFFFF AND EQ PUSH2 0x1499 JUMPI PUSH1 0x40 MLOAD PUSH32 0x8C379A000000000000000000000000000000000000000000000000000000000 DUP2 MSTORE PUSH1 0x4 ADD PUSH2 0x1490 SWAP1 PUSH2 0x2023 JUMP JUMPDEST PUSH1 0x40 MLOAD DUP1 SWAP2 SUB SWAP1 REVERT JUMPDEST DUP2 PUSH1 0x1 SWAP1 DUP2 PUSH2 0x14A8 SWAP2 SWAP1 PUSH2 0x21EF JUMP JUMPDEST POP PUSH1 0x1 SWAP1 POP SWAP2 SWAP1 POP JUMP JUMPDEST PUSH1 0x0 PUSH1 0x4 PUSH1 0x0 DUP5 PUSH20 0xFFFFFFFFFFFFFFFFFFFFFFFFFFFFFFFFFFFFFFFF AND PUSH20 0xFFFFFFFFFFFFFFFFFFFFFFFFFFFFFFFFFFFFFFFF AND DUP2 MSTORE PUSH1 0x20 ADD SWAP1 DUP2 MSTORE PUSH1 0x20 ADD PUSH1 0x0 KECCAK256 PUSH1 0x0 DUP4 PUSH20 0xFFFFFFFFFFFFFFFFFFFFFFFFFFFFFFFFFFFFFFFF AND PUSH20 0xFFFFFFFFFFFFFFFFFFFFFFFFFFFFFFFFFFFFFFFF AND DUP2 MSTORE PUSH1 0x20 ADD SWAP1 DUP2 MSTORE PUSH1 0x20 ADD PUSH1 0x0 KECCAK256 SLOAD SWAP1 POP SWAP3 SWAP2 POP POP JUMP JUMPDEST PUSH1 0x0 DUP3 DUP3 DUP5 PUSH2 0x1548 SWAP2 SWAP1 PUSH2 0x22F0 JUMP JUMPDEST SWAP2 POP DUP2 GT ISZERO PUSH2 0x158C JUMPI PUSH1 0x40 MLOAD PUSH32 0x8C379A000000000000000000000000000000000000000000000000000000000 DUP2 MSTORE PUSH1 0x4 ADD PUSH2 0x1583 SWAP1 PUSH2 0x2370 JUMP JUMPDEST PUSH1 0x40 MLOAD DUP1 SWAP2 SUB SWAP1 REVERT JUMPDEST SWAP3 SWAP2 POP POP JUMP JUMPDEST PUSH2 0x15E4 DUP2 PUSH1 0x3 PUSH1 0x0 DUP7 PUSH20 0xFFFFFFFFFFFFFFFFFFFFFFFFFFFFFFFFFFFFFFFF AND PUSH20 0xFFFFFFFFFFFFFFFFFFFFFFFFFFFFFFFFFFFFFFFF AND DUP2 MSTORE PUSH1 0x20 ADD SWAP1 DUP2 MSTORE PUSH1 0x20 ADD PUSH1 0x0 KECCAK256 SLOAD PUSH2 0x1539 SWAP1 SWAP2 SWAP1 PUSH4 0xFFFFFFFF AND JUMP JUMPDEST PUSH1 0x3 PUSH1 0x0 DUP6 PUSH20 0xFFFFFFFFFFFFFFFFFFFFFFFFFFFFFFFFFFFFFFFF AND PUSH20 0xFFFFFFFFFFFFFFFFFFFFFFFFFFFFFFFFFFFFFFFF AND DUP2 MSTORE PUSH1 0x20 ADD SWAP1 DUP2 MSTORE PUSH1 0x20 ADD PUSH1 0x0 KECCAK256 DUP2 SWAP1 SSTORE POP PUSH2 0x1679 DUP2 PUSH1 0x3 PUSH1 0x0 DUP6 PUSH20 0xFFFFFFFFFFFFFFFFFFFFFFFFFFFFFFFFFFFFFFFF AND PUSH20 0xFFFFFFFFFFFFFFFFFFFFFFFFFFFFFFFFFFFFFFFF AND DUP2 MSTORE PUSH1 0x20 ADD SWAP1 DUP2 MSTORE PUSH1 0x20 ADD PUSH1 0x0 KECCAK256 SLOAD PUSH2 0x1810 SWAP1 SWAP2 SWAP1 PUSH4 0xFFFFFFFF AND JUMP JUMPDEST PUSH1 0x3 PUSH1 0x0 DUP5 PUSH20 0xFFFFFFFFFFFFFFFFFFFFFFFFFFFFFFFFFFFFFFFF AND PUSH20 0xFFFFFFFFFFFFFFFFFFFFFFFFFFFFFFFFFFFFFFFF AND DUP2 MSTORE PUSH1 0x20 ADD SWAP1 DUP2 MSTORE PUSH1 0x20 ADD PUSH1 0x0 KECCAK256 DUP2 SWAP1 SSTORE POP PUSH1 0x3 PUSH1 0x0 PUSH1 0x2 PUSH1 0x0 SWAP1 SLOAD SWAP1 PUSH2 0x100 EXP SWAP1 DIV PUSH20 0xFFFFFFFFFFFFFFFFFFFFFFFFFFFFFFFFFFFFFFFF AND PUSH20 0xFFFFFFFFFFFFFFFFFFFFFFFFFFFFFFFFFFFFFFFF AND PUSH20 0xFFFFFFFFFFFFFFFFFFFFFFFFFFFFFFFFFFFFFFFF AND DUP2 MSTORE PUSH1 0x20 ADD SWAP1 DUP2 MSTORE PUSH1 0x20 ADD PUSH1 0x0 KECCAK256 SLOAD PUSH1 0x3 PUSH1 0x0 DUP5 PUSH20 0xFFFFFFFFFFFFFFFFFFFFFFFFFFFFFFFFFFFFFFFF AND PUSH20 0xFFFFFFFFFFFFFFFFFFFFFFFFFFFFFFFFFFFFFFFF AND DUP2 MSTORE PUSH1 0x20 ADD SWAP1 DUP2 MSTORE PUSH1 0x20 ADD PUSH1 0x0 KECCAK256 SLOAD GT ISZERO PUSH2 0x17A6 JUMPI DUP2 PUSH1 0x2 PUSH1 0x0 PUSH2 0x100 EXP DUP2 SLOAD DUP2 PUSH20 0xFFFFFFFFFFFFFFFFFFFFFFFFFFFFFFFFFFFFFFFF MUL NOT AND SWAP1 DUP4 PUSH20 0xFFFFFFFFFFFFFFFFFFFFFFFFFFFFFFFFFFFFFFFF AND MUL OR SWAP1 SSTORE POP JUMPDEST DUP2 PUSH20 0xFFFFFFFFFFFFFFFFFFFFFFFFFFFFFFFFFFFFFFFF AND DUP4 PUSH20 0xFFFFFFFFFFFFFFFFFFFFFFFFFFFFFFFFFFFFFFFF AND PUSH32 0xDDF252AD1BE2C89B69C2B068FC378DAA952BA7F163C4A11628F55A4DF523B3EF DUP4 PUSH1 0x40 MLOAD PUSH2 0x1803 SWAP2 SWAP1 PUSH2 0x1A48 JUMP JUMPDEST PUSH1 0x40 MLOAD DUP1 SWAP2 SUB SWAP1 LOG3 POP POP POP JUMP JUMPDEST PUSH1 0x0 DUP3 DUP3 DUP5 PUSH2 0x181F SWAP2 SWAP1 PUSH2 0x2390 JUMP JUMPDEST SWAP2 POP DUP2 LT ISZERO PUSH2 0x1863 JUMPI PUSH1 0x40 MLOAD PUSH32 0x8C379A000000000000000000000000000000000000000000000000000000000 DUP2 MSTORE PUSH1 0x4 ADD PUSH2 0x185A SWAP1 PUSH2 0x2410 JUMP JUMPDEST PUSH1 0x40 MLOAD DUP1 SWAP2 SUB SWAP1 REVERT JUMPDEST SWAP3 SWAP2 POP POP JUMP JUMPDEST PUSH1 0x0 DUP2 MLOAD SWAP1 POP SWAP2 SWAP1 POP JUMP JUMPDEST PUSH1 0x0 DUP3 DUP3 MSTORE PUSH1 0x20 DUP3 ADD SWAP1 POP SWAP3 SWAP2 POP POP JUMP JUMPDEST PUSH1 0x0 JUMPDEST DUP4 DUP2 LT ISZERO PUSH2 0x18A3 JUMPI DUP1 DUP3 ADD MLOAD DUP2 DUP5 ADD MSTORE PUSH1 0x20 DUP2 ADD SWAP1 POP PUSH2 0x1888 JUMP JUMPDEST PUSH1 0x0 DUP5 DUP5 ADD MSTORE POP POP POP POP JUMP JUMPDEST PUSH1 0x0 PUSH1 0x1F NOT PUSH1 0x1F DUP4 ADD AND SWAP1 POP SWAP2 SWAP1 POP JUMP JUMPDEST PUSH1 0x0 PUSH2 0x18CB DUP3 PUSH2 0x1869 JUMP JUMPDEST PUSH2 0x18D5 DUP2 DUP6 PUSH2 0x1874 JUMP JUMPDEST SWAP4 POP PUSH2 0x18E5 DUP2 DUP6 PUSH1 0x20 DUP7 ADD PUSH2 0x1885 JUMP JUMPDEST PUSH2 0x18EE DUP2 PUSH2 0x18AF JUMP JUMPDEST DUP5 ADD SWAP2 POP POP SWAP3 SWAP2 POP POP JUMP JUMPDEST PUSH1 0x0 PUSH1 0x20 DUP3 ADD SWAP1 POP DUP2 DUP2 SUB PUSH1 0x0 DUP4 ADD MSTORE PUSH2 0x1913 DUP2 DUP5 PUSH2 0x18C0 JUMP JUMPDEST SWAP1 POP SWAP3 SWAP2 POP POP JUMP JUMPDEST PUSH1 0x0 PUSH1 0x40 MLOAD SWAP1 POP SWAP1 JUMP JUMPDEST PUSH1 0x0 DUP1 REVERT JUMPDEST PUSH1 0x0 DUP1 REVERT JUMPDEST PUSH1 0x0 PUSH20 0xFFFFFFFFFFFFFFFFFFFFFFFFFFFFFFFFFFFFFFFF DUP3 AND SWAP1 POP SWAP2 SWAP1 POP JUMP JUMPDEST PUSH1 0x0 PUSH2 0x195A DUP3 PUSH2 0x192F JUMP JUMPDEST SWAP1 POP SWAP2 SWAP1 POP JUMP JUMPDEST PUSH2 0x196A DUP2 PUSH2 0x194F JUMP JUMPDEST DUP2 EQ PUSH2 0x1975 JUMPI PUSH1 0x0 DUP1 REVERT JUMPDEST POP JUMP JUMPDEST PUSH1 0x0 DUP2 CALLDATALOAD SWAP1 POP PUSH2 0x1987 DUP2 PUSH2 0x1961 JUMP JUMPDEST SWAP3 SWAP2 POP POP JUMP JUMPDEST PUSH1 0x0 DUP2 SWAP1 POP SWAP2 SWAP1 POP JUMP JUMPDEST PUSH2 0x19A0 DUP2 PUSH2 0x198D JUMP JUMPDEST DUP2 EQ PUSH2 0x19AB JUMPI PUSH1 0x0 DUP1 REVERT JUMPDEST POP JUMP JUMPDEST PUSH1 0x0 DUP2 CALLDATALOAD SWAP1 POP PUSH2 0x19BD DUP2 PUSH2 0x1997 JUMP JUMPDEST SWAP3 SWAP2 POP POP JUMP JUMPDEST PUSH1 0x0 DUP1 PUSH1 0x40 DUP4 DUP6 SUB SLT ISZERO PUSH2 0x19DA JUMPI PUSH2 0x19D9 PUSH2 0x1925 JUMP JUMPDEST JUMPDEST PUSH1 0x0 PUSH2 0x19E8 DUP6 DUP3 DUP7 ADD PUSH2 0x1978 JUMP JUMPDEST SWAP3 POP POP PUSH1 0x20 PUSH2 0x19F9 DUP6 DUP3 DUP7 ADD PUSH2 0x19AE JUMP JUMPDEST SWAP2 POP POP SWAP3 POP SWAP3 SWAP1 POP JUMP JUMPDEST PUSH1 0x0 DUP2 ISZERO ISZERO SWAP1 POP SWAP2 SWAP1 POP JUMP JUMPDEST PUSH2 0x1A18 DUP2 PUSH2 0x1A03 JUMP JUMPDEST DUP3 MSTORE POP POP JUMP JUMPDEST PUSH1 0x0 PUSH1 0x20 DUP3 ADD SWAP1 POP PUSH2 0x1A33 PUSH1 0x0 DUP4 ADD DUP5 PUSH2 0x1A0F JUMP JUMPDEST SWAP3 SWAP2 POP POP JUMP JUMPDEST PUSH2 0x1A42 DUP2 PUSH2 0x198D JUMP JUMPDEST DUP3 MSTORE POP POP JUMP JUMPDEST PUSH1 0x0 PUSH1 0x20 DUP3 ADD SWAP1 POP PUSH2 0x1A5D PUSH1 0x0 DUP4 ADD DUP5 PUSH2 0x1A39 JUMP JUMPDEST SWAP3 SWAP2 POP POP JUMP JUMPDEST PUSH2 0x1A6C DUP2 PUSH2 0x194F JUMP JUMPDEST DUP3 MSTORE POP POP JUMP JUMPDEST PUSH1 0x0 PUSH1 0x20 DUP3 ADD SWAP1 POP PUSH2 0x1A87 PUSH1 0x0 DUP4 ADD DUP5 PUSH2 0x1A63 JUMP JUMPDEST SWAP3 SWAP2 POP POP JUMP JUMPDEST PUSH1 0x0 DUP1 PUSH1 0x0 PUSH1 0x60 DUP5 DUP7 SUB SLT ISZERO PUSH2 0x1AA6 JUMPI PUSH2 0x1AA5 PUSH2 0x1925 JUMP JUMPDEST JUMPDEST PUSH1 0x0 PUSH2 0x1AB4 DUP7 DUP3 DUP8 ADD PUSH2 0x1978 JUMP JUMPDEST SWAP4 POP POP PUSH1 0x20 PUSH2 0x1AC5 DUP7 DUP3 DUP8 ADD PUSH2 0x1978 JUMP JUMPDEST SWAP3 POP POP PUSH1 0x40 PUSH2 0x1AD6 DUP7 DUP3 DUP8 ADD PUSH2 0x19AE JUMP JUMPDEST SWAP2 POP POP SWAP3 POP SWAP3 POP SWAP3 JUMP JUMPDEST PUSH1 0x0 PUSH1 0xFF DUP3 AND SWAP1 POP SWAP2 SWAP1 POP JUMP JUMPDEST PUSH2 0x1AF6 DUP2 PUSH2 0x1AE0 JUMP JUMPDEST DUP3 MSTORE POP POP JUMP JUMPDEST PUSH1 0x0 PUSH1 0x20 DUP3 ADD SWAP1 POP PUSH2 0x1B11 PUSH1 0x0 DUP4 ADD DUP5 PUSH2 0x1AED JUMP JUMPDEST SWAP3 SWAP2 POP POP JUMP JUMPDEST PUSH1 0x0 PUSH1 0x20 DUP3 DUP5 SUB SLT ISZERO PUSH2 0x1B2D JUMPI PUSH2 0x1B2C PUSH2 0x1925 JUMP JUMPDEST JUMPDEST PUSH1 0x0 PUSH2 0x1B3B DUP5 DUP3 DUP6 ADD PUSH2 0x1978 JUMP JUMPDEST SWAP2 POP POP SWAP3 SWAP2 POP POP JUMP JUMPDEST PUSH1 0x0 PUSH1 0x20 DUP3 DUP5 SUB SLT ISZERO PUSH2 0x1B5A JUMPI PUSH2 0x1B59 PUSH2 0x1925 JUMP JUMPDEST JUMPDEST PUSH1 0x0 PUSH2 0x1B68 DUP5 DUP3 DUP6 ADD PUSH2 0x19AE JUMP JUMPDEST SWAP2 POP POP SWAP3 SWAP2 POP POP JUMP JUMPDEST PUSH1 0x0 DUP1 REVERT JUMPDEST PUSH1 0x0 DUP1 REVERT JUMPDEST PUSH32 0x4E487B7100000000000000000000000000000000000000000000000000000000 PUSH1 0x0 MSTORE PUSH1 0x41 PUSH1 0x4 MSTORE PUSH1 0x24 PUSH1 0x0 REVERT JUMPDEST PUSH2 0x1BB3 DUP3 PUSH2 0x18AF JUMP JUMPDEST DUP2 ADD DUP2 DUP2 LT PUSH8 0xFFFFFFFFFFFFFFFF DUP3 GT OR ISZERO PUSH2 0x1BD2 JUMPI PUSH2 0x1BD1 PUSH2 0x1B7B JUMP JUMPDEST JUMPDEST DUP1 PUSH1 0x40 MSTORE POP POP POP JUMP JUMPDEST PUSH1 0x0 PUSH2 0x1BE5 PUSH2 0x191B JUMP JUMPDEST SWAP1 POP PUSH2 0x1BF1 DUP3 DUP3 PUSH2 0x1BAA JUMP JUMPDEST SWAP2 SWAP1 POP JUMP JUMPDEST PUSH1 0x0 PUSH8 0xFFFFFFFFFFFFFFFF DUP3 GT ISZERO PUSH2 0x1C11 JUMPI PUSH2 0x1C10 PUSH2 0x1B7B JUMP JUMPDEST JUMPDEST PUSH2 0x1C1A DUP3 PUSH2 0x18AF JUMP JUMPDEST SWAP1 POP PUSH1 0x20 DUP2 ADD SWAP1 POP SWAP2 SWAP1 POP JUMP JUMPDEST DUP3 DUP2 DUP4 CALLDATACOPY PUSH1 0x0 DUP4 DUP4 ADD MSTORE POP POP POP JUMP JUMPDEST PUSH1 0x0 PUSH2 0x1C49 PUSH2 0x1C44 DUP5 PUSH2 0x1BF6 JUMP JUMPDEST PUSH2 0x1BDB JUMP JUMPDEST SWAP1 POP DUP3 DUP2 MSTORE PUSH1 0x20 DUP2 ADD DUP5 DUP5 DUP5 ADD GT ISZERO PUSH2 0x1C65 JUMPI PUSH2 0x1C64 PUSH2 0x1B76 JUMP JUMPDEST JUMPDEST PUSH2 0x1C70 DUP5 DUP3 DUP6 PUSH2 0x1C27 JUMP JUMPDEST POP SWAP4 SWAP3 POP POP POP JUMP JUMPDEST PUSH1 0x0 DUP3 PUSH1 0x1F DUP4 ADD SLT PUSH2 0x1C8D JUMPI PUSH2 0x1C8C PUSH2 0x1B71 JUMP JUMPDEST JUMPDEST DUP2 CALLDATALOAD PUSH2 0x1C9D DUP5 DUP3 PUSH1 0x20 DUP7 ADD PUSH2 0x1C36 JUMP JUMPDEST SWAP2 POP POP SWAP3 SWAP2 POP POP JUMP JUMPDEST PUSH1 0x0 PUSH1 0x20 DUP3 DUP5 SUB SLT ISZERO PUSH2 0x1CBC JUMPI PUSH2 0x1CBB PUSH2 0x1925 JUMP JUMPDEST JUMPDEST PUSH1 0x0 DUP3 ADD CALLDATALOAD PUSH8 0xFFFFFFFFFFFFFFFF DUP2 GT ISZERO PUSH2 0x1CDA JUMPI PUSH2 0x1CD9 PUSH2 0x192A JUMP JUMPDEST JUMPDEST PUSH2 0x1CE6 DUP5 DUP3 DUP6 ADD PUSH2 0x1C78 JUMP JUMPDEST SWAP2 POP POP SWAP3 SWAP2 POP POP JUMP JUMPDEST PUSH1 0x0 DUP1 PUSH1 0x40 DUP4 DUP6 SUB SLT ISZERO PUSH2 0x1D06 JUMPI PUSH2 0x1D05 PUSH2 0x1925 JUMP JUMPDEST JUMPDEST PUSH1 0x0 PUSH2 0x1D14 DUP6 DUP3 DUP7 ADD PUSH2 0x1978 JUMP JUMPDEST SWAP3 POP POP PUSH1 0x20 PUSH2 0x1D25 DUP6 DUP3 DUP7 ADD PUSH2 0x1978 JUMP JUMPDEST SWAP2 POP POP SWAP3 POP SWAP3 SWAP1 POP JUMP JUMPDEST PUSH32 0x4E487B7100000000000000000000000000000000000000000000000000000000 PUSH1 0x0 MSTORE PUSH1 0x22 PUSH1 0x4 MSTORE PUSH1 0x24 PUSH1 0x0 REVERT JUMPDEST PUSH1 0x0 PUSH1 0x2 DUP3 DIV SWAP1 POP PUSH1 0x1 DUP3 AND DUP1 PUSH2 0x1D76 JUMPI PUSH1 0x7F DUP3 AND SWAP2 POP JUMPDEST PUSH1 0x20 DUP3 LT DUP2 SUB PUSH2 0x1D89 JUMPI PUSH2 0x1D88 PUSH2 0x1D2F JUMP JUMPDEST JUMPDEST POP SWAP2 SWAP1 POP JUMP JUMPDEST PUSH32 0x45524332303A206275726E2066726F6D20746865207A65726F20616464726573 PUSH1 0x0 DUP3 ADD MSTORE PUSH32 0x7300000000000000000000000000000000000000000000000000000000000000 PUSH1 0x20 DUP3 ADD MSTORE POP JUMP JUMPDEST PUSH1 0x0 PUSH2 0x1DEB PUSH1 0x21 DUP4 PUSH2 0x1874 JUMP JUMPDEST SWAP2 POP PUSH2 0x1DF6 DUP3 PUSH2 0x1D8F JUMP JUMPDEST PUSH1 0x40 DUP3 ADD SWAP1 POP SWAP2 SWAP1 POP JUMP JUMPDEST PUSH1 0x0 PUSH1 0x20 DUP3 ADD SWAP1 POP DUP2 DUP2 SUB PUSH1 0x0 DUP4 ADD MSTORE PUSH2 0x1E1A DUP2 PUSH2 0x1DDE JUMP JUMPDEST SWAP1 POP SWAP2 SWAP1 POP JUMP JUMPDEST PUSH32 0x4F6E6C7920746865206869676865737420746F6B656E20686F6C646572206361 PUSH1 0x0 DUP3 ADD MSTORE PUSH32 0x6E2070756E69736820616E64206275726E20746F6B656E732E00000000000000 PUSH1 0x20 DUP3 ADD MSTORE POP JUMP JUMPDEST PUSH1 0x0 PUSH2 0x1E7D PUSH1 0x39 DUP4 PUSH2 0x1874 JUMP JUMPDEST SWAP2 POP PUSH2 0x1E88 DUP3 PUSH2 0x1E21 JUMP JUMPDEST PUSH1 0x40 DUP3 ADD SWAP1 POP SWAP2 SWAP1 POP JUMP JUMPDEST PUSH1 0x0 PUSH1 0x20 DUP3 ADD SWAP1 POP DUP2 DUP2 SUB PUSH1 0x0 DUP4 ADD MSTORE PUSH2 0x1EAC DUP2 PUSH2 0x1E70 JUMP JUMPDEST SWAP1 POP SWAP2 SWAP1 POP JUMP JUMPDEST PUSH32 0x6275726E20616D6F756E7420657863656564732062616C616E63650000000000 PUSH1 0x0 DUP3 ADD MSTORE POP JUMP JUMPDEST PUSH1 0x0 PUSH2 0x1EE9 PUSH1 0x1B DUP4 PUSH2 0x1874 JUMP JUMPDEST SWAP2 POP PUSH2 0x1EF4 DUP3 PUSH2 0x1EB3 JUMP JUMPDEST PUSH1 0x20 DUP3 ADD SWAP1 POP SWAP2 SWAP1 POP JUMP JUMPDEST PUSH1 0x0 PUSH1 0x20 DUP3 ADD SWAP1 POP DUP2 DUP2 SUB PUSH1 0x0 DUP4 ADD MSTORE PUSH2 0x1F18 DUP2 PUSH2 0x1EDC JUMP JUMPDEST SWAP1 POP SWAP2 SWAP1 POP JUMP JUMPDEST PUSH32 0x4F6E6C7920746865206869676865737420746F6B656E20686F6C646572206361 PUSH1 0x0 DUP3 ADD MSTORE PUSH32 0x6E206D696E74206E657720746F6B656E732E0000000000000000000000000000 PUSH1 0x20 DUP3 ADD MSTORE POP JUMP JUMPDEST PUSH1 0x0 PUSH2 0x1F7B PUSH1 0x32 DUP4 PUSH2 0x1874 JUMP JUMPDEST SWAP2 POP PUSH2 0x1F86 DUP3 PUSH2 0x1F1F JUMP JUMPDEST PUSH1 0x40 DUP3 ADD SWAP1 POP SWAP2 SWAP1 POP JUMP JUMPDEST PUSH1 0x0 PUSH1 0x20 DUP3 ADD SWAP1 POP DUP2 DUP2 SUB PUSH1 0x0 DUP4 ADD MSTORE PUSH2 0x1FAA DUP2 PUSH2 0x1F6E JUMP JUMPDEST SWAP1 POP SWAP2 SWAP1 POP JUMP JUMPDEST PUSH32 0x4F6E6C7920746865206869676865737420746F6B656E20686F6C646572206361 PUSH1 0x0 DUP3 ADD MSTORE PUSH32 0x6E206368616E676520746865206E616D652E0000000000000000000000000000 PUSH1 0x20 DUP3 ADD MSTORE POP JUMP JUMPDEST PUSH1 0x0 PUSH2 0x200D PUSH1 0x32 DUP4 PUSH2 0x1874 JUMP JUMPDEST SWAP2 POP PUSH2 0x2018 DUP3 PUSH2 0x1FB1 JUMP JUMPDEST PUSH1 0x40 DUP3 ADD SWAP1 POP SWAP2 SWAP1 POP JUMP JUMPDEST PUSH1 0x0 PUSH1 0x20 DUP3 ADD SWAP1 POP DUP2 DUP2 SUB PUSH1 0x0 DUP4 ADD MSTORE PUSH2 0x203C DUP2 PUSH2 0x2000 JUMP JUMPDEST SWAP1 POP SWAP2 SWAP1 POP JUMP JUMPDEST PUSH1 0x0 DUP2 SWAP1 POP DUP2 PUSH1 0x0 MSTORE PUSH1 0x20 PUSH1 0x0 KECCAK256 SWAP1 POP SWAP2 SWAP1 POP JUMP JUMPDEST PUSH1 0x0 PUSH1 0x20 PUSH1 0x1F DUP4 ADD DIV SWAP1 POP SWAP2 SWAP1 POP JUMP JUMPDEST PUSH1 0x0 DUP3 DUP3 SHL SWAP1 POP SWAP3 SWAP2 POP POP JUMP JUMPDEST PUSH1 0x0 PUSH1 0x8 DUP4 MUL PUSH2 0x20A5 PUSH32 0xFFFFFFFFFFFFFFFFFFFFFFFFFFFFFFFFFFFFFFFFFFFFFFFFFFFFFFFFFFFFFFFF DUP3 PUSH2 0x2068 JUMP JUMPDEST PUSH2 0x20AF DUP7 DUP4 PUSH2 0x2068 JUMP JUMPDEST SWAP6 POP DUP1 NOT DUP5 AND SWAP4 POP DUP1 DUP7 AND DUP5 OR SWAP3 POP POP POP SWAP4 SWAP3 POP POP POP JUMP JUMPDEST PUSH1 0x0 DUP2 SWAP1 POP SWAP2 SWAP1 POP JUMP JUMPDEST PUSH1 0x0 PUSH2 0x20EC PUSH2 0x20E7 PUSH2 0x20E2 DUP5 PUSH2 0x198D JUMP JUMPDEST PUSH2 0x20C7 JUMP JUMPDEST PUSH2 0x198D JUMP JUMPDEST SWAP1 POP SWAP2 SWAP1 POP JUMP JUMPDEST PUSH1 0x0 DUP2 SWAP1 POP SWAP2 SWAP1 POP JUMP JUMPDEST PUSH2 0x2106 DUP4 PUSH2 0x20D1 JUMP JUMPDEST PUSH2 0x211A PUSH2 0x2112 DUP3 PUSH2 0x20F3 JUMP JUMPDEST DUP5 DUP5 SLOAD PUSH2 0x2075 JUMP JUMPDEST DUP3 SSTORE POP POP POP POP JUMP JUMPDEST PUSH1 0x0 SWAP1 JUMP JUMPDEST PUSH2 0x212F PUSH2 0x2122 JUMP JUMPDEST PUSH2 0x213A DUP2 DUP5 DUP5 PUSH2 0x20FD JUMP JUMPDEST POP POP POP JUMP JUMPDEST JUMPDEST DUP2 DUP2 LT ISZERO PUSH2 0x215E JUMPI PUSH2 0x2153 PUSH1 0x0 DUP3 PUSH2 0x2127 JUMP JUMPDEST PUSH1 0x1 DUP2 ADD SWAP1 POP PUSH2 0x2140 JUMP JUMPDEST POP POP JUMP JUMPDEST PUSH1 0x1F DUP3 GT ISZERO PUSH2 0x21A3 JUMPI PUSH2 0x2174 DUP2 PUSH2 0x2043 JUMP JUMPDEST PUSH2 0x217D DUP5 PUSH2 0x2058 JUMP JUMPDEST DUP2 ADD PUSH1 0x20 DUP6 LT ISZERO PUSH2 0x218C JUMPI DUP2 SWAP1 POP JUMPDEST PUSH2 0x21A0 PUSH2 0x2198 DUP6 PUSH2 0x2058 JUMP JUMPDEST DUP4 ADD DUP3 PUSH2 0x213F JUMP JUMPDEST POP POP JUMPDEST POP POP POP JUMP JUMPDEST PUSH1 0x0 DUP3 DUP3 SHR SWAP1 POP SWAP3 SWAP2 POP POP JUMP JUMPDEST PUSH1 0x0 PUSH2 0x21C6 PUSH1 0x0 NOT DUP5 PUSH1 0x8 MUL PUSH2 0x21A8 JUMP JUMPDEST NOT DUP1 DUP4 AND SWAP2 POP POP SWAP3 SWAP2 POP POP JUMP JUMPDEST PUSH1 0x0 PUSH2 0x21DF DUP4 DUP4 PUSH2 0x21B5 JUMP JUMPDEST SWAP2 POP DUP3 PUSH1 0x2 MUL DUP3 OR SWAP1 POP SWAP3 SWAP2 POP POP JUMP JUMPDEST PUSH2 0x21F8 DUP3 PUSH2 0x1869 JUMP JUMPDEST PUSH8 0xFFFFFFFFFFFFFFFF DUP2 GT ISZERO PUSH2 0x2211 JUMPI PUSH2 0x2210 PUSH2 0x1B7B JUMP JUMPDEST JUMPDEST PUSH2 0x221B DUP3 SLOAD PUSH2 0x1D5E JUMP JUMPDEST PUSH2 0x2226 DUP3 DUP3 DUP6 PUSH2 0x2162 JUMP JUMPDEST PUSH1 0x0 PUSH1 0x20 SWAP1 POP PUSH1 0x1F DUP4 GT PUSH1 0x1 DUP2 EQ PUSH2 0x2259 JUMPI PUSH1 0x0 DUP5 ISZERO PUSH2 0x2247 JUMPI DUP3 DUP8 ADD MLOAD SWAP1 POP JUMPDEST PUSH2 0x2251 DUP6 DUP3 PUSH2 0x21D3 JUMP JUMPDEST DUP7 SSTORE POP PUSH2 0x22B9 JUMP JUMPDEST PUSH1 0x1F NOT DUP5 AND PUSH2 0x2267 DUP7 PUSH2 0x2043 JUMP JUMPDEST PUSH1 0x0 JUMPDEST DUP3 DUP2 LT ISZERO PUSH2 0x228F JUMPI DUP5 DUP10 ADD MLOAD DUP3 SSTORE PUSH1 0x1 DUP3 ADD SWAP2 POP PUSH1 0x20 DUP6 ADD SWAP5 POP PUSH1 0x20 DUP2 ADD SWAP1 POP PUSH2 0x226A JUMP JUMPDEST DUP7 DUP4 LT ISZERO PUSH2 0x22AC JUMPI DUP5 DUP10 ADD MLOAD PUSH2 0x22A8 PUSH1 0x1F DUP10 AND DUP3 PUSH2 0x21B5 JUMP JUMPDEST DUP4 SSTORE POP JUMPDEST PUSH1 0x1 PUSH1 0x2 DUP9 MUL ADD DUP9 SSTORE POP POP POP JUMPDEST POP POP POP POP POP POP JUMP JUMPDEST PUSH32 0x4E487B7100000000000000000000000000000000000000000000000000000000 PUSH1 0x0 MSTORE PUSH1 0x11 PUSH1 0x4 MSTORE PUSH1 0x24 PUSH1 0x0 REVERT JUMPDEST PUSH1 0x0 PUSH2 0x22FB DUP3 PUSH2 0x198D JUMP JUMPDEST SWAP2 POP PUSH2 0x2306 DUP4 PUSH2 0x198D JUMP JUMPDEST SWAP3 POP DUP3 DUP3 SUB SWAP1 POP DUP2 DUP2 GT ISZERO PUSH2 0x231E JUMPI PUSH2 0x231D PUSH2 0x22C1 JUMP JUMPDEST JUMPDEST SWAP3 SWAP2 POP POP JUMP JUMPDEST PUSH32 0x64732D6D6174682D7375622D756E646572666C6F770000000000000000000000 PUSH1 0x0 DUP3 ADD MSTORE POP JUMP JUMPDEST PUSH1 0x0 PUSH2 0x235A PUSH1 0x15 DUP4 PUSH2 0x1874 JUMP JUMPDEST SWAP2 POP PUSH2 0x2365 DUP3 PUSH2 0x2324 JUMP JUMPDEST PUSH1 0x20 DUP3 ADD SWAP1 POP SWAP2 SWAP1 POP JUMP JUMPDEST PUSH1 0x0 PUSH1 0x20 DUP3 ADD SWAP1 POP DUP2 DUP2 SUB PUSH1 0x0 DUP4 ADD MSTORE PUSH2 0x2389 DUP2 PUSH2 0x234D JUMP JUMPDEST SWAP1 POP SWAP2 SWAP1 POP JUMP JUMPDEST PUSH1 0x0 PUSH2 0x239B DUP3 PUSH2 0x198D JUMP JUMPDEST SWAP2 POP PUSH2 0x23A6 DUP4 PUSH2 0x198D JUMP JUMPDEST SWAP3 POP DUP3 DUP3 ADD SWAP1 POP DUP1 DUP3 GT ISZERO PUSH2 0x23BE JUMPI PUSH2 0x23BD PUSH2 0x22C1 JUMP JUMPDEST JUMPDEST SWAP3 SWAP2 POP POP JUMP JUMPDEST PUSH32 0x64732D6D6174682D6164642D6F766572666C6F77000000000000000000000000 PUSH1 0x0 DUP3 ADD MSTORE POP JUMP JUMPDEST PUSH1 0x0 PUSH2 0x23FA PUSH1 0x14 DUP4 PUSH2 0x1874 JUMP JUMPDEST SWAP2 POP PUSH2 0x2405 DUP3 PUSH2 0x23C4 JUMP JUMPDEST PUSH1 0x20 DUP3 ADD SWAP1 POP SWAP2 SWAP1 POP JUMP JUMPDEST PUSH1 0x0 PUSH1 0x20 DUP3 ADD SWAP1 POP DUP2 DUP2 SUB PUSH1 0x0 DUP4 ADD MSTORE PUSH2 0x2429 DUP2 PUSH2 0x23ED JUMP JUMPDEST SWAP1 POP SWAP2 SWAP1 POP JUMP INVALID LOG2 PUSH5 0x6970667358 0x22 SLT KECCAK256 SWAP14 SWAP1 0xB6 LOG4 SLT PUSH19 0x3E49BDF3157D2FB2576323CE6679C47EDED658 0x4C 0xE 0x27 STATICCALL 0x2C SLT SWAP8 PUSH5 0x736F6C6343 STOP ADDMOD GT STOP CALLER "
				},
				"gasEstimates": {
					"creation": {
						"codeDepositCost": "1863600",
						"executionCost": "infinite",
						"totalCost": "infinite"
					},
					"external": {
						"_totalSupply()": "2518",
						"allowance(address,address)": "infinite",
						"approve(address,uint256)": "infinite",
						"balanceOf(address)": "2864",
						"burn(address,uint256)": "infinite",
						"changeTokenName(string)": "infinite",
						"decimals()": "380",
						"decreaseAllowance(address,uint256)": "infinite",
						"highestBalanceAddress()": "2604",
						"increaseAllowance(address,uint256)": "infinite",
						"mint(uint256)": "infinite",
						"name()": "infinite",
						"symbol()": "infinite",
						"totalSupply()": "2505",
						"transfer(address,uint256)": "infinite",
						"transferFrom(address,address,uint256)": "infinite"
					},
					"internal": {
						"_transfer(address,address,uint256)": "infinite"
					}
				},
				"methodIdentifiers": {
					"_totalSupply()": "3eaaf86b",
					"allowance(address,address)": "dd62ed3e",
					"approve(address,uint256)": "095ea7b3",
					"balanceOf(address)": "70a08231",
					"burn(address,uint256)": "9dc29fac",
					"changeTokenName(string)": "b0018bfc",
					"decimals()": "313ce567",
					"decreaseAllowance(address,uint256)": "a457c2d7",
					"highestBalanceAddress()": "1e3c51cf",
					"increaseAllowance(address,uint256)": "39509351",
					"mint(uint256)": "a0712d68",
					"name()": "06fdde03",
					"symbol()": "95d89b41",
					"totalSupply()": "18160ddd",
					"transfer(address,uint256)": "a9059cbb",
					"transferFrom(address,address,uint256)": "23b872dd"
				}
			},
			"storageLayout": {
				"storage": [
					{
						"astId": 13,
						"contract": "Blanco/BlancoToken.sol:BlancoToken",
						"label": "_totalSupply",
						"offset": 0,
						"slot": "0",
						"type": "t_uint256"
					},
					{
						"astId": 16,
						"contract": "Blanco/BlancoToken.sol:BlancoToken",
						"label": "name",
						"offset": 0,
						"slot": "1",
						"type": "t_string_storage"
					},
					{
						"astId": 24,
						"contract": "Blanco/BlancoToken.sol:BlancoToken",
						"label": "highestBalanceAddress",
						"offset": 0,
						"slot": "2",
						"type": "t_address"
					},
					{
						"astId": 28,
						"contract": "Blanco/BlancoToken.sol:BlancoToken",
						"label": "_balances",
						"offset": 0,
						"slot": "3",
						"type": "t_mapping(t_address,t_uint256)"
					},
					{
						"astId": 34,
						"contract": "Blanco/BlancoToken.sol:BlancoToken",
						"label": "_allowed",
						"offset": 0,
						"slot": "4",
						"type": "t_mapping(t_address,t_mapping(t_address,t_uint256))"
					}
				],
				"types": {
					"t_address": {
						"encoding": "inplace",
						"label": "address",
						"numberOfBytes": "20"
					},
					"t_mapping(t_address,t_mapping(t_address,t_uint256))": {
						"encoding": "mapping",
						"key": "t_address",
						"label": "mapping(address => mapping(address => uint256))",
						"numberOfBytes": "32",
						"value": "t_mapping(t_address,t_uint256)"
					},
					"t_mapping(t_address,t_uint256)": {
						"encoding": "mapping",
						"key": "t_address",
						"label": "mapping(address => uint256)",
						"numberOfBytes": "32",
						"value": "t_uint256"
					},
					"t_string_storage": {
						"encoding": "bytes",
						"label": "string",
						"numberOfBytes": "32"
					},
					"t_uint256": {
						"encoding": "inplace",
						"label": "uint256",
						"numberOfBytes": "32"
					}
				}
			},
			"userdoc": {
				"kind": "user",
				"methods": {
					"allowance(address,address)": {
						"notice": "Function to check the amount of tokens that an owner allowed to a spender."
					}
				},
				"version": 1
			}
		}
	}
}